:100000000C9437000C9471030C945F000C945F0007
:100010000C945F000C945F000C945F000C945F00E4
:100020000C945F000C945F000C945F000C945703D9
:100030000C945F000C945F000C945F000C945F00C4
:100040000C94B3050C945F000C94190B0C944B0B9F
:100050000C945F000C945F000C945F000C945F00A4
:100060000C945F000C945F00A9037B0BB503112473
:100070001FBECFEFD8E0DEBFCDBF12E0A0E0B1E001
:10008000E6E8F2E202C005900D92AA3CB107D9F76A
:1000900023E0AAECB2E001C01D92A73AB207E1F753
:1000A00010E0CCE6D0E004C02297FE010E94480E8A
:1000B000C836D107C9F70E9432080C9436110C9447
:1000C0000000CF92DF92EF92FF928EE480937C004B
:1000D00062E070E080E090E00E94210680917A006A
:1000E000806480937A0080917A0086FDFCCF8091B5
:1000F00078002091790030E0322F2227442737FD05
:100100004095542F282B60ED7FE581E190E00E941F
:10011000F60D69017A018091FC02882371F066E096
:1001200071E086E093E00E948D082AE030E0B7019C
:10013000A60186E093E00E949109C701B601FF90F5
:10014000EF90DF90CF90089580E480937C008091C1
:100150007A00806C80937A008CED95E00E94A7066F
:1001600080917A0086FDFCCF809178002091790003
:1001700090E0922B089581E480937C0080917A0036
:10018000806C80937A008CED95E00E94A7068091A8
:100190007A0086FDFCCF809178002091790090E074
:1001A000922B0895CF92DF92EF92FF92CF93DF933D
:1001B000EC016A017B018091FC02882369F06CE00C
:1001C00071E086E093E00E948D084AE050E0BE01B5
:1001D00086E093E00E947909DE01A70196010E9462
:1001E0003E0E9B01AC01A5E0B0E00E94330E20E082
:1001F00034E040E050E00E94F60DCA01B901DF9101
:10020000CF91FF90EF90DF90CF900895CF92DF9243
:10021000EF92FF92CF93DF93EC016A017B01809113
:10022000FC02882369F064E171E086E093E00E94BB
:100230008D084AE050E0BE0186E093E00E94790913
:10024000DE01A70196010E943E0E20E034E040E06E
:1002500050E00E94F60DCA01B901DF91CF91FF90E5
:10026000EF90DF90CF900895EF92FF920F931F933E
:10027000CF93DF93CDB7DEB72C970FB6F894DEBFE0
:100280000FBECDBF7C017F936F935F934F9380E34D
:1002900091E09F938F938E010F5F1F4F1F930F93DA
:1002A0000E94650EB801C7010E94300A0FB6F8948B
:1002B000DEBF0FBECDBFC7012C960FB6F894DEBFD0
:1002C0000FBECDBFDF91CF911F910F91FF90EF90A7
:1002D0000895EF92FF920F931F93CF93DF93CDB7C3
:1002E000DEB72C970FB6F894DEBF0FBECDBF7C01F2
:1002F0007F936F935F934F9386E391E09F938F93E8
:100300008E010F5F1F4F1F930F930E94650EB80160
:10031000C7010E94300A0FB6F894DEBF0FBECDBFF2
:10032000C7012C960FB6F894DEBF0FBECDBFDF918C
:10033000CF911F910F91FF90EF900895EF92FF9250
:100340000F931F93CF93DF93CDB7DEB727970FB6E9
:10035000F894DEBF0FBECDBF7C017F936F935F9398
:100360004F938CE391E09F938F938E010F5F1F4F0C
:100370001F930F930E94650EB801C7010E94300AB7
:100380000FB6F894DEBF0FBECDBFC70127960FB6DC
:10039000F894DEBF0FBECDBFDF91CF911F910F91BB
:1003A000FF90EF900895EF92FF920F931F93CF93DA
:1003B000DF9300D000D000D0CDB7DEB77C017F93B3
:1003C0006F935F934F9381E491E09F938F938E019E
:1003D0000F5F1F4F1F930F930E94650EB801C70157
:1003E0000E94300A0FB6F894DEBF0FBECDBFC70122
:1003F00026960FB6F894DEBF0FBECDBFDF91CF912A
:100400001F910F91FF90EF900895E89A08950F9330
:100410001F930E9405021092D3021092D2021092F2
:10042000DF021092DE020E94FD056093D8027093F5
:10043000D9028093DA029093DB025F9A0E94FD0555
:100440000091D8021091D9022091DA023091DB029A
:10045000601B710B820B930B69357B418105910504
:1004600008F0E2C00E94FD050091D8021091D90267
:100470002091DA023091DB02601B710B820B930B2F
:10048000683873418105910508F4B9C08BB11BB878
:100490008091D2029091D3029093D1028093D002A6
:1004A0002091D0023091D1028091CC029091CD0266
:1004B0004091CA025091CB0246305105C4F428172E
:1004C0003907A9F08091CA029091CB0201969093CE
:1004D000CB028093CA028091D0029091D102919573
:1004E000819591099093D1028093D00216C02091FA
:1004F000D0023091D1028091CC029091CD024091F6
:10050000CA025091CB02463051053CF028173907FA
:1005100021F01092CB021092CA028091D0029091E9
:10052000D102019669F08091D0029091D102019799
:1005300039F08091D0029091D102892B09F075C0D9
:100540002091D0023091D102A091DE02B091DF0261
:100550000E94150E9B01AC01A0EBBDE20E94330E80
:100560006093D4027093D5028093D6029093D70201
:100570001DBA8091FC02882371F16091DE027091B6
:10058000DF024AE050E086E093E00E94710966E4F1
:1005900071E086E093E00E948D086091D002709136
:1005A000D1024AE050E086E093E00E94710966E4DF
:1005B00071E086E093E00E948D084091D402509152
:1005C000D5026091D6027091D7022AE030E086E031
:1005D00093E00E9491091092DF021092DE02809156
:1005E000D0029091D1029093CD028093CC021092D0
:1005F000D8021092D9021092DA021092DB020E9405
:10060000FD050091D8021091D9022091DA023091B3
:10061000DB02601B710B820B930B60377741810506
:10062000910508F40BCF01C00BC04091D40250914A
:10063000D5026091D6027091D702342F252FCB01BD
:10064000632F722F1F910F910895579A1092800077
:10065000A1E8B0E01C921092850010928400E9E6B7
:10066000F0E0808183608083EAE7F0E0808184604D
:10067000808380818260808380818E7F808388E018
:100680008C9381E792E0909389008093880078941E
:1006900026E040E052EC61E070E086E093E00E94EA
:1006A000CF0769E471E086E093E00C94BC081F92E8
:1006B0000F920FB60F9211248F939F938091DE02B9
:1006C0009091DF029093DD028093DC021092DF02B2
:1006D0001092DE029F918F910F900FBE0F901F908E
:1006E00018951F920F920FB60F9211248F939F931C
:1006F00089B1887090E09093CF028093CE02809170
:10070000CE029091CF02892B19F081E090E008C0D1
:100710008091CE029091CF02892B39F48FEF9FEF19
:100720009093D3028093D20204C01092D30210920D
:10073000D2028091DE029091DF0201969093DF0257
:100740008093DE029F918F910F900FBE0F901F90AC
:1007500018956FE471E086EF92E00E94300A69E537
:1007600071E084EE92E00C94300A84EE92E00E94F4
:10077000C20986EF92E00C94C209CF92DF92EF9209
:10078000FF92CF93DF9300D000D000D0CDB7DEB77B
:1007900086E093E00E94EC061816190694F568E4CA
:1007A00071E084EE92E00E945D0A86E093E00E9490
:1007B000EC061816190684F486E093E00E940507FB
:1007C000682F84EE92E00E94A10A6AE070E080E067
:1007D00090E00E942106E9CF22E030E040E050E0C6
:1007E00064EE72E0CE0101960E94D30ABE016F5FF3
:1007F0007F4F84EE92E00E94460ACE0101960E944D
:10080000C2096CE571E084EE92E00E94B40A88238C
:10081000D1F08091FC0291E089278093FC026FE582
:1008200071E084EE92E00E945D0A8091FC028823D0
:1008300019F062E671E002C06CE671E086E093E0D8
:100840000E94BC0883C16FE571E084EE92E00E94D3
:10085000B40A882309F434C10E94FD056093E002C4
:100860007093E1028093E2029093E3020E946100A0
:100870006B017C010E94A400B701A6010E94D20076
:100880006093F2027093F3028093F4029093F50266
:100890000E94BB00B701A6010E9406016093EE0210
:1008A0007093EF028093F0029093F1020E9407028E
:1008B0006093EA027093EB028093EC029093ED0256
:1008C0001092DF021092DE028091FC02811195C02D
:1008D00067E771E086E093E00E94BC0869E771E099
:1008E00086E093E00E948D084091F2025091F3025D
:1008F0006091F4027091F502CE0101960E949E0172
:10090000BE016F5F7F4F86E093E00E947F08CE01BB
:1009100001960E94C20962E871E086E093E00E94BD
:10092000BC0864E871E086E093E00E948D08409185
:10093000EE025091EF026091F0027091F102CE014F
:1009400001960E94D301BE016F5F7F4F86E093E066
:100950000E947F08CE0101960E94C20962E871E000
:1009600086E093E00E94BC086DE871E086E093E0C9
:100970000E948D084091EA025091EB026091EC02D6
:100980007091ED02CE0101960E946901BE016F5F78
:100990007F4F86E093E00E947F08CE0101960E947F
:1009A000C20962E871E086E093E00E94BC0866E953
:1009B00071E086E093E00E948D084091E002509142
:1009C000E1026091E2027091E302CE0101960E9481
:1009D0003401BE016F5F7F4F86E093E00E94AA085A
:1009E000CE0101960E94C2096FE971E086E093E0B2
:1009F0000E94BC0861EA71E021CF65EA71E086E0FF
:100A000093E00E948D084091F2025091F3026091B0
:100A1000F4027091F5022AE030E086E093E00E9453
:100A2000270969EA71E086E093E00E948D086CEA8C
:100A300071E086E093E00E948D084091EE025091B3
:100A4000EF026091F0027091F1022AE030E086E05E
:100A500093E00E94270969EA71E086E093E00E9432
:100A60008D0860EB71E086E093E00E948D08409174
:100A7000EA025091EB026091EC027091ED022AE0E3
:100A800030E086E093E00E94270969EA71E086E0A1
:100A900093E00E948D0864EB71E086E093E00E9491
:100AA0008D084091E0025091E1026091E202709164
:100AB000E3022AE030E086E093E00E94B00946C0FD
:100AC00069E571E084EE92E00E94B40A8823B9F1EE
:100AD00068EB71E086E093E00E94BC086AEC71E08C
:100AE00086E093E00E948D0866EF72E086E093E076
:100AF0000E94AA086DED71E086E093E00E94BC08B8
:100B000067EE71E086E093E00E94BC0860E072E06E
:100B100086E093E00E94BC0868E772E086E093E01C
:100B20000E94BC0868E972E086E093E00E94BC087D
:100B300068E471E084EE92E00E945D0A07C068E418
:100B400071E084EE92E00E945D0A1DBA26960FB60F
:100B5000F894DEBF0FBECDBFDF91CF91FF90EF9035
:100B6000DF90CF9008951F920F920FB60F9211242D
:100B70002F933F938F939F93AF93BF938091FE02E8
:100B80009091FF02A0910003B09101033091FD020A
:100B900023E0230F2D3768F126E8230F0296A11DCD
:100BA000B11D2093FD028093FE029093FF02A0935B
:100BB0000003B09301038091020390910303A0917D
:100BC0000403B09105030196A11DB11D809302039A
:100BD00090930303A0930403B0930503BF91AF91D7
:100BE0009F918F913F912F910F900FBE0F901F906B
:100BF00018950196A11DB11DD4CF3FB7F8948091EF
:100C0000020390910303A0910403B091050326B55C
:100C1000A89B05C02F3F19F00196A11DB11D3FBF34
:100C20006627782F892F9A2F620F711D811D911DC4
:100C3000660F771F881F991F660F771F881F991FE0
:100C40000895CF92DF92EF92FF920F931F93CF936D
:100C5000DF9300D000D0CDB7DEB73FB7F894C09097
:100C60000203D0900303E0900403F090050326B53F
:100C7000A89B07C02F3F29F04FEFC41AD40AE40AFB
:100C8000F40A3FBFFE2CED2CDC2CCC24C20ED11C70
:100C9000E11CF11CCC0CDD1CEE1CFF1CCC0CDD1C83
:100CA000EE1CFF1C8601611571058105910509F493
:100CB00041C069837A838B839C830E94180B3FB762
:100CC000F894C0900203D0900303E0900403F090E6
:100CD000050326B569817A818B819C81A89B07C019
:100CE0002F3F29F0EFEFCE1ADE0AEE0AFE0A3FBFD1
:100CF000FE2CED2CDC2CCC24C20ED11CE11CF11CF2
:100D0000CC0CDD1CEE1CFF1CCC0CDD1CEE1CFF1CF7
:100D10009601201B310B283E334028F261507109A7
:100D20008109910908511C4F6115710581059105D3
:100D300009F0BFCF0F900F900F900F90DF91CF91E0
:100D40001F910F91FF90EF90DF90CF900895019742
:100D500039F0880F991F880F991F02970197F1F7B3
:100D60000895789484B5826084BD84B5816084BD23
:100D700085B5826085BD85B5816085BDEEE6F0E014
:100D8000808181608083E1E8F0E010828081826070
:100D90008083808181608083E0E8F0E080818160F1
:100DA0008083E1EBF0E0808184608083E0EBF0E021
:100DB000808181608083EAE7F0E0808184608083C5
:100DC000808182608083808181608083808180686F
:100DD00080831092C1000895FC01818D228D90E0E6
:100DE000805C9F4F821B91098F7399270895FC01A6
:100DF000918D828D981731F0828DE80FF11D858DD0
:100E000090E008958FEF9FEF0895FC01918D828D02
:100E1000981761F0828DDF01A80FB11D5D968C914E
:100E2000928D9F5F9F73928F90E008958FEF9FEF59
:100E3000089581E79BE0892B49F080E090E0892BC1
:100E400029F00E94710B81110C9400000895FC019F
:100E5000848DDF01A80FB11DA35ABF4F2C91848D43
:100E600090E001968F739927848FA689B7892C9378
:100E7000A089B1898C9180648C93938D848D981313
:100E800006C00288F389E02D80818F7D80830895DC
:100E9000CF93DF93EC01888D8823C9F0EA89FB8921
:100EA000808185FD05C0A889B9898C9186FD0FC018
:100EB0000FB607FCF5CF808185FFF2CFA889B989ED
:100EC0008C9185FFEDCFCE010E942707E7CFDF9100
:100ED000CF910895CF92DF92FF920F931F93CF93FC
:100EE000DF931F92CDB7DEB76C01DC015B969C915E
:100EF0005B975C968C915C97981307C05096ED9128
:100F0000FC915197808185FD32C0F601038D10E080
:100F10000F5F1F4F0F731127F02EF601848DF8120B
:100F200011C00FB607FCF9CFD6015096ED91FC9198
:100F30005197808185FFF1CFC60169830E94270701
:100F40006981EBCF838DE80FF11DE35AFF4F60837A
:100F5000D6015B960C935B975296ED91FC9153975B
:100F600080818062808381E058968C930DC0D60189
:100F70005696ED91FC91579760835096ED91FC91B8
:100F8000519780818064808381E090E00F90DF91B1
:100F9000CF911F910F91FF90DF90CF900895BF9256
:100FA000CF92DF92EF92FF92CF93DF93EC016A0131
:100FB0007B01B22EE889F98982E08083411581EEB8
:100FC000580761057105A1F060E079E08DE390E0DC
:100FD000A70196010E94D40D215031094109510900
:100FE0005695479537952795211580E1380798F054
:100FF000E889F989108260E874E88EE190E0A70141
:1010000096010E94D40D215031094109510956958C
:10101000479537952795EC85FD853083EE85FF85CF
:101020002083188EEC89FD89B082EA89FB89808152
:1010300080618083EA89FB89808188608083EA8976
:10104000FB89808180688083EA89FB8980818F7D2C
:101050008083DF91CF91FF90EF90DF90CF90BF9092
:10106000089508950E94B1060E9431080E94250348
:10107000C9E1D7E00E94BD032097E1F30E94190760
:10108000F9CFCF92DF92EF92FF920F931F93CF93FE
:10109000DF936C017A01EB01E60EF71E00E010E031
:1010A000CE15DF0561F06991D601ED91FC910190BB
:1010B000F081E02DC6010995080F191FF1CFC80175
:1010C000DF91CF911F910F91FF90EF90DF90CF9024
:1010D00008956115710581F0DB010D900020E9F79D
:1010E000AD0141505109461B570BDC01ED91FC91BC
:1010F0000280F381E02D099480E090E00895DC0106
:10110000ED91FC91DB0114964D915C9115976D91D9
:101110007C910280F381E02D09940C946908DC0134
:10112000ED91FC910190F081E02D09940F931F93B4
:10113000CF93DF93EC016DE00E948F088C016AE091
:10114000CE010E948F08800F911FDF91CF911F91D8
:101150000F9108950F931F93CF93DF93EC010E949B
:101160007F088C01CE010E949608800F911FDF91AD
:10117000CF911F910F9108950F931F93CF93DF93FA
:10118000EC010E9469088C01CE010E949608800F34
:10119000911FDF91CF911F910F9108958F929F9290
:1011A000AF92BF92CF92DF92EF92FF920F931F9375
:1011B000CF93DF93CDB7DEB7A1970FB6F894DEBF1C
:1011C0000FBECDBF7C01C42EE52FCB01D22E19A2BC
:1011D00021E02D1510F02AE0D22E8E010F5D1F4F59
:1011E0008D2C912CA12CB12C6C2D7E2FA50194015E
:1011F0000E94D40D8C2DD29E80191124015011090A
:101200008A3014F4805D01C0895CF8018083211567
:1012100031054105510521F0C22EE32FCA01E4CF6B
:10122000B801C7010E946908A1960FB6F894DEBF05
:101230000FBECDBFDF91CF911F910F91FF90EF9027
:10124000DF90CF90BF90AF909F908F900895CF92F6
:10125000DF92EF92FF920F931F93CF93DF93EC01F6
:101260006A017B012115310579F4E881F98101904A
:10127000F081E02D642FDF91CF911F910F91FF90AE
:10128000EF90DF90CF9009942A303105E9F477FF91
:101290001AC06DE20E948F088C0144275527BA01BD
:1012A0004C195D096E097F092AE0CE010E94CE0823
:1012B000800F911FDF91CF911F910F91FF90EF90C1
:1012C000DF90CF9008952AE0B701A601CE01DF910B
:1012D000CF911F910F91FF90EF90DF90CF900C94E2
:1012E000CE089A01AB01662757FD6095762F0C94C6
:1012F00027090F931F93CF93DF93EC019A01AB0162
:10130000662757FD6095762F0E9427098C01CE0134
:101310000E949608800F911FDF91CF911F910F912E
:1013200008950F931F93CF93DF93EC010E94270939
:101330008C01CE010E949608800F911FDF91CF9102
:101340001F910F9108952115310541F4DC01ED91B4
:10135000FC910190F081E02D642F09940C94CE084B
:101360000F931F93CF93DF93EC010E94A3098C018D
:10137000CE010E949608800F911FDF91CF911F919F
:101380000F910895FC01808191810C945B0CCF93A7
:10139000DF93EC0188819981009711F00E945B0C2A
:1013A000198218821D821C821B821A82DF91CF91C2
:1013B00008950F931F93CF93DF93EC018B016F5F21
:1013C0007F4F888199810E94F30C009731F09983B7
:1013D00088831B830A8381E001C080E0DF91CF9185
:1013E0001F910F910895CF93DF93EC01888199812C
:1013F000892B29F08A819B818617970760F4CE019B
:101400000E94D909882341F08C819D81892B19F490
:10141000E881F981108281E0DF91CF910895EF9208
:10142000FF920F931F93CF93DF93EC017B018A010F
:10143000BA010E94F309811104C0CE010E94C709BC
:1014400007C01D830C83B701888199810E945E0EBD
:10145000CE01DF91CF911F910F91FF90EF900895F2
:10146000FC0111821082138212821582148261158E
:10147000710559F0FB0101900020E9F7AF014150DF
:101480005109461B570B0C940F0A0895CF93DF9315
:10149000EC01FB018617970761F06081718161158E
:1014A000710529F0448155810E940F0A02C00E94F3
:1014B000C709CE01DF91CF910895CF93DF93EC015F
:1014C0006115710561F0FB0101900020E9F7AF01A2
:1014D00041505109461B570B0E940F0A02C00E943F
:1014E000C709CE01DF91CF910895EF92FF920F933C
:1014F0001F93CF93DF93EC017B010C811D8161155C
:10150000710511F480E016C04115510591F0040FEA
:10151000151FB8010E94F3098823A1F3288139819E
:101520008C819D81B701820F931F0E945E0E1D83E7
:101530000C8381E0DF91CF911F910F91FF90EF908D
:101540000895CF93DF9300D0CDB7DEB769831A82B9
:1015500041E050E0BE016F5F7F4F0E94750A0F901F
:101560000F90DF91CF910895FC0124813581232BC9
:1015700031F421E061157105A1F0FB0108C0FC0107
:10158000808191816115710531F421E0FC01808138
:10159000882339F005C00E94550E21E0892B09F0FF
:1015A00020E0822F0895BF92CF92DF92EF92FF92B8
:1015B0000F931F93CF93DF936C017B01EA018901A5
:1015C0002417350720F48D2FE901042F182F68E424
:1015D00071E0C6010E94300AD70114968D919C914A
:1015E0001597C817D907C8F48017910708F48C011C
:1015F000D701ED91FC911197E00FF11FB08010829F
:101600006D917C916C0F7D1FC6010E945D0AD70110
:10161000ED91FC91E00FF11FB082C601DF91CF91F7
:101620001F910F91FF90EF90DF90CF90BF900895A2
:1016300008951F920F920FB60F9211242F938F933C
:101640009F93EF93FF93E0911603F091170380812E
:10165000E0911C03F0911D0382FD12C090818091E6
:101660001F038F5F8F7320912003821751F0E09149
:101670001F03F0E0EA5FFC4F958F80931F0301C0CA
:101680008081FF91EF919F918F912F910F900FBECD
:101690000F901F9018951F920F920FB60F92112462
:1016A0002F933F934F935F936F937F938F939F936A
:1016B000AF93BF93EF93FF9386E093E00E942707D9
:1016C000FF91EF91BF91AF919F918F917F916F911A
:1016D0005F914F913F912F910F900FBE0F901F90F0
:1016E000189586E093E00E94EC0621E0892B09F42E
:1016F00020E0822F0895109209031092080388EECB
:1017000093E0A0E0B0E080930A0390930B03A093D2
:101710000C03B0930D038EEB92E09093070380933C
:10172000060385EC90E0909313038093120384ECFE
:1017300090E0909315038093140380EC90E09093D5
:1017400017038093160381EC90E090931903809324
:10175000180382EC90E090931B0380931A0386ECAD
:1017600090E090931D0380931C0310921F0310922E
:101770002003109221031092220308950F931F93C8
:10178000CF93DF93BC018230910510F462E070E0EA
:10179000E091A503F091A60340E050E0A0E0B0E0A6
:1017A00024C08081918186179707D0F0861797070C
:1017B00071F482819381109729F013969C938E93F4
:1017C00012972CC09093A6038093A50327C04115C0
:1017D000510519F08417950718F48D01AC01EF013C
:1017E000DF01828193819C01F9013097D1F6411587
:1017F0005105F9F0CA01861B970B8430910580F4DE
:101800008A819B810115110521F0F8019383828360
:1018100004C09093A6038093A503FE01329645C0B1
:10182000FE01E80FF91F61937193029799838883F2
:101830003CC08091A3039091A403892B41F4809133
:101840000201909103019093A4038093A30340911C
:101850000401509105014115510541F44DB75EB7A2
:101860008091000190910101481B590B2091A30325
:101870003091A40324173507B0F4CA01821B930BDF
:101880008617970780F0AB014E5F5F4F841795076F
:1018900050F0420F531F5093A4034093A303F90148
:1018A0006193719302C0E0E0F0E0CF01DF91CF914E
:1018B0001F910F910895CF93DF939C01009709F436
:1018C0008FC0EC0122971B821A826091A503709150
:1018D000A6036115710581F488819981820F931F98
:1018E0002091A3033091A4032817390739F5D09329
:1018F000A403C093A30374C0DB0140E050E0AC1725
:10190000BD0708F1BB83AA83FE0121913191E20F4B
:10191000F31FAE17BF0779F48D919C911197280F93
:10192000391F2E5F3F4F3983288312968D919C91EA
:1019300013979B838A834115510571F4D093A603B5
:10194000C093A5034DC012968D919C911397AD0144
:10195000009711F0DC01D3CFDA011396DC93CE931C
:101960001297FA0121913191E20FF31FCE17DF0791
:1019700069F488819981280F391F2E5F3F4FFA0142
:10198000318320838A819B8193838283E0E0F0E02E
:10199000DB0112968D919C911397009719F0BC0171
:1019A000FD01F6CFAB014E5F5F4FDB018D919C9146
:1019B000840F951F2091A3033091A40328173907A2
:1019C00079F4309729F41092A6031092A50302C06F
:1019D00013821282425050405093A4034093A303B9
:1019E000DF91CF9108956F927F928F929F92AF92E5
:1019F000BF92CF92DF92EF92FF920F931F93CF93FC
:101A0000DF938C01009729F4CB010E94BE0B8C015F
:101A1000BBC08EEFE82E8FEFF82EE00EF11E4801CE
:101A2000860E971E8E149F0408F4ACC0D7014D910A
:101A30005C91119746175707B8F04530510508F4E7
:101A4000A3C0CA0104978617970708F49DC04250A7
:101A50005040461B570BF401419351936D937C9377
:101A6000CF010E945B0C90C05B01A41AB50A38013B
:101A7000640E751EA091A503B091A603E0E0F0E00E
:101A8000CC24DD2447C0A615B705A9F5CD91DC917E
:101A90001197CE0102968A159B0568F1CE018A192D
:101AA0009B09029612962C91129713963C910597DA
:101AB00058F0F40122833383CA19DB09D183C08330
:101AC000D7016D937C9309C04E5F5F4F4C0F5D1F34
:101AD000F70151834083C901FC01C114D10431F0E5
:101AE000D6011396FC93EE9312974EC0F093A60383
:101AF000E093A50349C08D919C911197E817F907D0
:101B000008F4FC016D0112968C91129713969C912A
:101B10009C01D901109709F0B6CF8091A303909151
:101B2000A40386159705E9F4E617F707D0F420918A
:101B30000401309105012115310541F42DB73EB75F
:101B40008091000190910101281B390B82169306A8
:101B5000C8F49092A4038092A303F7017183608379
:101B600013C0CB010E94BE0BEC01009759F0D701C6
:101B70004D915C91B8010E944C0EC8010E945B0C13
:101B80008E0102C000E010E0C801DF91CF911F91EB
:101B90000F91FF90EF90DF90CF90BF90AF909F900C
:101BA0008F907F906F900895A1E21A2EAA1BBB1B05
:101BB000FD010DC0AA1FBB1FEE1FFF1FA217B30719
:101BC000E407F50720F0A21BB30BE40BF50B661F2F
:101BD000771F881F991F1A9469F7609570958095F3
:101BE00090959B01AC01BD01CF010895052E97FB97
:101BF0001EF400940E940D0E57FD07D00E94D40DD4
:101C000007FC03D04EF40C940D0E50954095309582
:101C100021953F4F4F4F5F4F089590958095709558
:101C200061957F4F8F4F9F4F08950E941D0E332364
:101C300012F48A1B9B0B0C942E0EA29FB001B39F33
:101C4000C001A39F700D811D1124911DB29F700DC5
:101C5000811D1124911D08950E941D0EB7FF089546
:101C6000821B930B08950E941D0EA59F900DB49F9B
:101C7000900DA49F800D911D11240895B7FF0C9421
:101C8000330E0E94330E821B930B0895EE0FFF1F3D
:101C90000590F491E02D0994FB01DC0102C0019054
:101CA0000D9241505040D8F70895FB01DC018D9111
:101CB000019080190110D9F3990B0895FB01DC0103
:101CC00001900D920020E1F70895AEE0B0E0EBE660
:101CD000FEE00C940D110D891E8986E08C831A8319
:101CE00009838FEF9FE79E838D83AE01475E5F4F31
:101CF0006F89788DCE0101960E94870EEF81F8855D
:101D0000E00FF11F10822E96E4E00C942911ACE054
:101D1000B0E0EDE8FEE00C94FF107C016B018A015D
:101D2000FC0117821682838181FFBDC1CE0101961D
:101D30004C01F7019381F60193FD859193FF819109
:101D40006F01882309F4ABC1853239F493FD859185
:101D500093FF81916F01853229F4B70190E00E94D1
:101D60006F10E7CF512C312C20E02032A0F48B32C1
:101D700069F030F4803259F0833269F420612CC06C
:101D80008D3239F0803339F4216026C0226024601E
:101D900023C0286021C027FD27C030ED380F3A301E
:101DA00078F426FF06C0FAE05F9E300D1124532E12
:101DB00013C08AE0389E300D1124332E20620CC0EF
:101DC0008E3221F426FD6BC1206406C08C3611F4DE
:101DD000206802C0883641F4F60193FD859193FF97
:101DE00081916F018111C1CF982F9F7D95549330C0
:101DF00028F40C5F1F4FFFE3F9830DC0833631F0E9
:101E0000833771F0833509F05BC022C0F80180810F
:101E100089830E5F1F4F44244394512C540115C0F5
:101E20003801F2E06F0E711CF801A080B18026FF2E
:101E300003C0652D70E002C06FEF7FEFC5012C87F6
:101E40000E9464102C0183012C852F77222E17C04D
:101E50003801F2E06F0E711CF801A080B18026FFFE
:101E600003C0652D70E002C06FEF7FEFC5012C87C6
:101E70000E9459102C012C852068222E830123FCFE
:101E80001BC0832D90E048165906B0F4B70180E2DC
:101E900090E00E946F103A94F4CFF50127FC8591F1
:101EA00027FE81915F01B70190E00E946F10311011
:101EB0003A94F1E04F1A51084114510471F7E5C00A
:101EC000843611F0893639F5F80127FF07C06081A3
:101ED0007181828193810C5F1F4F08C06081718185
:101EE000882777FD8095982F0E5F1F4F2F76B22E93
:101EF00097FF09C090958095709561957F4F8F4FA2
:101F00009F4F2068B22E2AE030E0A4010E94A11069
:101F1000A82EA81844C0853729F42F7EB22E2AE0B7
:101F200030E025C0F22FF97FBF2E8F36C1F018F4B4
:101F3000883579F0B4C0803719F0883721F0AFC008
:101F40002F2F2061B22EB4FE0DC08B2D8460B82ED1
:101F500009C024FF0AC09F2F9660B92E06C028E052
:101F600030E005C020E130E002C020E132E0F801BD
:101F7000B7FE07C060817181828193810C5F1F4F22
:101F800006C06081718180E090E00E5F1F4FA40168
:101F90000E94A110A82EA818FB2DFF77BF2EB6FE19
:101FA0000BC02B2D2E7FA51450F4B4FE0AC0B2FC3A
:101FB00008C02B2D2E7E05C07A2C2B2D03C07A2C29
:101FC00001C0752C24FF0DC0FE01EA0DF11D8081BA
:101FD000803311F4297E09C022FF06C073947394E4
:101FE00004C0822F867809F0739423FD13C020FF6C
:101FF00006C05A2C731418F4530C5718732C73140E
:1020000068F4B70180E290E02C870E946F1073940F
:102010002C85F5CF731410F4371801C0312C24FF30
:1020200012C0B70180E390E02C870E946F102C85CE
:1020300022FF17C021FF03C088E590E002C088E7B7
:1020400090E0B7010CC0822F867859F021FD02C0C4
:1020500080E201C08BE227FD8DE2B70190E00E9493
:102060006F10A51438F4B70180E390E00E946F1060
:102070005A94F7CFAA94F401EA0DF11D8081B701BB
:1020800090E00E946F10A110F5CF332009F451CEDB
:10209000B70180E290E00E946F103A94F6CFF7010A
:1020A0008681978102C08FEF9FEF2C96E2E10C941E
:1020B0001B11FC010590615070400110D8F780950C
:1020C00090958E0F9F1F0895FC0161507040019004
:1020D0000110D8F7809590958E0F9F1F08950F934C
:1020E0001F93CF93DF93182F092FEB018B8181FD75
:1020F00003C08FEF9FEF20C082FF10C04E815F8131
:102100002C813D81421753077CF4E881F9819F01BE
:102110002F5F3F4F39832883108306C0E885F985F8
:10212000812F0995892B29F72E813F812F5F3F4F02
:102130003F832E83812F902FDF91CF911F910F919D
:102140000895FA01AA27283051F1203181F1E8944D
:102150006F936E7F6E5F7F4F8F4F9F4FAF4FB1E09A
:102160003ED0B4E03CD0670F781F891F9A1FA11D95
:10217000680F791F8A1F911DA11D6A0F711D811D96
:10218000911DA11D20D009F468943F912AE0269F5B
:1021900011243019305D3193DEF6CF010895462FBA
:1021A0004770405D4193B3E00FD0C9F7F6CF462F9B
:1021B0004F70405D4A3318F0495D31FD4052419304
:1021C00002D0A9F7EACFB4E0A695979587957795C1
:1021D0006795BA95C9F700976105710508959B0148
:1021E000AC010A2E06945795479537952795BA95D1
:1021F000C9F7620F731F841F951FA01D08952F92AA
:102200003F924F925F926F927F928F929F92AF9286
:10221000BF92CF92DF92EF92FF920F931F93CF93D3
:10222000DF93CDB7DEB7CA1BDB0B0FB6F894DEBF6A
:102230000FBECDBF09942A88398848885F846E8490
:102240007D848C849B84AA84B984C884DF80EE80DA
:10225000FD800C811B81AA81B981CE0FD11D0FB6E3
:10226000F894DEBF0FBECDBFED01089510E0CCE6BF
:10227000D0E004C0FE010E94480E2296CE36D1075F
:06228000C9F7F894FFCF3E
:102286008000A70300005663633A2000565F726120
:10229600773A2000495F7261773A20004E5F72619B
:1022A600773A2000566F6C74735F52504D3A200097
:1022B6002531306C75002531306C640025356C6431
:1022C6000025346C64002C2000526561647900316D
:1022D6002E302E3762657461004848004444004140
:1022E600410044656275673A204F6E004465627529
:1022F600673A204F6666007B000922766F6C223AA9
:1023060020002C000922637572223A2000092272ED
:10231600706D223A2000092274696D223A20007DF0
:1023260000454F4C00563A20003B2000493A200019
:102336004E3A2000743A20004D6561737572656DE2
:10234600656E7420426F617264004669726D7761D2
:1023560072652056657273696F6E3A2000436F6D21
:102366006D616E64733A004848203A207072696E57
:1023760074732074686973206D6173736167650097
:102386004141203A207072696E7420566F6C742C2D
:102396002043757272656E742C2052504D2C20505D
:1023A6006F77657220616E6420612054696D657374
:1023B60074616D70202873696E6365206C61737437
:1023C60020726573746172742920696E206163746A
:1023D60075616C20556E69747320285B6D565D2C93
:1023E6005B6D415D2C5B312F6D696E5D2C5B6D57AE
:1023F6005D2C5B75735D290020202020204F7574AD
:1024060070757420697320696E204A534F4E2053AD
:1024160074796C65212121004444203A20746F6749
:10242600676C65206465627567206D6F6465206FF3
:102436006E20616E64206F666600000000006A0709
:0A2446004108EC060507F7064807F9
:00000001FF
