:100000000C9437000C945F000C945F000C945F001C
:100010000C945F000C945F000C945F000C945F00E4
:100020000C945F000C945F000C945F000C945F00D4
:100030000C945F000C945F000C945F000C945F00C4
:100040000C940B080C945F000C9418090C9466092E
:100050000C945F000C945F000C945F000C945F00A4
:100060000C945F000C945F004303D20A3C031124FC
:100070001FBECFEFD8E0DEBFCDBF12E0A0E0B1E001
:10008000E0EBF5E202C005900D92AC3DB107D9F767
:1000900013E0ACEDB2E001C01D92A63BB107E1F761
:1000A00010E0CCE6D0E004C02297FE010E9490123E
:1000B000C836D107C9F70E94280B0C94CB120C94B8
:1000C0000000FB01DC0102C001900D924150504044
:1000D000D8F70895FB01DC018D9101908019011082
:1000E000D9F3990B0895FB01DC0101900D920020DA
:1000F000E1F70895AEE0B0E0E0E8F0E00C94A21281
:100100000D891E8986E08C831A8309838FEF9FE710
:100110009E838D839E01275E3F4FCE0101966F899E
:10012000788DA9010E949E002F813885020F131F30
:10013000F80110822E96E4E00C94BE12ABE0B0E021
:10014000E4EAF0E00C9494123C012B015A01FC010A
:1001500017821682838181FD03C06FEF7FEFC6C1D6
:100160009AE0892E1E010894211C311CF301238181
:10017000F20123FD859123FF81912F01882309F44A
:10018000B2C1853239F423FD859123FF81912F017E
:10019000853229F490E0B3010E949102E7CF982FB5
:1001A000FF24EE249924FFE1FF15D0F09B3269F083
:1001B0009C3228F4903259F0933291F40EC09D3263
:1001C00049F0903369F441E024C052E0F52A84E01C
:1001D000F82A28C098E0F92A25C0E0E1FE2A22C0CA
:1001E000F7FC29C0892F80538A3070F4F6FE05C0D1
:1001F000989C902C1124980E15C0E89CE02C11249A
:10020000E80EF0E2FF2A0EC09E3229F4F6FC6BC124
:1002100040E4F42A07C09C3619F450E8F52A02C0DD
:10022000983649F4F20123FD959123FF91912F0116
:10023000992309F0B8CF892F8554833018F0805264
:10024000833038F444E050E0A40EB51E5FE35983D8
:100250000FC0933631F0933779F0933509F056C0DB
:1002600020C0F5018081898342E050E0A40EB51ED4
:10027000610101E010E012C0F501C080D180F6FC00
:1002800003C06FEF7FEF02C0692D70E042E050E0E5
:10029000A40EB51EC6010E9486028C015FE7F522FE
:1002A00014C0F501C080D180F6FC03C06FEF7FEF72
:1002B00002C0692D70E042E050E0A40EB51EC601F8
:1002C0000E947B028C0150E8F52AF3FE07C01AC099
:1002D00080E290E0B3010E949102EA948E2D90E0BA
:1002E00008171907A8F30EC0F601F7FC8591F7FE71
:1002F00081916F0190E0B3010E949102E110EA94B4
:10030000015010400115110579F7EAC0943611F03B
:10031000993669F5F7FE08C0F501208131814281E7
:10032000538184E090E00AC0F501808191819C01B5
:10033000442737FD4095542F82E090E0A80EB91E67
:100340009FE6F92257FF09C05095409530952195B9
:100350003F4F4F4F5F4FE0E8FE2ACA01B901A101AC
:100360002AE030E00E94BD02D82ED21840C0953756
:1003700029F41F2D1F7E2AE030E01DC01F2D197F9C
:100380009F3661F0903720F4983509F0ACC00FC06B
:10039000903739F0983709F0A6C004C028E030E063
:1003A0000AC0106114FD146020E130E004C014FDA7
:1003B000166020E132E017FF08C0F501608171810D
:1003C0008281938144E050E008C0F50180819181F1
:1003D000BC0180E090E042E050E0A40EB51EA10117
:1003E0000E94BD02D82ED2188FE7F82EF122F6FE19
:1003F0000BC05EEFF522D91438F4F4FE07C0F2FC0E
:1004000005C08FEEF82202C01D2D01C0192DF4FE8B
:100410000DC0FE01ED0DF11D8081803319F499EEC0
:10042000F92208C01F5FF2FE05C003C08F2D867839
:1004300009F01F5F0F2DF3FC14C0F0FE0FC01E1556
:1004400010F09D2C0BC09D2C9E0C911A1E2D06C0E9
:1004500080E290E0B3010E9491021F5F1E15C0F37D
:1004600004C01E1510F4E11A01C0EE2404FF0FC0F1
:1004700080E390E0B3010E94910202FF1DC001FDE4
:1004800003C088E790E00EC088E590E00BC0802FA5
:10049000867891F001FF02C08BE201C080E2F7FC98
:1004A0008DE290E0B3010E94910206C080E390E0EB
:1004B000B3010E9491029A94D914C0F3DA94F10125
:1004C000ED0DF11D808190E0B3010E949102DD20CD
:1004D000A9F706C080E290E0B3010E949102EA947D
:1004E000EE20C1F743CEF30166817781CB012B96D5
:1004F000E2E10C94B012FC010590615070400110D3
:10050000D8F7809590958E0F9F1F0895FC0161503C
:10051000704001900110D8F7809590958E0F9F1F25
:1005200008950F931F93CF93DF938C01EB018B8181
:1005300081FF1BC082FF0DC02E813F818C819D8178
:100540002817390764F4E881F9810193F983E88376
:1005500006C0E885F985802F0995892B31F48E81B5
:100560009F8101969F838E8302C00FEF1FEFC8010A
:10057000DF91CF911F910F910895FA01AA2728309A
:1005800051F1203181F1E8946F936E7F6E5F7F4F60
:100590008F4F9F4FAF4FB1E03ED0B4E03CD0670FDC
:1005A000781F891F9A1FA11D680F791F8A1F911D2F
:1005B000A11D6A0F711D811D911DA11D20D009F47F
:1005C00068943F912AE0269F11243019305D3193C1
:1005D000DEF6CF010895462F4770405D4193B3E0AA
:1005E0000FD0C9F7F6CF462F4F70405D4A3318F051
:1005F000495D31FD4052419302D0A9F7EACFB4E002
:10060000A6959795879577956795BA95C9F70097B9
:100610006105710508959B01AC010A2E069457955A
:10062000479537952795BA95C9F7620F731F841FB1
:10063000951FA01D08958130910581F46F5F7F4F54
:10064000D1F48DED92E060E071E00E94D10D80EF79
:1006500092E066E071E00E94D10D0895892B59F473
:100660006F5F7F4F41F480EF92E00E94620E8DED4C
:1006700092E00E94620E089580E090E06FEF7FEFBD
:100680000E941B03089581E090E06FEF7FEF0E94CE
:100690001B0308950F931F93EAE7F0E080818460C5
:1006A000808380818260808380818E7F808300E967
:1006B00013E0C80140E052EC61E070E00E94A10943
:1006C000C80169E071E00E949A0C1F910F91089592
:1006D000EF92FF920F931F93DF93CF9300D000D040
:1006E00000D0CDB7DEB77C018DB79EB708970FB6A7
:1006F000F8949EBF0FBE8DBFEDB7FEB731968E0149
:100700000F5F1F4FADB7BEB712961C930E93119794
:100710008FE091E09383828344835583668377835C
:100720000E947A008DB79EB708960FB6F8949EBFC8
:100730000FBE8DBFC701B8010E94D10DC70126961B
:100740000FB6F894DEBF0FBECDBFCF91DF911F91E2
:100750000F91FF90EF900895EF92FF920F931F93E8
:10076000DF93CF93CDB7DEB727970FB6F894DEBFF0
:100770000FBECDBF7C018DB79EB708970FB6F8941A
:100780009EBF0FBE8DBFEDB7FEB731968E010F5FD6
:100790001F4FADB7BEB712961C930E93119784E10D
:1007A00091E09383828344835583668377830E9499
:1007B0007A008DB79EB708960FB6F8949EBF0FBE0D
:1007C0008DBFC701B8010E94D10DC70127960FB692
:1007D000F894DEBF0FBECDBFCF91DF911F910F9177
:1007E000FF90EF900895EF92FF920F931F93DF9386
:1007F000CF93CDB7DEB72C970FB6F894DEBF0FBE00
:10080000CDBF7C018DB79EB708970FB6F8949EBFF9
:100810000FBE8DBFEDB7FEB731968E010F5F1F4F34
:10082000ADB7BEB712961C930E93119789E191E074
:100830009383828344835583668377830E947A00FF
:100840008DB79EB708960FB6F8949EBF0FBE8DBFAA
:10085000C701B8010E94D10DC7012C960FB6F894BC
:10086000DEBF0FBECDBFCF91DF911F910F91FF90E3
:10087000EF900895EF92FF920F931F93CF93DF9322
:10088000EC017A018B018091DC02882369F080E918
:1008900093E06FE171E00E94970C80E993E0BE0164
:1008A0004AE050E00E94780C9E01442737FD4095B5
:1008B000542FC801B7010E94321220E034E040E01A
:1008C00050E00E947312CA01B901DF91CF911F91CC
:1008D0000F91FF90EF900895EF92FF920F931F9367
:1008E000CF93DF93EC017A018B018091DC028823A6
:1008F00069F080E993E067E271E00E94970C80E97B
:1009000093E0BE014AE050E00E94780CBE018827C7
:1009100077FD8095982FA80197010E9432129B01C4
:10092000AC01E2E0660F771F881F991FEA95D1F7A7
:10093000620F731F841F951F20E034E040E050E0F9
:100940000E947312CA01B901DF91CF911F910F91DB
:10095000FF90EF900895EF92FF920F931F93CF9324
:10096000DF93EC019A01AB01BE01882777FD8095EA
:10097000982F0E9432129B01AC01F2E0660F771FA4
:10098000881F991FFA95D1F7620F731F841F951F57
:1009900020E034E040E050E00E94731279018A01C7
:1009A0008091DC028823D9F080E993E06FE271E066
:1009B0000E94970C80E993E0BE014AE050E00E945B
:1009C000780C80E993E067E371E00E94970C80E97E
:1009D00093E0B801A7012AE030E00E94640CC8014E
:1009E000B7010E947E1120E030E040EC5FE30E94FE
:1009F000E3107B018C0120E030E040E050E00E94F9
:100A00002E1288234CF0C801B70120E030E040E00E
:100A10005FE30E947F1008C0C801B70120E030E00A
:100A200040E05FE30E947E100E944B11DF91CF9166
:100A30001F910F91FF90EF900895EF92FF920F9307
:100A40001F938EE480937C0062E070E080E090E091
:100A50000E94790880917A00806480937A00809166
:100A60007A0086FDFCCF8091780090E0A0E0B0E0B5
:100A700060917900362F20E0442737FD4095542FB0
:100A8000282B392B4A2B5B2B60ED7FE581E190E031
:100A90000E947312122F032FF42EE52E8091DC0298
:100AA000882381F080E993E063E471E00E94970C71
:100AB00080E993E0412F502F6F2D7E2D2AE030E00A
:100AC0000E94640C612F702F8F2D9E2D1F910F910E
:100AD000FF90EF90089582E480937C0080917A00EB
:100AE000806C80937A008CED95E00E94D208809112
:100AF0007A0086FDFCCF2091780030E040917900AB
:100B0000942F80E0282B392BC901089581E480932C
:100B10007C0080917A00806C80937A008CED95E067
:100B20000E94D20880917A0086FDFCCF2091780047
:100B300030E040917900942F80E0282B392BC901B7
:100B4000089580E480937C0080917A00806C80938B
:100B50007A008CED95E00E94D20880917A0086FDA3
:100B6000FCCF2091780030E040917900942F80E014
:100B7000282B392BC9010895EF92FF920F931F93F1
:100B8000DF93CF93CDB7DEB7AA970FB6F894DEBF49
:100B90000FBECDBF80E993E00E94280A18161906FF
:100BA0008CF580EF92E069E471E00E94EB0D0FC0DC
:100BB00080E993E00E94590A682F80EF92E00E943A
:100BC0008B0D6AE070E080E090E00E94790880E997
:100BD00093E00E94280A1816190654F38E010F5F3D
:100BE0001F4FC80160EF72E040E050E022E030E0CB
:100BF0000E94040E80EF92E0B8010E944B0EC801E3
:100C00000E94620E80EF92E06AE471E00E94050D9E
:100C10008823E1F090E08091DC02882309F491E0E0
:100C20009093DC0280EF92E06DE471E00E94EB0DA6
:100C30008091DC02882329F080E993E060E571E08F
:100C40009CC180E993E06AE571E097C180EF92E092
:100C50006DE471E00E94050D882309F491C10E94A2
:100C600053086093FB027093FC028093FD02909303
:100C7000FE020E941D057B018C010E94A105B801A6
:100C8000A7010E946C046093E4027093E5028093D4
:100C9000E6029093E7020E948605B801A7010E9430
:100CA0003A046093E8027093E9028093EA02909319
:100CB000EB020E946B05B801A7010E94AB04609390
:100CC000EC027093ED028093EE029093EF0260913C
:100CD000E8027091E9028091EA029091EB02209182
:100CE000E4023091E5024091E6025091E7020E9451
:100CF000321228EE33E040E050E00E94731220935D
:100D0000F7023093F8024093F9025093FA0280916F
:100D1000DC02882309F47DC080E993E065E671E098
:100D20000E94970C4091E4025091E5026091E60226
:100D30007091E70280E993E02AE030E00E94240C01
:100D400080E993E069E671E00E94970C80E993E006
:100D50006CE671E00E94970C4091E8025091E90224
:100D60006091EA027091EB0280E993E02AE030E0C2
:100D70000E94240C80E993E069E671E00E94970CE0
:100D800080E993E060E771E00E94970C4091EC02EB
:100D90005091ED026091EE027091EF0280E993E0D4
:100DA0002AE030E00E94240C80E993E069E671E0DB
:100DB0000E94970C80E993E064E771E00E94970C31
:100DC0004091F7025091F8026091F9027091FA0295
:100DD00080E993E02AE030E00E94240C80E993E06F
:100DE00069E671E00E94970C80E993E068E771E0A2
:100DF0000E94970C4091FB025091FC026091FD0211
:100E00007091FE0280E993E02AE030E00E94100C2D
:100E1000F5C080E993E06CE771E00E949A0C80E9EC
:100E200093E06EE771E00E94970C8E01085F1F4F00
:100E30004091E4025091E5026091E6027091E70270
:100E4000C8010E94AC0380E993E0B8010E94AD0C98
:100E5000C8010E94620E80E993E06BE871E00E9495
:100E60009A0C80E993E06DE871E00E94970C8E0186
:100E7000015F1F4F4091E8025091E9026091EA0240
:100E80007091EB02C8010E94680380E993E0B80109
:100E90000E94AD0CC8010E94620E80E993E06BE8ED
:100EA00071E00E949A0C80E993E06AE971E00E9487
:100EB000970C8E010A5E1F4F4091EC025091ED029B
:100EC0006091EE027091EF02C8010E94680380E910
:100ED00093E0B8010E94AD0CC8010E94620E80E947
:100EE00093E06BE871E00E949A0C80E993E063EA7A
:100EF00071E00E94970C8E01035E1F4F4091F70234
:100F00005091F8026091F9027091FA02C8010E94B2
:100F1000680380E993E0B8010E94AD0CC8010E940B
:100F2000620E80E993E06BE871E00E949A0C80E920
:100F300093E06EEA71E00E94970C8E010C5D1F4FEA
:100F40004091FB025091FC026091FD027091FE0203
:100F5000C8010E94F30380E993E0B8010E94E00C0D
:100F6000C8010E94620E80E993E06DEB71E00E947F
:100F70009A0C80E993E06FEB71E00E949A0C3EC0FE
:100F800080EF92E066E071E00E94050D882381F118
:100F900080E993E063EC71E00E949A0C80E993E0B1
:100FA00065ED71E00E94970C80E993E06DED72E0D1
:100FB0000E94E00C80E993E068EE71E00E949A0CD8
:100FC00080E993E062EF71E00E949A0C80E993E07F
:100FD0006BE072E00E949A0C80E993E063E872E0B3
:100FE0000E949A0C80E993E063EA72E00E949A0CF6
:100FF00080EF92E069E471E00E94EB0DAA960FB6D3
:10100000F894DEBF0FBECDBFCF91DF911F910F913E
:10101000FF90EF9008951F920F920FB60F92112438
:101020002F933F938F939F93AF93BF93809103032D
:1010300090910403A0910503B0910603309107033A
:101040000196A11DB11D232F2D5F2D3720F02D57A7
:101050000196A11DB11D2093070380930303909374
:101060000403A0930503B09306038091FF029091BF
:101070000003A0910103B09102030196A11DB11DCF
:101080008093FF0290930003A0930103B0930203A7
:10109000BF91AF919F918F913F912F910F900FBE74
:1010A0000F901F9018959FB7F8942091FF023091F0
:1010B0000003409101035091020386B5A89B06C02E
:1010C0008F3F21F02F5F3F4F4F4F5F4F9FBF542FF8
:1010D000432F322F2227280F311D411D511D82E041
:1010E000220F331F441F551F8A95D1F7B901CA013A
:1010F00008959B01AC017FB7F8948091FF02909115
:101100000003A0910103B091020366B5A89B05C03E
:101110006F3F19F00196A11DB11D7FBFBA2FA92FF6
:10112000982F8827860F911DA11DB11D62E0880FA1
:10113000991FAA1FBB1F6A95D1F7BC012DC0FFB72D
:10114000F8948091FF0290910003A0910103B09167
:101150000203E6B5A89B05C0EF3F19F00196A11D5B
:10116000B11DFFBFBA2FA92F982F88278E0F911D71
:10117000A11DB11DE2E0880F991FAA1FBB1FEA95B0
:10118000D1F7861B970B885E9340C8F22150304000
:101190004040504068517C4F2115310541055105B3
:1011A00071F60895019739F0880F991F880F991FDC
:1011B00002970197F1F70895789484B5826084BD11
:1011C00084B5816084BD85B5826085BD85B581604B
:1011D00085BDEEE6F0E0808181608083E1E8F0E0AB
:1011E0001082808182608083808181608083E0E8DA
:1011F000F0E0808181608083E1EBF0E080818460B9
:101200008083E0EBF0E0808181608083EAE7F0E0BA
:10121000808184608083808182608083808181601E
:1012200080838081806880831092C1000895089532
:101230001F920F920FB60F9211242F933F934F934B
:101240008F939F93EF93FF938091C00082FD1DC009
:101250004091C60020914803309149032F5F3F4FD2
:101260002F73307080914A0390914B0328173907F0
:1012700071F0E0914803F0914903E85FFC4F40832F
:10128000309349032093480302C08091C600FF9128
:10129000EF919F918F914F913F912F910F900FBEA2
:1012A0000F901F901895E0919C03F0919D03E05CD6
:1012B000FF4F8191919120813181821B930B8F731C
:1012C0009070892B11F00E94170908951F920F92B8
:1012D0000FB60F9211242F933F938F939F93EF9309
:1012E000FF9320918C0330918D0380918E03909118
:1012F0008F032817390731F48091C1008F7D8093C7
:10130000C10014C0E0918E03F0918F03E45BFC4FA9
:10131000208180918E0390918F0301968F7390703E
:1013200090938F0380938E032093C600FF91EF91DB
:101330009F918F913F912F910F900FBE0F901F9013
:101340001895AF92BF92DF92EF92FF920F931F9387
:10135000CF93DF93EC017A018B01DD24403081EEE5
:10136000580780E0680780E0780711F0DD24D39407
:1013700091E0A92EB12CEC89FD89DD2069F0C50131
:1013800008A002C0880F991F0A94E2F7808360E0EA
:1013900079E08DE390E005C0108260E874E88EE1AA
:1013A00090E0A80197010E94511221503040404026
:1013B0005040569547953795279580E1203038075E
:1013C00020F0DD2011F0DD24D6CFE889F9893083C3
:1013D000EA89FB89208319A2EE89FF89408121E0F7
:1013E00030E0C9010C8C02C0880F991F0A94E2F703
:1013F000482B4083EE89FF894081C9010D8C02C0D2
:10140000880F991F0A94E2F7482B4083EE89FF89E1
:101410004081C9010E8C02C0880F991F0A94E2F71F
:10142000482B4083EE89FF8980810F8C02C0220FF8
:10143000331F0A94E2F7209528232083DF91CF9170
:101440001F910F91FF90EF90DF90BF90AF900895A4
:10145000DC011C96ED91FC911D97E05CFF4F219102
:10146000319180819181281B390B2F733070C90114
:101470000895DC011C96ED91FC911D97E05CFF4FF7
:1014800020813181E054F040DF01AE5BBF4F8D9190
:101490009C9111972817390719F42FEF3FEF07C0D8
:1014A0008D919C91E80FF91F8081282F30E0C901B0
:1014B0000895DC011C96ED91FC911D97E05CFF4FB7
:1014C00020813181E054F040DF01AE5BBF4F8D9150
:1014D0009C9111972817390719F42FEF3FEF10C08F
:1014E0008D919C911197E80FF91F20818D919C910E
:1014F000119701968F73907011969C938E9330E0A4
:10150000C9010895DC0191968C919197882339F057
:101510005496ED91FC915597808186FFF9CF919675
:101520001C920895CF93DF93EC01EE85FF85E05C7C
:10153000FF4F20813181E054F0402F5F3F4F2F73E8
:101540003070DF01AE5BBF4F8D919C9111972817D2
:101550003907D1F3E05CFF4F80819181E054F04086
:10156000E80FF91F6083EE85FF85E05CFF4F318354
:101570002083EE89FF89208181E090E00F8C02C0FA
:10158000880F991F0A94E2F7282B208381E089A312
:10159000EC89FD8980818064808381E090E0DF9127
:1015A000CF910895109293031092920388EE93E0E6
:1015B000A0E0B0E08093940390939503A0939603EA
:1015C000B093970380ED92E0909391038093900302
:1015D00088E093E090939D0380939C038CE493E0D8
:1015E00090939F0380939E0385EC90E09093A103DA
:1015F0008093A00384EC90E09093A3038093A203D4
:1016000080EC90E09093A5038093A40381EC90E09C
:101610009093A7038093A60382EC90E09093A90394
:101620008093A80386EC90E09093AB038093AA0389
:1016300084E08093AC0383E08093AD0387E08093E4
:10164000AE0385E08093AF0381E08093B0030895FB
:10165000CF93DF930E94DC080E944A03C3E5D9E0E0
:101660000E94BC052097E1F30E945309F9CFCF9265
:10167000DF92EF92FF920F931F93CF93DF937C0142
:101680006B018A01C0E0D0E00FC0D6016D916D0101
:10169000D701ED91FC910190F081E02DC7010995F2
:1016A000C80FD91F015010400115110571F7CE0167
:1016B000DF91CF911F910F91FF90EF90DF90CF902E
:1016C0000895EF92FF920F931F938C01DC01ED912F
:1016D000FC910190F081E02D6DE009957C01D8012D
:1016E000ED91FC910190F081E02DC8016AE009952F
:1016F0009C012E0D3F1DC9011F910F91FF90EF908E
:101700000895CF93DF93EC016115710519F420E082
:1017100030E00FC0DB010D900020E9F71197A61B08
:10172000B70BE881F9810280F381E02DAD010995C5
:101730009C01C901DF91CF9108954F925F927F92F2
:101740008F929F92AF92BF92CF92DF92EF92FF92D1
:101750000F931F93DF93CF93CDB7DEB7A1970FB64B
:10176000F894DEBF0FBECDBF2C01742ECB0122300A
:1017700008F42AE019A231E2C32ED12CCC0EDD1ED2
:10178000822E9924AA24BB24672D752FA5019401CC
:101790000E94511279018A01C801B701A501940183
:1017A0000E943212472D461B0894C108D1084A30C6
:1017B00014F4405D01C0495CF6014083E114F1047A
:1017C0000105110521F07E2C5F2DC801DDCFC2017E
:1017D000B6010E94810BA1960FB6F894DEBF0FBE32
:1017E000CDBFCF91DF911F910F91FF90EF90DF90D0
:1017F000CF90BF90AF909F908F907F905F904F90D1
:101800000895DC012115310541F4ED91FC91019021
:10181000F081E02D642F099508950E949D0B089595
:10182000EF92FF920F931F937C010E94010C8C0199
:10183000C7010E94610B9C01200F311FC9011F913C
:101840000F91FF90EF900895CF92DF92EF92FF9269
:101850000F931F93CF93DF93EC016A017B01211556
:10186000310541F4E881F9810190F081E02D642F88
:1018700009951FC02A303105D1F477FF17C0E881E0
:10188000F9810190F081E02D6DE209958C014427EA
:101890005527BA014C195D096E097F09CE012AE06E
:1018A0000E949D0B9801280F391F04C02AE00E9456
:1018B0009D0B9C01C901DF91CF911F910F91FF906A
:1018C000EF90DF90CF900895EF92FF920F931F93C8
:1018D0007C010E94240C8C01C7010E94610B9C01B9
:1018E000200F311FC9011F910F91FF90EF900895B4
:1018F000CF92DF92EF92FF920F931F936C017B01C7
:101900009A010027F7FC0095102FB801A7010E944B
:10191000240C8C01C6010E94610B080F191FC8011D
:101920001F910F91FF90EF90DF90CF9008950E944C
:10193000810B0895EF92FF920F931F937C010E94F9
:10194000810B8C01C7010E94610B080F191FC80190
:101950001F910F91FF90EF900895AF92BF92CF9299
:10196000DF92EF92FF920F931F93CF93DF935C016F
:101970006B01EE24FF24C0E0D0E010C0D501ED9152
:10198000FC9100811181C601BE010E94F40C682FF8
:10199000C501F8010995E80EF91E2196F60184812A
:1019A0009581C817D90750F3C701DF91CF911F91D7
:1019B0000F91FF90EF90DF90CF90BF90AF90089580
:1019C000EF92FF920F931F937C010E94AD0C8C014C
:1019D000C7010E94610B9C01200F311FC9011F919B
:1019E0000F91FF90EF900895FC0184819581681715
:1019F000790748F40190F081E02D309721F0E60F4F
:101A0000F71F8081089580E00895DC01FB011496A2
:101A10008D919C911597892B31F461157105A9F071
:101A200090E0808108C00D90BC91A02D61157105DA
:101A300029F490E08C91882349F407C0CD010E94DD
:101A40006A009C0190E0232B09F491E0892F08950E
:101A50000F931F93CF93DF93EC018B016F5F7F4F49
:101A6000888199810E949D0F009711F480E005C044
:101A7000998388831B830A8381E0DF91CF911F9133
:101A80000F910895CF93DF93EC0188819981892B81
:101A900029F08A819B818617970760F4CE010E9406
:101AA000280D882341F08C819D81892B19F4E881D0
:101AB000F981108281E0DF91CF910895EF92FF923A
:101AC0000F931F93CF93DF93EC017B016C817D819A
:101AD000E114F104C1F04115510599F08A01060F96
:101AE000171FB8010E94420D882369F088819981EF
:101AF0002C813D81820F931FB7010E9473001D83CB
:101B00000C8381E001C080E0DF91CF911F910F91A4
:101B1000FF90EF900895DF93CF9300D0CDB7DEB75D
:101B200069831A82BE016F5F7F4F41E050E00E94DF
:101B30005E0D0F900F90CF91DF910895CF93DF93BB
:101B4000EC0188819981009711F00E94050F19829C
:101B500018821D821C821B821A82DF91CF91089508
:101B6000EF92FF920F931F93CF93DF93EC017B01D2
:101B70008A01BA010E94420D882321F4CE010E94FD
:101B80009E0D07C01D830C8388819981B7010E9437
:101B90007300CE01DF91CF911F910F91FF90EF90D5
:101BA0000895CF93DF93EC01198218821B821A8269
:101BB0001D821C821E826115710551F0DB010D90A2
:101BC0000020E9F71197A61BB70BAD010E94B00DDD
:101BD000DF91CF9108950F931F93182F092F61154F
:101BE000710559F0DB010D900020E9F71197A61B54
:101BF000B70BAD010E94B00D02C00E949E0D812F57
:101C0000902F1F910F910895BF92CF92DF92EF9284
:101C1000FF920F931F93CF93DF93082FB92E6B0181
:101C20007A01E9012417350710F4EA017901802FC0
:101C30009B2D65EC72E00E94D10DD60114968D911A
:101C40009C9115978E159F05D0F08C179D0708F471
:101C5000EC01D601ED91FC911197EC0FFD1F108165
:101C600010826D917C916E0D7F1D802F9B2D0E94A7
:101C7000EB0DD601ED91FC91EC0FFD1F1083802F31
:101C80009B2DDF91CF911F910F91FF90EF90DF90EF
:101C9000CF90BF900895CF93DF93EC01FB0186179F
:101CA000970761F0608171816115710529F04481A8
:101CB00055810E94B00D02C00E949E0DCE01DF91A1
:101CC000CF910895FC01808191810E94050F0895B4
:101CD0000F931F93CF93DF93BC018230910510F4D3
:101CE00062E070E0E091B403F091B50340E050E0B1
:101CF000A0E0B0E024C08081918186179707D0F0E2
:101D00008617970771F482819381109729F01396B3
:101D10009C938E9312972CC09093B5038093B40339
:101D200027C04115510519F08417950718F48D0146
:101D3000AC01EF01DF01828193819C01F9013097B1
:101D4000D1F641155105F9F0CA01861B970B843075
:101D5000910580F48A819B810115110521F0F8011C
:101D60009383828304C09093B5038093B403FE01F0
:101D7000329645C0FE01E80FF91F619371930297F7
:101D8000998388833CC08091B2039091B303892BDF
:101D900041F48091C8029091C9029093B30380935B
:101DA000B2034091CA025091CB024115510541F452
:101DB0004DB75EB78091C6029091C702481B590B80
:101DC0002091B2033091B30324173507B0F4CA0150
:101DD000821B930B8617970780F0AB014E5F5F4F16
:101DE0008417950750F0420F531F5093B30340934D
:101DF000B203F9016193719302C0E0E0F0E0CF011A
:101E0000DF91CF911F910F910895CF93DF939C01A4
:101E1000009709F48FC0EC0122971B821A8260910F
:101E2000B4037091B5036115710581F488819981BE
:101E3000820F931F2091B2033091B3032817390703
:101E400039F5D093B303C093B20374C0DB0140E013
:101E500050E0AC17BD0708F1BB83AA83FE012191B6
:101E60003191E20FF31FAE17BF0779F48D919C916A
:101E70001197280F391F2E5F3F4F39832883129601
:101E80008D919C9113979B838A834115510571F421
:101E9000D093B503C093B4034DC012968D919C911D
:101EA0001397AD01009711F0DC01D3CFDA0113963F
:101EB000DC93CE931297FA0121913191E20FF31F37
:101EC000CE17DF0769F488819981280F391F2E5FAB
:101ED0003F4FFA01318320838A819B8193838283E0
:101EE000E0E0F0E0DB0112968D919C911397009752
:101EF00019F0BC01FD01F6CFAB014E5F5F4FDB0176
:101F00008D919C91840F951F2091B2033091B30362
:101F10002817390779F4309729F41092B5031092F5
:101F2000B40302C013821282425050405093B30354
:101F30004093B203DF91CF9108956F927F928F9279
:101F40009F92AF92BF92CF92DF92EF92FF920F9348
:101F50001F93CF93DF938C01009729F4CB010E944C
:101F6000680E8C01BBC08EEFE82E8FEFF82EE00ECE
:101F7000F11E4801860E971E8E149F0408F4ACC013
:101F8000D7014D915C91119746175707B8F045302E
:101F9000510508F4A3C0CA0104978617970708F4EF
:101FA0009DC042505040461B570BF4014193519342
:101FB0006D937C93CF010E94050F90C05B01A41A22
:101FC000B50A3801640E751EA091B403B091B50333
:101FD000E0E0F0E0CC24DD2447C0A615B705A9F564
:101FE000CD91DC911197CE0102968A159B0568F17F
:101FF000CE018A199B09029612962C91129713967C
:102000003C91059758F0F40122833383CA19DB0908
:10201000D183C083D7016D937C9309C04E5F5F4F1E
:102020004C0F5D1FF70151834083C901FC01C114AE
:10203000D10431F0D6011396FC93EE9312974EC063
:10204000F093B503E093B40349C08D919C9111972F
:10205000E817F90708F4FC016D0112968C911297AC
:1020600013969C919C01D901109709F0B6CF8091ED
:10207000B2039091B30386159705E9F4E617F707C5
:10208000D0F42091CA023091CB022115310541F4E0
:102090002DB73EB78091C6029091C702281B390B1D
:1020A00082169306C8F49092B3038092B203F701AC
:1020B0007183608313C0CB010E94680EEC0100970E
:1020C00059F0D7014D915C91B8010E946100C8019F
:1020D0000E94050F8E0102C000E010E0C801DF91F0
:1020E000CF911F910F91FF90EF90DF90CF90BF9015
:1020F000AF909F908F907F906F9008955058BB271E
:10210000AA270ED071C162D130F067D120F031F42E
:102110009F3F11F41EF457C10EF4E095E7FB4DC14B
:10212000E92F73D180F3BA17620773078407950705
:1021300018F071F49EF58BC10EF4E0950B2EBA2FBA
:10214000A02D0B01B90190010C01CA01A0011124BD
:10215000FF27591B99F0593F50F4503E68F11A1669
:10216000F040A22F232F342F4427585FF3CF4695FA
:1021700037952795A795F0405395C9F77EF41F161C
:10218000BA0B620B730B840BBAF09150A1F0FF0FE6
:10219000BB1F661F771F881FC2F70EC0BA0F621FD2
:1021A000731F841F48F4879577956795B795F795C2
:1021B0009E3F08F0B3CF9395880F08F09927EE0F54
:1021C0009795879508950CD00FC107D140F0FED0A8
:1021D00030F021F45F3F19F0F0C0511139C1F3C064
:1021E00014D198F39923C9F35523B1F3951B550BDB
:1021F000BB27AA2762177307840738F09F5F5F4FDA
:10220000220F331F441FAA1FA9F333D00E2E3AF01A
:10221000E0E830D091505040E695001CCAF729D034
:10222000FE2F27D0660F771F881FBB1F2617370783
:102230004807AB07B0E809F0BB0B802DBF01FF27B3
:1022400093585F4F2AF09E3F510568F0B6C000C119
:102250005F3FECF3983EDCF3869577956795B795ED
:10226000F7959F5FC9F7880F911D9695879597F908
:102270000895E1E0660F771F881FBB1F6217730781
:102280008407BA0720F0621B730B840BBA0BEE1F96
:1022900088F7E095089504D06894B111D9C00895E5
:1022A000BCD088F09F5790F0B92F9927B751A0F074
:1022B000D1F0660F771F881F991F1AF0BA95C9F7DA
:1022C00012C0B13081F0C3D0B1E00895C0C0672F13
:1022D000782F8827B85F39F0B93FCCF3869577958A
:1022E0006795B395D9F73EF4909580957095619573
:1022F0007F4F8F4F9F4F0895E89409C097FB3EF49E
:1023000090958095709561957F4F8F4F9F4F992342
:10231000A9F0F92F96E9BB279395F69587957795C0
:102320006795B795F111F8CFFAF4BB0F11F460FF80
:102330001BC06F5F7F4F8F4F9F4F16C0882311F0D8
:1023400096E911C0772321F09EE8872F762F05C0EC
:10235000662371F096E8862F70E060E02AF09A9587
:10236000660F771F881FDAF7880F9695879597F97C
:102370000895990F0008550FAA0BE0E8FEEF161616
:102380001706E807F907C0F012161306E407F50769
:1023900098F0621B730B840B950B39F40A2661F0DD
:1023A000232B242B252B21F408950A2609F4A14080
:1023B000A6958FEF811D811D089597F99F6780E88D
:1023C00070E060E008959FEF80EC089500240A9487
:1023D0001616170618060906089500240A94121600
:1023E0001306140605060895092E0394000C11F433
:1023F000882352F0BB0F40F4BF2B11F460FF04C0E0
:102400006F5F7F4F8F4F9F4F089557FD9058440F38
:10241000551F59F05F3F71F04795880F97FB991F43
:1024200061F09F3F79F08795089512161306140600
:10243000551FF2CF4695F1DF08C01616170618068D
:10244000991FF1CF86957105610508940895E89468
:10245000BB2766277727CB0197F908958ADF08F411
:102460008FEF0895629FD001739FF001829FE00D6E
:10247000F11D649FE00DF11D929FF00D839FF00D03
:10248000749FF00D659FF00D9927729FB00DE11DAF
:10249000F91F639FB00DE11DF91FBD01CF0111248C
:1024A0000895A1E21A2EAA1BBB1BFD010DC0AA1F95
:1024B000BB1FEE1FFF1FA217B307E407F50720F0AD
:1024C000A21BB30BE40BF50B661F771F881F991F28
:1024D0001A9469F760957095809590959B01AC0171
:1024E000BD01CF01089597FB092E05260ED057FD9B
:1024F00004D0D7DF0AD0001C38F4509540953095B1
:1025000021953F4F4F4F5F4F0895F6F79095809577
:10251000709561957F4F8F4F9F4F0895EE0FFF1F6E
:102520000590F491E02D09942F923F924F925F9283
:102530006F927F928F929F92AF92BF92CF92DF92D3
:10254000EF92FF920F931F93CF93DF93CDB7DEB738
:10255000CA1BDB0B0FB6F894DEBF0FBECDBF0994CC
:102560002A88398848885F846E847D848C849B8423
:10257000AA84B984C884DF80EE80FD800C811B8131
:10258000AA81B981CE0FD11D0FB6F894DEBF0FBE60
:10259000CDBFED01089510E0CCE6D0E004C0FE010F
:1025A0000E9490122296CE36D107C9F7F894FFCF39
:1025B000312E302E3500484800526561647900257F
:1025C000346C640025356C64002531306C7500492D
:1025D0005F7261773A2000565F7261773A20004E51
:1025E0005F7261773A2000566F6C74735F52504D82
:1025F0003A20005663633A20000044440041410001
:1026000044656275673A204F6E0044656275673AAB
:10261000204F666600563A20003B2000493A2000D1
:102620004E3A2000503A2000743A20007B000922E4
:10263000766F6C74616765223A20002C0009226372
:10264000757272656E74223A2000092272706D22D2
:102650003A20000922706F776572223A2000092221
:1026600074696D657374616D70223A20007D004558
:102670004F4C004D6561737572656D656E742042D7
:102680006F617264004669726D77617265202056D1
:10269000657273696F6E3A00436F6D6D616E64733E
:1026A0003A004848203A207072696E74732074684A
:1026B0006973206D617373616765004141203A2041
:1026C0007072696E7420566F6C742C204375727230
:1026D000656E742C2052504D2C20506F77657220FF
:1026E000616E6420612054696D657374616D702042
:1026F0002873696E6365206C6173742072657374EE
:102700006172742920696E2061637475616C205553
:102710006E69747320285B6D565D2C5B6D415D2C7A
:102720005B312F6D696E5D2C5B6D575D2C5B757336
:102730005D290020202020204F7574707574206959
:102740007320696E204A534F4E205374796C652173
:102750002121004444203A20746F67676C6520642F
:1027600065627567206D6F6465206F6E20616E64B1
:10277000206F666600008000B603000000000000C5
:0C278000920A370B280A590A390A820A0B
:00000001FF
