:100000000C9437000C945F000C945F000C945F001C
:100010000C945F000C945F000C945F000C945F00E4
:100020000C945F000C945F000C945F000C945F00D4
:100030000C945F000C945F000C945F000C945F00C4
:100040000C94BB080C945F000C94C8090C94160A1D
:100050000C945F000C945F000C945F000C945F00A4
:100060000C945F000C945F004303820B3C0311244B
:100070001FBECFEFD8E0DEBFCDBF13E0A0E0B1E000
:10008000E0E1F7E202C005900D92A633B107D9F77F
:1000900014E0A6E3B3E001C01D92A131B107E1F77E
:1000A00010E0CCE6D0E004C02297FE010E9440138D
:1000B000C836D107C9F70E94D80B0C947B130C9457
:1000C0000000FB01DC0102C001900D924150504044
:1000D000D8F70895FB01DC018D9101908019011082
:1000E000D9F3990B0895FB01DC0101900D920020DA
:1000F000E1F70895AEE0B0E0E0E8F0E00C945213D0
:100100000D891E8986E08C831A8309838FEF9FE710
:100110009E838D839E01275E3F4FCE0101966F899E
:10012000788DA9010E949E002F813885020F131F30
:10013000F80110822E96E4E00C946E13ABE0B0E070
:10014000E4EAF0E00C9444133C012B015A01FC0159
:1001500017821682838181FD03C06FEF7FEFC6C1D6
:100160009AE0892E1E010894211C311CF301238181
:10017000F20123FD859123FF81912F01882309F44A
:10018000B2C1853239F423FD859123FF81912F017E
:10019000853229F490E0B3010E949102E7CF982FB5
:1001A000FF24EE249924FFE1FF15D0F09B3269F083
:1001B0009C3228F4903259F0933291F40EC09D3263
:1001C00049F0903369F441E024C052E0F52A84E01C
:1001D000F82A28C098E0F92A25C0E0E1FE2A22C0CA
:1001E000F7FC29C0892F80538A3070F4F6FE05C0D1
:1001F000989C902C1124980E15C0E89CE02C11249A
:10020000E80EF0E2FF2A0EC09E3229F4F6FC6BC124
:1002100040E4F42A07C09C3619F450E8F52A02C0DD
:10022000983649F4F20123FD959123FF91912F0116
:10023000992309F0B8CF892F8554833018F0805264
:10024000833038F444E050E0A40EB51E5FE35983D8
:100250000FC0933631F0933779F0933509F056C0DB
:1002600020C0F5018081898342E050E0A40EB51ED4
:10027000610101E010E012C0F501C080D180F6FC00
:1002800003C06FEF7FEF02C0692D70E042E050E0E5
:10029000A40EB51EC6010E9486028C015FE7F522FE
:1002A00014C0F501C080D180F6FC03C06FEF7FEF72
:1002B00002C0692D70E042E050E0A40EB51EC601F8
:1002C0000E947B028C0150E8F52AF3FE07C01AC099
:1002D00080E290E0B3010E949102EA948E2D90E0BA
:1002E00008171907A8F30EC0F601F7FC8591F7FE71
:1002F00081916F0190E0B3010E949102E110EA94B4
:10030000015010400115110579F7EAC0943611F03B
:10031000993669F5F7FE08C0F501208131814281E7
:10032000538184E090E00AC0F501808191819C01B5
:10033000442737FD4095542F82E090E0A80EB91E67
:100340009FE6F92257FF09C05095409530952195B9
:100350003F4F4F4F5F4FE0E8FE2ACA01B901A101AC
:100360002AE030E00E94BD02D82ED21840C0953756
:1003700029F41F2D1F7E2AE030E01DC01F2D197F9C
:100380009F3661F0903720F4983509F0ACC00FC06B
:10039000903739F0983709F0A6C004C028E030E063
:1003A0000AC0106114FD146020E130E004C014FDA7
:1003B000166020E132E017FF08C0F501608171810D
:1003C0008281938144E050E008C0F50180819181F1
:1003D000BC0180E090E042E050E0A40EB51EA10117
:1003E0000E94BD02D82ED2188FE7F82EF122F6FE19
:1003F0000BC05EEFF522D91438F4F4FE07C0F2FC0E
:1004000005C08FEEF82202C01D2D01C0192DF4FE8B
:100410000DC0FE01ED0DF11D8081803319F499EEC0
:10042000F92208C01F5FF2FE05C003C08F2D867839
:1004300009F01F5F0F2DF3FC14C0F0FE0FC01E1556
:1004400010F09D2C0BC09D2C9E0C911A1E2D06C0E9
:1004500080E290E0B3010E9491021F5F1E15C0F37D
:1004600004C01E1510F4E11A01C0EE2404FF0FC0F1
:1004700080E390E0B3010E94910202FF1DC001FDE4
:1004800003C088E790E00EC088E590E00BC0802FA5
:10049000867891F001FF02C08BE201C080E2F7FC98
:1004A0008DE290E0B3010E94910206C080E390E0EB
:1004B000B3010E9491029A94D914C0F3DA94F10125
:1004C000ED0DF11D808190E0B3010E949102DD20CD
:1004D000A9F706C080E290E0B3010E949102EA947D
:1004E000EE20C1F743CEF30166817781CB012B96D5
:1004F000E2E10C946013FC01059061507040011022
:10050000D8F7809590958E0F9F1F0895FC0161503C
:10051000704001900110D8F7809590958E0F9F1F25
:1005200008950F931F93CF93DF938C01EB018B8181
:1005300081FF1BC082FF0DC02E813F818C819D8178
:100540002817390764F4E881F9810193F983E88376
:1005500006C0E885F985802F0995892B31F48E81B5
:100560009F8101969F838E8302C00FEF1FEFC8010A
:10057000DF91CF911F910F910895FA01AA2728309A
:1005800051F1203181F1E8946F936E7F6E5F7F4F60
:100590008F4F9F4FAF4FB1E03ED0B4E03CD0670FDC
:1005A000781F891F9A1FA11D680F791F8A1F911D2F
:1005B000A11D6A0F711D811D911DA11D20D009F47F
:1005C00068943F912AE0269F11243019305D3193C1
:1005D000DEF6CF010895462F4770405D4193B3E0AA
:1005E0000FD0C9F7F6CF462F4F70405D4A3318F051
:1005F000495D31FD4052419302D0A9F7EACFB4E002
:10060000A6959795879577956795BA95C9F70097B9
:100610006105710508959B01AC010A2E069457955A
:10062000479537952795BA95C9F7620F731F841FB1
:10063000951FA01D08958130910581F46F5F7F4F54
:10064000D1F488E393E060E071E00E94810E8BE4D6
:1006500093E067E071E00E94810E0895892B59F4C0
:100660006F5F7F4F41F48BE493E00E94120F88E3A9
:1006700093E00E94120F089580E090E06FEF7FEF0B
:100680000E941B03089581E090E06FEF7FEF0E94CE
:100690001B0308950F931F93EAE7F0E080818460C5
:1006A000808380818260808380818E7F80830BEE57
:1006B00013E0C80140E052EC61E070E00E94510A92
:1006C000C8016AE071E00E944A0D1F910F910895E0
:1006D000EF92FF920F931F93DF93CF9300D000D040
:1006E00000D0CDB7DEB77C018DB79EB708970FB6A7
:1006F000F8949EBF0FBE8DBFEDB7FEB731968E0149
:100700000F5F1F4FADB7BEB712961C930E93119794
:1007100080E191E09383828344835583668377836A
:100720000E947A008DB79EB708960FB6F8949EBFC8
:100730000FBE8DBFC701B8010E94810EC70126966A
:100740000FB6F894DEBF0FBECDBFCF91DF911F91E2
:100750000F91FF90EF900895EF92FF920F931F93E8
:10076000DF93CF93CDB7DEB727970FB6F894DEBFF0
:100770000FBECDBF7C018DB79EB708970FB6F8941A
:100780009EBF0FBE8DBFEDB7FEB731968E010F5FD6
:100790001F4FADB7BEB712961C930E93119785E10C
:1007A00091E09383828344835583668377830E9499
:1007B0007A008DB79EB708960FB6F8949EBF0FBE0D
:1007C0008DBFC701B8010E94810EC70127960FB6E1
:1007D000F894DEBF0FBECDBFCF91DF911F910F9177
:1007E000FF90EF900895EF92FF920F931F93DF9386
:1007F000CF93CDB7DEB72C970FB6F894DEBF0FBE00
:10080000CDBF7C018DB79EB708970FB6F8949EBFF9
:100810000FBE8DBFEDB7FEB731968E010F5F1F4F34
:10082000ADB7BEB712961C930E9311978AE191E073
:100830009383828344835583668377830E947A00FF
:100840008DB79EB708960FB6F8949EBF0FBE8DBFAA
:10085000C701B8010E94810EC7012C960FB6F8940B
:10086000DEBF0FBECDBFCF91DF911F910F91FF90E3
:10087000EF900895EF92FF920F931F93CF93DF9322
:10088000EC017A018B0180913603882369F08BEEAD
:1008900093E060E271E00E94470D8BEE93E0BE01B1
:1008A0004AE050E00E94280D9E01442737FD409504
:1008B000542FC801B7010E94E21220E034E040E06A
:1008C00050E00E942313CA01B901DF91CF911F911B
:1008D0000F91FF90EF900895EF92FF920F931F9367
:1008E000CF93DF93EC017A018B018091360388234B
:1008F00069F08BEE93E068E271E00E94470D8BEEA9
:1009000093E0BE014AE050E00E94280DBE01882716
:1009100077FD8095982FA80197010E94E2129B0114
:10092000AC01E2E0660F771F881F991FEA95D1F7A7
:10093000620F731F841F951F20E034E040E050E0F9
:100940000E942313CA01B901DF91CF911F910F912A
:10095000FF90EF900895EF92FF920F931F93CF9324
:10096000DF93EC019A01AB01BE01882777FD8095EA
:10097000982F0E94E2129B01AC01F2E0660F771FF4
:10098000881F991FFA95D1F7620F731F841F951F57
:1009900020E034E040E050E00E94231379018A0116
:1009A000809136038823D9F08BEE93E060E371E009
:1009B0000E94470D8BEE93E0BE014AE050E00E949A
:1009C000280D8BEE93E068E371E00E94470D8BEEFB
:1009D00093E0B801A7012AE030E00E94140DC8019D
:1009E000B7010E942E1220E030E040EC5FE30E944D
:1009F00093117B018C0120E030E040E050E00E9448
:100A0000DE1288234CF0C801B70120E030E040E05E
:100A10005FE30E942F1108C0C801B70120E030E059
:100A200040E05FE30E942E110E94FB11DF91CF9105
:100A30001F910F91FF90EF900895EF92FF920F9307
:100A40001F938EE480937C0062E070E080E090E091
:100A50000E94290980917A00806480937A008091B5
:100A60007A0086FDFCCF8091780090E0A0E0B0E0B5
:100A700060917900362F20E0442737FD4095542FB0
:100A8000282B392B4A2B5B2B60ED7FE581E190E031
:100A90000E942313122F032FF42EE52E809136038C
:100AA000882381F08BEE93E064E471E00E94470DAF
:100AB0008BEE93E0412F502F6F2D7E2D2AE030E0FA
:100AC0000E94140D612F702F8F2D9E2D1F910F915D
:100AD000FF90EF90089582E480937C0080917A00EB
:100AE000806C80937A008CED95E00E948209809161
:100AF0007A0086FDFCCF2091780030E040917900AB
:100B0000942F80E0282B392BC901089581E480932C
:100B10007C0080917A00806C80937A008CED95E067
:100B20000E94820980917A0086FDFCCF2091780096
:100B300030E040917900942F80E0282B392BC901B7
:100B4000089580E480937C0080917A00806C80938B
:100B50007A008CED95E00E94820980917A0086FDF2
:100B6000FCCF2091780030E040917900942F80E014
:100B7000282B392BC9010895CF92DF92EF92FF9273
:100B80000F931F93DF93CF93CDB7DEB7CD54D040F3
:100B90000FB6F894DEBF0FBECDBF8BEE93E00E9480
:100BA000D80A181619068CF58BE493E06AE471E014
:100BB0000E949B0E0FC08BEE93E00E94090B682FE2
:100BC0008BE493E00E943B0E6AE070E080E090E0EE
:100BD0000E9429098BEE93E00E94D80A1816190684
:100BE00054F38E010F5F1F4FC8016BE473E040E0C8
:100BF00050E022E030E00E94B40E8BE493E0B801B4
:100C00000E94FB0EC8010E94120F8BE493E06BE47C
:100C100071E00E94B50D8823E9F090E080913603E1
:100C2000882309F491E0909336038BE493E06EE41B
:100C300071E00E949B0E80913603882329F08BEE91
:100C400093E061E571E004C08BEE93E06BE571E049
:100C50000E944A0D8BE493E066E671E00E94B50DB8
:100C6000882369F090E080913703882309F491E0AC
:100C7000909337038BE493E06EE471E06AC28BE4F7
:100C800093E06EE471E00E94B50D882309F419C267
:100C90000E9403096093560370935703809358038F
:100CA000909359030E941D057B018C010E94A105B0
:100CB000B801A7010E946C0460933F037093400346
:100CC00080934103909342030E948605B801A701D7
:100CD0000E943A0460934303709344038093450356
:100CE000909346030E946B05B801A7010E94AB04D4
:100CF00060934703709348038093490390934A039A
:100D000060914303709144038091450390914603A1
:100D1000C0903F03D0904003E0904103F090420325
:100D2000A70196010E94E21228EE33E040E050E075
:100D30000E94231320935203309353034093540390
:100D40005093550380913603882309F47DC08BEEC0
:100D500093E069E671E00E94470D40913F03509196
:100D6000400360914103709142038BEE93E02AE0CF
:100D700030E00E94D40C8BEE93E06DE671E00E94AF
:100D8000470D8BEE93E060E771E00E94470D4091C4
:100D900043035091440360914503709146038BEEE9
:100DA00093E02AE030E00E94D40C8BEE93E06DE6F5
:100DB00071E00E94470D8BEE93E064E771E00E94C2
:100DC000470D40914703509148036091490370914A
:100DD0004A038BEE93E02AE030E00E94D40C8BEEC5
:100DE00093E06DE671E00E94470D8BEE93E068E7BB
:100DF00071E00E94470D409152035091530360915E
:100E00005403709155038BEE93E02AE030E00E948A
:100E1000D40C8BEE93E06DE671E00E94470D8BEEF3
:100E200093E06CE771E00E94470D409156035091AA
:100E3000570360915803709159038BEE93E02AE0B9
:100E400030E00E94C00C87C180913703882309F4E9
:100E500081C08E01085F1F4FC801B701A6010E9423
:100E6000AC038BEE93E0B8010E945D0DC8010E94B7
:100E7000120F8BEE93E060E871E00E94470D8E0147
:100E8000015F1F4F4091430350914403609145031C
:100E900070914603C8010E9468038BEE93E0B8018D
:100EA0000E945D0DC8010E94120F8BEE93E060E876
:100EB00071E00E94470D8E010A5E1F4F409147036B
:100EC000509148036091490370914A03C8010E9400
:100ED00068038BEE93E0B8010E945D0DC8010E948B
:100EE000120F8BEE93E060E871E00E94470D8E01D7
:100EF000035E1F4F4091520350915303609154037E
:100F000070915503C8010E9468038BEE93E0B8010D
:100F10000E945D0DC8010E94120F8BEE93E060E805
:100F200071E00E94470D8E010C5D1F4F40915603EA
:100F3000509157036091580370915903C8010E9462
:100F4000F3038BEE93E0B8010E94900DC8010E945C
:100F5000120F01C18BEE93E062E871E00E944A0D2E
:100F60008BEE93E064E871E00E94470D8E01055D11
:100F70001F4F40913F035091400360914103709196
:100F80004203C8010E94AC038BEE93E0B8010E94BB
:100F90005D0DC8010E94120F8BEE93E060E871E0D6
:100FA0000E944A0D8BEE93E061E971E00E94470DCB
:100FB0008E010E5C1F4F409143035091440360919A
:100FC000450370914603C8010E9468038BEE93E0CD
:100FD000B8010E945D0DC8010E94120F8BEE93E0D4
:100FE00060E871E00E944A0D8BEE93E06EE971E0DB
:100FF0000E94470D8E01075C1F4F4091470350919F
:1010000048036091490370914A03C8010E94680334
:101010008BEE93E0B8010E945D0DC8010E94120F93
:101020008BEE93E060E871E00E944A0D8BEE93E056
:1010300067EA71E00E94470D8E01005C1F4F4091EE
:101040005203509153036091540370915503C801AA
:101050000E9468038BEE93E0B8010E945D0DC80109
:101060000E94120F8BEE93E060E871E00E944A0D3F
:101070008BEE93E062EB71E00E94470D8E01095BFD
:101080001F4F409156035091570360915803709140
:101090005903C8010E94F3038BEE93E0B8010E944C
:1010A000900DC8010E94120F8BEE93E061EC71E08D
:1010B0000E944A0D8BEE93E063EC71E00E944A0DB2
:1010C0004AC08BE493E067E071E00E94B50D88238D
:1010D000E1F18BEE93E067EC71E00E944A0D8BEE3C
:1010E00093E069ED71E00E94470D8BEE93E068E3B9
:1010F00073E00E94900D8BEE93E06CEE71E00E9425
:101100004A0D8BEE93E066EF71E00E944A0D8BEE84
:1011100093E06FE072E00E944A0D8BEE93E067E887
:1011200072E00E944A0D8BEE93E067EA72E00E9443
:101130004A0D8BEE93E069EC72E00E944A0D8BEE53
:1011400093E06BE173E00E944A0D8BE493E06AE464
:1011500071E00E949B0EC35BDF4F0FB6F894DEBFB9
:101160000FBECDBFCF91DF911F910F91FF90EF90F8
:10117000DF90CF9008951F920F920FB60F92112417
:101180002F933F938F939F93AF93BF9380915E0371
:1011900090915F03A0916003B0916103309162036D
:1011A0000196A11DB11D232F2D5F2D3720F02D5746
:1011B0000196A11DB11D2093620380935E0390935D
:1011C0005F03A0936003B093610380915A039091F1
:1011D0005B03A0915C03B0915D030196A11DB11D5D
:1011E00080935A0390935B03A0935C03B0935D03D9
:1011F000BF91AF919F918F913F912F910F900FBE13
:101200000F901F9018959FB7F89420915A03309132
:101210005B0340915C0350915D0386B5A89B06C0BB
:101220008F3F21F02F5F3F4F4F4F5F4F9FBF542F96
:10123000432F322F2227280F311D411D511D82E0DF
:10124000220F331F441F551F8A95D1F7B901CA01D8
:1012500008959B01AC017FB7F89480915A03909157
:101260005B03A0915C03B0915D0366B5A89B05C0CC
:101270006F3F19F00196A11DB11D7FBFBA2FA92F95
:10128000982F8827860F911DA11DB11D62E0880F40
:10129000991FAA1FBB1F6A95D1F7BC012DC0FFB7CC
:1012A000F89480915A0390915B03A0915C03B091F4
:1012B0005D03E6B5A89B05C0EF3F19F00196A11D9F
:1012C000B11DFFBFBA2FA92F982F88278E0F911D10
:1012D000A11DB11DE2E0880F991FAA1FBB1FEA954F
:1012E000D1F7861B970B885E9340C8F2215030409F
:1012F0004040504068517C4F211531054105510552
:1013000071F60895019739F0880F991F880F991F7A
:1013100002970197F1F70895789484B5826084BDAF
:1013200084B5816084BD85B5826085BD85B58160E9
:1013300085BDEEE6F0E0808181608083E1E8F0E049
:101340001082808182608083808181608083E0E878
:10135000F0E0808181608083E1EBF0E08081846057
:101360008083E0EBF0E0808181608083EAE7F0E059
:1013700080818460808380818260808380818160BD
:1013800080838081806880831092C10008950895D1
:101390001F920F920FB60F9211242F933F934F93EA
:1013A0008F939F93EF93FF938091C00082FD1DC0A8
:1013B0004091C6002091A3033091A4032F5F3F4FBB
:1013C0002F7330708091A5039091A60328173907D9
:1013D00071F0E091A303F091A403ED59FC4F408319
:1013E0003093A4032093A30302C08091C600FF9111
:1013F000EF919F918F914F913F912F910F900FBE41
:101400000F901F901895E091F703F091F803E05CBE
:10141000FF4F8191919120813181821B930B8F73BA
:101420009070892B11F00E94C70908951F920F92A6
:101430000FB60F9211242F933F938F939F93EF93A7
:10144000FF932091E7033091E8038091E9039091A5
:10145000EA032817390731F48091C1008F7D80930A
:10146000C10014C0E091E903F091EA03E955FC4F93
:1014700020818091E9039091EA0301968F73907027
:101480009093EA038093E9032093C600FF91EF91C4
:101490009F918F913F912F910F900FBE0F901F90B2
:1014A0001895AF92BF92DF92EF92FF920F931F9326
:1014B000CF93DF93EC017A018B01DD24403081EE84
:1014C000580780E0680780E0780711F0DD24D394A6
:1014D00091E0A92EB12CEC89FD89DD2069F0C501D0
:1014E00008A002C0880F991F0A94E2F7808360E089
:1014F00079E08DE390E005C0108260E874E88EE149
:1015000090E0A80197010E94011321503040404013
:101510005040569547953795279580E120303807FC
:1015200020F0DD2011F0DD24D6CFE889F989308361
:10153000EA89FB89208319A2EE89FF89408121E095
:1015400030E0C9010C8C02C0880F991F0A94E2F7A1
:10155000482B4083EE89FF894081C9010D8C02C070
:10156000880F991F0A94E2F7482B4083EE89FF8980
:101570004081C9010E8C02C0880F991F0A94E2F7BE
:10158000482B4083EE89FF8980810F8C02C0220F97
:10159000331F0A94E2F7209528232083DF91CF910F
:1015A0001F910F91FF90EF90DF90BF90AF90089543
:1015B000DC011C96ED91FC911D97E05CFF4F2191A1
:1015C000319180819181281B390B2F733070C901B3
:1015D0000895DC011C96ED91FC911D97E05CFF4F96
:1015E00020813181E054F040DF01AE5BBF4F8D912F
:1015F0009C9111972817390719F42FEF3FEF07C077
:101600008D919C91E80FF91F8081282F30E0C9014E
:101610000895DC011C96ED91FC911D97E05CFF4F55
:1016200020813181E054F040DF01AE5BBF4F8D91EE
:101630009C9111972817390719F42FEF3FEF10C02D
:101640008D919C911197E80FF91F20818D919C91AC
:10165000119701968F73907011969C938E9330E042
:10166000C9010895DC0191968C919197882339F0F6
:101670005496ED91FC915597808186FFF9CF919614
:101680001C920895CF93DF93EC01EE85FF85E05C1B
:10169000FF4F20813181E054F0402F5F3F4F2F7387
:1016A0003070DF01AE5BBF4F8D919C911197281771
:1016B0003907D1F3E05CFF4F80819181E054F04025
:1016C000E80FF91F6083EE85FF85E05CFF4F3183F3
:1016D0002083EE89FF89208181E090E00F8C02C099
:1016E000880F991F0A94E2F7282B208381E089A3B1
:1016F000EC89FD8980818064808381E090E0DF91C6
:10170000CF9108951092EE031092ED0388EE93E0CE
:10171000A0E0B0E08093EF039093F003A093F10377
:10172000B093F2038AE293E09093EC038093EB038F
:1017300083E693E09093F8038093F70387EA93E0BE
:101740009093FA038093F90385EC90E09093FC0367
:101750008093FB0384EC90E09093FE038093FD0361
:1017600080EC90E0909300048093FF0381EC90E084
:10177000909302048093010482EC90E0909304041F
:101780008093030486EC90E0909306048093050414
:1017900084E08093070483E08093080487E08093CB
:1017A000090485E080930A0481E080930B04089586
:1017B000CF93DF930E948C090E944A03C3E0DAE0D2
:1017C0000E94BC052097E1F30E94030AF9CFCF9253
:1017D000DF92EF92FF920F931F93CF93DF937C01E1
:1017E0006B018A01C0E0D0E00FC0D6016D916D01A0
:1017F000D701ED91FC910190F081E02DC701099591
:10180000C80FD91F015010400115110571F7CE0105
:10181000DF91CF911F910F91FF90EF90DF90CF90CC
:101820000895EF92FF920F931F938C01DC01ED91CD
:10183000FC910190F081E02D6DE009957C01D801CB
:10184000ED91FC910190F081E02DC8016AE00995CD
:101850009C012E0D3F1DC9011F910F91FF90EF902C
:101860000895CF93DF93EC016115710519F420E021
:1018700030E00FC0DB010D900020E9F71197A61BA7
:10188000B70BE881F9810280F381E02DAD01099564
:101890009C01C901DF91CF9108954F925F927F9291
:1018A0008F929F92AF92BF92CF92DF92EF92FF9270
:1018B0000F931F93DF93CF93CDB7DEB7A1970FB6EA
:1018C000F894DEBF0FBECDBF2C01742ECB012230A9
:1018D00008F42AE019A231E2C32ED12CCC0EDD1E71
:1018E000822E9924AA24BB24672D752FA50194016B
:1018F0000E94011379018A01C801B701A501940171
:101900000E94E212472D461B0894C108D1084A30B4
:1019100014F4405D01C0495CF6014083E114F10418
:101920000105110521F07E2C5F2DC801DDCFC2011C
:10193000B6010E94310CA1960FB6F894DEBF0FBE1F
:10194000CDBFCF91DF911F910F91FF90EF90DF906E
:10195000CF90BF90AF909F908F907F905F904F906F
:101960000895DC012115310541F4ED91FC910190C0
:10197000F081E02D642F099508950E944D0C089583
:10198000EF92FF920F931F937C010E94B10C8C0188
:10199000C7010E94110C9C01200F311FC9011F912A
:1019A0000F91FF90EF900895CF92DF92EF92FF9208
:1019B0000F931F93CF93DF93EC016A017B012115F5
:1019C000310541F4E881F9810190F081E02D642F27
:1019D00009951FC02A303105D1F477FF17C0E8817F
:1019E000F9810190F081E02D6DE209958C01442789
:1019F0005527BA014C195D096E097F09CE012AE00D
:101A00000E944D0C9801280F391F04C02AE00E9443
:101A10004D0C9C01C901DF91CF911F910F91FF9057
:101A2000EF90DF90CF900895EF92FF920F931F9366
:101A30007C010E94D40C8C01C7010E94110C9C01F6
:101A4000200F311FC9011F910F91FF90EF90089552
:101A5000CF92DF92EF92FF920F931F936C017B0165
:101A60009A010027F7FC0095102FB801A7010E94EA
:101A7000D40C8C01C6010E94110C080F191FC8015B
:101A80001F910F91FF90EF90DF90CF9008950E94EB
:101A9000310C0895EF92FF920F931F937C010E94E7
:101AA000310C8C01C7010E94110C080F191FC801CD
:101AB0001F910F91FF90EF900895AF92BF92CF9238
:101AC000DF92EF92FF920F931F93CF93DF935C010E
:101AD0006B01EE24FF24C0E0D0E010C0D501ED91F1
:101AE000FC9100811181C601BE010E94A40D682FE6
:101AF000C501F8010995E80EF91E2196F6018481C9
:101B00009581C817D90750F3C701DF91CF911F9175
:101B10000F91FF90EF90DF90CF90BF90AF9008951E
:101B2000EF92FF920F931F937C010E945D0D8C0139
:101B3000C7010E94110C9C01200F311FC9011F9188
:101B40000F91FF90EF900895FC01848195816817B3
:101B5000790748F40190F081E02D309721F0E60FED
:101B6000F71F8081089580E00895DC01FB01149641
:101B70008D919C911597892B31F461157105A9F010
:101B800090E0808108C00D90BC91A02D6115710579
:101B900029F490E08C91882349F407C0CD010E947C
:101BA0006A009C0190E0232B09F491E0892F0895AD
:101BB0000F931F93CF93DF93EC018B016F5F7F4FE8
:101BC000888199810E944D10009711F480E005C032
:101BD000998388831B830A8381E0DF91CF911F91D2
:101BE0000F910895CF93DF93EC0188819981892B20
:101BF00029F08A819B818617970760F4CE010E94A5
:101C0000D80D882341F08C819D81892B19F4E881BE
:101C1000F981108281E0DF91CF910895EF92FF92D8
:101C20000F931F93CF93DF93EC017B016C817D8138
:101C3000E114F104C1F04115510599F08A01060F34
:101C4000171FB8010E94F20D882369F088819981DD
:101C50002C813D81820F931FB7010E9473001D8369
:101C60000C8381E001C080E0DF91CF911F910F9143
:101C7000FF90EF900895DF93CF9300D0CDB7DEB7FC
:101C800069831A82BE016F5F7F4F41E050E00E947E
:101C90000E0E0F900F90CF91DF910895CF93DF93A9
:101CA000EC0188819981009711F00E94B50F19828B
:101CB00018821D821C821B821A82DF91CF910895A7
:101CC000EF92FF920F931F93CF93DF93EC017B0171
:101CD0008A01BA010E94F20D882321F4CE010E94EC
:101CE0004E0E07C01D830C8388819981B7010E9425
:101CF0007300CE01DF91CF911F910F91FF90EF9074
:101D00000895CF93DF93EC01198218821B821A8207
:101D10001D821C821E826115710551F0DB010D9040
:101D20000020E9F71197A61BB70BAD010E94600ECA
:101D3000DF91CF9108950F931F93182F092F6115ED
:101D4000710559F0DB010D900020E9F71197A61BF2
:101D5000B70BAD010E94600E02C00E944E0E812F93
:101D6000902F1F910F910895BF92CF92DF92EF9223
:101D7000FF920F931F93CF93DF93082FB92E6B0120
:101D80007A01E9012417350710F4EA017901802F5F
:101D90009B2D6FE173E00E94810ED60114968D9108
:101DA0009C9115978E159F05D0F08C179D0708F410
:101DB000EC01D601ED91FC911197EC0FFD1F108104
:101DC00010826D917C916E0D7F1D802F9B2D0E9446
:101DD0009B0ED601ED91FC91EC0FFD1F1083802F1F
:101DE0009B2DDF91CF911F910F91FF90EF90DF908E
:101DF000CF90BF900895CF93DF93EC01FB0186173E
:101E0000970761F0608171816115710529F0448146
:101E100055810E94600E02C00E944E0ECE01DF91DD
:101E2000CF910895FC01808191810E94B50F0895A2
:101E30000F931F93CF93DF93BC018230910510F471
:101E400062E070E0E0910F04F091100440E050E097
:101E5000A0E0B0E024C08081918186179707D0F080
:101E60008617970771F482819381109729F0139652
:101E70009C938E9312972CC09093100480930F0420
:101E800027C04115510519F08417950718F48D01E5
:101E9000AC01EF01DF01828193819C01F901309750
:101EA000D1F641155105F9F0CA01861B970B843014
:101EB000910580F48A819B810115110521F0F801BB
:101EC0009383828304C09093100480930F04FE01D7
:101ED000329645C0FE01E80FF91F61937193029796
:101EE000998388833CC080910D0490910E04892BC6
:101EF00041F4809122039091230390930E048093E8
:101F00000D0440912403509125034115510541F4DE
:101F10004DB75EB78091200390912103481B590B68
:101F200020910D0430910E0424173507B0F4CA0136
:101F3000821B930B8617970780F0AB014E5F5F4FB4
:101F40008417950750F0420F531F50930E0440938F
:101F50000D04F9016193719302C0E0E0F0E0CF015C
:101F6000DF91CF911F910F910895CF93DF939C0143
:101F7000009709F48FC0EC0122971B821A826091AE
:101F80000F04709110046115710581F488819981A5
:101F9000820F931F20910D0430910E0428173907EA
:101FA00039F5D0930E04C0930D0474C0DB0140E0FA
:101FB00050E0AC17BD0708F1BB83AA83FE01219155
:101FC0003191E20FF31FAE17BF0779F48D919C9109
:101FD0001197280F391F2E5F3F4F398328831296A0
:101FE0008D919C9113979B838A834115510571F4C0
:101FF000D0931004C0930F044DC012968D919C9104
:102000001397AD01009711F0DC01D3CFDA011396DD
:10201000DC93CE931297FA0121913191E20FF31FD5
:10202000CE17DF0769F488819981280F391F2E5F49
:102030003F4FFA01318320838A819B81938382837E
:10204000E0E0F0E0DB0112968D919C9113970097F0
:1020500019F0BC01FD01F6CFAB014E5F5F4FDB0114
:102060008D919C91840F951F20910D0430910E0449
:102070002817390779F4309729F410921004109238
:102080000F0402C0138212824250504050930E043B
:1020900040930D04DF91CF9108956F927F928F92BC
:1020A0009F92AF92BF92CF92DF92EF92FF920F93E7
:1020B0001F93CF93DF938C01009729F4CB010E94EB
:1020C000180F8C01BBC08EEFE82E8FEFF82EE00EBC
:1020D000F11E4801860E971E8E149F0408F4ACC0B2
:1020E000D7014D915C91119746175707B8F04530CD
:1020F000510508F4A3C0CA0104978617970708F48E
:102100009DC042505040461B570BF40141935193E0
:102110006D937C93CF010E94B50F90C05B01A41A10
:10212000B50A3801640E751EA0910F04B091100419
:10213000E0E0F0E0CC24DD2447C0A615B705A9F502
:10214000CD91DC911197CE0102968A159B0568F11D
:10215000CE018A199B09029612962C91129713961A
:102160003C91059758F0F40122833383CA19DB09A7
:10217000D183C083D7016D937C9309C04E5F5F4FBD
:102180004C0F5D1FF70151834083C901FC01C1144D
:10219000D10431F0D6011396FC93EE9312974EC002
:1021A000F0931004E0930F0449C08D919C91119716
:1021B000E817F90708F4FC016D0112968C9112974B
:1021C00013969C919C01D901109709F0B6CF80918C
:1021D0000D0490910E0486159705E9F4E617F707AC
:1021E000D0F420912403309125032115310541F4C9
:1021F0002DB73EB78091200390912103281B390B06
:1022000082169306C8F490920E0480920D04F70192
:102210007183608313C0CB010E94180FEC010097FB
:1022200059F0D7014D915C91B8010E946100C8013D
:102230000E94B50F8E0102C000E010E0C801DF91DE
:10224000CF911F910F91FF90EF90DF90CF90BF90B3
:10225000AF909F908F907F906F9008955058BB27BC
:10226000AA270ED071C162D130F067D120F031F4CD
:102270009F3F11F41EF457C10EF4E095E7FB4DC1EA
:10228000E92F73D180F3BA176207730784079507A4
:1022900018F071F49EF58BC10EF4E0950B2EBA2F59
:1022A000A02D0B01B90190010C01CA01A00111245C
:1022B000FF27591B99F0593F50F4503E68F11A1608
:1022C000F040A22F232F342F4427585FF3CF469599
:1022D00037952795A795F0405395C9F77EF41F16BB
:1022E000BA0B620B730B840BBAF09150A1F0FF0F85
:1022F000BB1F661F771F881FC2F70EC0BA0F621F71
:10230000731F841F48F4879577956795B795F79560
:102310009E3F08F0B3CF9395880F08F09927EE0FF2
:102320009795879508950CD00FC107D140F0FED046
:1023300030F021F45F3F19F0F0C0511139C1F3C002
:1023400014D198F39923C9F35523B1F3951B550B79
:10235000BB27AA2762177307840738F09F5F5F4F78
:10236000220F331F441FAA1FA9F333D00E2E3AF0B9
:10237000E0E830D091505040E695001CCAF729D0D3
:10238000FE2F27D0660F771F881FBB1F2617370722
:102390004807AB07B0E809F0BB0B802DBF01FF2752
:1023A00093585F4F2AF09E3F510568F0B6C000C1B8
:1023B0005F3FECF3983EDCF3869577956795B7958C
:1023C000F7959F5FC9F7880F911D9695879597F9A7
:1023D0000895E1E0660F771F881FBB1F6217730720
:1023E0008407BA0720F0621B730B840BBA0BEE1F35
:1023F00088F7E095089504D06894B111D9C0089584
:10240000BCD088F09F5790F0B92F9927B751A0F012
:10241000D1F0660F771F881F991F1AF0BA95C9F778
:1024200012C0B13081F0C3D0B1E00895C0C0672FB1
:10243000782F8827B85F39F0B93FCCF38695779528
:102440006795B395D9F73EF4909580957095619511
:102450007F4F8F4F9F4F0895E89409C097FB3EF43C
:1024600090958095709561957F4F8F4F9F4F9923E1
:10247000A9F0F92F96E9BB279395F695879577955F
:102480006795B795F111F8CFFAF4BB0F11F460FF1F
:102490001BC06F5F7F4F8F4F9F4F16C0882311F077
:1024A00096E911C0772321F09EE8872F762F05C08B
:1024B000662371F096E8862F70E060E02AF09A9526
:1024C000660F771F881FDAF7880F9695879597F91B
:1024D0000895990F0008550FAA0BE0E8FEEF1616B5
:1024E0001706E807F907C0F012161306E407F50708
:1024F00098F0621B730B840B950B39F40A2661F07C
:10250000232B242B252B21F408950A2609F4A1401E
:10251000A6958FEF811D811D089597F99F6780E82B
:1025200070E060E008959FEF80EC089500240A9425
:102530001616170618060906089500240A9412169E
:102540001306140605060895092E0394000C11F4D1
:10255000882352F0BB0F40F4BF2B11F460FF04C07E
:102560006F5F7F4F8F4F9F4F089557FD9058440FD7
:10257000551F59F05F3F71F04795880F97FB991FE2
:1025800061F09F3F79F0879508951216130614069F
:10259000551FF2CF4695F1DF08C01616170618062C
:1025A000991FF1CF86957105610508940895E89407
:1025B000BB2766277727CB0197F908958ADF08F4B0
:1025C0008FEF0895629FD001739FF001829FE00D0D
:1025D000F11D649FE00DF11D929FF00D839FF00DA2
:1025E000749FF00D659FF00D9927729FB00DE11D4E
:1025F000F91F639FB00DE11DF91FBD01CF0111242B
:102600000895A1E21A2EAA1BBB1BFD010DC0AA1F33
:10261000BB1FEE1FFF1FA217B307E407F50720F04B
:10262000A21BB30BE40BF50B661F771F881F991FC6
:102630001A9469F760957095809590959B01AC010F
:10264000BD01CF01089597FB092E05260ED057FD39
:1026500004D0D7DF0AD0001C38F45095409530954F
:1026600021953F4F4F4F5F4F0895F6F79095809516
:10267000709561957F4F8F4F9F4F0895EE0FFF1F0D
:102680000590F491E02D09942F923F924F925F9222
:102690006F927F928F929F92AF92BF92CF92DF9272
:1026A000EF92FF920F931F93CF93DF93CDB7DEB7D7
:1026B000CA1BDB0B0FB6F894DEBF0FBECDBF09946B
:1026C0002A88398848885F846E847D848C849B84C2
:1026D000AA84B984C884DF80EE80FD800C811B81D0
:1026E000AA81B981CE0FD11D0FB6F894DEBF0FBEFF
:1026F000CDBFED01089510E0CCE6D0E004C0FE01AE
:102700000E9440132296CE36D107C9F7F894FFCF26
:10271000312E302E366100484800526561647900E0
:1027200025346C640025356C64002531306C7500EF
:10273000495F7261773A2000565F7261773A2000F4
:102740004E5F7261773A2000566F6C74735F52501F
:102750004D3A20005663633A200000444400414152
:102760000044656275673A204F6E00446562756784
:102770003A204F666600444100563A20003B200054
:10278000493A20004E3A2000503A2000743A200086
:102790002C007B000922766F6C74616765223A20F9
:1027A00000092263757272656E74223A2000092254
:1027B00072706D223A20000922706F776572223A9A
:1027C0002000092274696D657374616D70223A206E
:1027D000007D00454F4C004D6561737572656D65F8
:1027E0006E7420426F617264004669726D77617227
:1027F00065202056657273696F6E3A00436F6D6D88
:10280000616E64733A004848203A207072696E74B1
:10281000732074686973206D61737361676500412B
:1028200041203A207072696E7420566F6C742C20AF
:1028300043757272656E742C2052504D2C20506F6F
:1028400077657220616E6420612054696D657374D0
:10285000616D70202873696E6365206C61737420EC
:10286000726573746172742920696E206163747576
:10287000616C20556E69747320285B6D565D2C5B0E
:102880006D415D2C5B312F6D696E5D2C5B6D575D0D
:102890002C5B75735D290020202020204F757470FB
:1028A000757420697320696E204A534F4E2053740B
:1028B000796C65212121004444203A20746F6767B8
:1028C0006C65206465627567206D6F6465206F6E4E
:1028D00020616E64206F6666004441203A20746F68
:1028E00067676C652064656275675F646174612009
:1028F0006D6F6465206F6E20616E64206F66662068
:10290000284E6F204A534F4E206F75747075743B7C
:10291000206A75737420636F6D6D612073657061DB
:102920007261746564206461746100454F48000001
:1029300080001104000000000000420BE70BD80AE1
:06294000090BE90A320B4D
:00000001FF
