:100000000C9437000C9435030C945F000C945F0043
:100010000C945F000C945F000C945F000C945F00E4
:100020000C945F000C945F000C945F000C941B0315
:100030000C945F000C945F000C945F000C945F00C4
:100040000C9441090C945F000C944E0A0C949C0A89
:100050000C945F000C945F000C945F000C945F00A4
:100060000C945F000C945F009603080C8F0311241E
:100070001FBECFEFD8E0DEBFCDBF12E0A0E0B1E001
:10008000E2E1F5E202C005900D92A63EB107D9F774
:1000900013E0A6EEB2E001C01D92A63DB107E1F764
:1000A00010E0CCE6D0E004C02297FE010E94391295
:1000B000C836D107C9F70E945E0C0C947C120C94D0
:1000C0000000FB01DC0102C001900D924150504044
:1000D000D8F70895FB01DC018D9101908019011082
:1000E000D9F3990B0895FB01DC0101900D920020DA
:1000F000E1F70895AEE0B0E0E0E8F0E00C945312D0
:100100000D891E8986E08C831A8309838FEF9FE710
:100110009E838D839E01275E3F4FCE0101966F899E
:10012000788DA9010E949E002F813885020F131F30
:10013000F80110822E96E4E00C946F12ABE0B0E070
:10014000E4EAF0E00C9445123C012B015A01FC0159
:1001500017821682838181FD03C06FEF7FEFC6C1D6
:100160009AE0892E1E010894211C311CF301238181
:10017000F20123FD859123FF81912F01882309F44A
:10018000B2C1853239F423FD859123FF81912F017E
:10019000853229F490E0B3010E949102E7CF982FB5
:1001A000FF24EE249924FFE1FF15D0F09B3269F083
:1001B0009C3228F4903259F0933291F40EC09D3263
:1001C00049F0903369F441E024C052E0F52A84E01C
:1001D000F82A28C098E0F92A25C0E0E1FE2A22C0CA
:1001E000F7FC29C0892F80538A3070F4F6FE05C0D1
:1001F000989C902C1124980E15C0E89CE02C11249A
:10020000E80EF0E2FF2A0EC09E3229F4F6FC6BC124
:1002100040E4F42A07C09C3619F450E8F52A02C0DD
:10022000983649F4F20123FD959123FF91912F0116
:10023000992309F0B8CF892F8554833018F0805264
:10024000833038F444E050E0A40EB51E5FE35983D8
:100250000FC0933631F0933779F0933509F056C0DB
:1002600020C0F5018081898342E050E0A40EB51ED4
:10027000610101E010E012C0F501C080D180F6FC00
:1002800003C06FEF7FEF02C0692D70E042E050E0E5
:10029000A40EB51EC6010E9486028C015FE7F522FE
:1002A00014C0F501C080D180F6FC03C06FEF7FEF72
:1002B00002C0692D70E042E050E0A40EB51EC601F8
:1002C0000E947B028C0150E8F52AF3FE07C01AC099
:1002D00080E290E0B3010E949102EA948E2D90E0BA
:1002E00008171907A8F30EC0F601F7FC8591F7FE71
:1002F00081916F0190E0B3010E949102E110EA94B4
:10030000015010400115110579F7EAC0943611F03B
:10031000993669F5F7FE08C0F501208131814281E7
:10032000538184E090E00AC0F501808191819C01B5
:10033000442737FD4095542F82E090E0A80EB91E67
:100340009FE6F92257FF09C05095409530952195B9
:100350003F4F4F4F5F4FE0E8FE2ACA01B901A101AC
:100360002AE030E00E94BD02D82ED21840C0953756
:1003700029F41F2D1F7E2AE030E01DC01F2D197F9C
:100380009F3661F0903720F4983509F0ACC00FC06B
:10039000903739F0983709F0A6C004C028E030E063
:1003A0000AC0106114FD146020E130E004C014FDA7
:1003B000166020E132E017FF08C0F501608171810D
:1003C0008281938144E050E008C0F50180819181F1
:1003D000BC0180E090E042E050E0A40EB51EA10117
:1003E0000E94BD02D82ED2188FE7F82EF122F6FE19
:1003F0000BC05EEFF522D91438F4F4FE07C0F2FC0E
:1004000005C08FEEF82202C01D2D01C0192DF4FE8B
:100410000DC0FE01ED0DF11D8081803319F499EEC0
:10042000F92208C01F5FF2FE05C003C08F2D867839
:1004300009F01F5F0F2DF3FC14C0F0FE0FC01E1556
:1004400010F09D2C0BC09D2C9E0C911A1E2D06C0E9
:1004500080E290E0B3010E9491021F5F1E15C0F37D
:1004600004C01E1510F4E11A01C0EE2404FF0FC0F1
:1004700080E390E0B3010E94910202FF1DC001FDE4
:1004800003C088E790E00EC088E590E00BC0802FA5
:10049000867891F001FF02C08BE201C080E2F7FC98
:1004A0008DE290E0B3010E94910206C080E390E0EB
:1004B000B3010E9491029A94D914C0F3DA94F10125
:1004C000ED0DF11D808190E0B3010E949102DD20CD
:1004D000A9F706C080E290E0B3010E949102EA947D
:1004E000EE20C1F743CEF30166817781CB012B96D5
:1004F000E2E10C946112FC01059061507040011022
:10050000D8F7809590958E0F9F1F0895FC0161503C
:10051000704001900110D8F7809590958E0F9F1F25
:1005200008950F931F93CF93DF938C01EB018B8181
:1005300081FF1BC082FF0DC02E813F818C819D8178
:100540002817390764F4E881F9810193F983E88376
:1005500006C0E885F985802F0995892B31F48E81B5
:100560009F8101969F838E8302C00FEF1FEFC8010A
:10057000DF91CF911F910F910895FA01AA2728309A
:1005800051F1203181F1E8946F936E7F6E5F7F4F60
:100590008F4F9F4FAF4FB1E03ED0B4E03CD0670FDC
:1005A000781F891F9A1FA11D680F791F8A1F911D2F
:1005B000A11D6A0F711D811D911DA11D20D009F47F
:1005C00068943F912AE0269F11243019305D3193C1
:1005D000DEF6CF010895462F4770405D4193B3E0AA
:1005E0000FD0C9F7F6CF462F4F70405D4A3318F051
:1005F000495D31FD4052419302D0A9F7EACFB4E002
:10060000A6959795879577956795BA95C9F70097B9
:100610006105710508959B01AC010A2E069457955A
:10062000479537952795BA95C9F7620F731F841FB1
:10063000951FA01D08951F920F920FB60F921124BF
:100640008F939F938091090390910A0390930C03D9
:1006500080930B0310920A03109209039F918F91CC
:100660000F900FBE0F901F9018951F920F920FB60C
:100670000F9211248F939F9389B190E088709070AE
:1006800090931A03809319038091190390911A0390
:10069000892B19F081E090E008C0809119039091B6
:1006A0001A03892B39F48FEF9FEF909316038093F1
:1006B000150304C0109216031092150380910903CC
:1006C00090910A03019690930A03809309039F91E6
:1006D0008F910F900FBE0F901F901895813091054C
:1006E00081F46F5F7F4FD1F487EE92E060E071E0BC
:1006F0000E942E0F8AEF92E06AE071E00E942E0FB6
:100700000895892B59F46F5F7F4F41F48AEF92E08F
:100710000E94BF0F87EE92E00E94BF0F089580E015
:1007200090E06FEF7FEF0E946E03089581E090E00C
:100730006FEF7FEF0E946E0308950F931F93579AF8
:1007400010928000A1E8B0E01C92109285001092F7
:100750008400E9E6F0E0808183608083EAE7F0E0EE
:1007600080818460808380818260808380818E7FAD
:10077000808388E08C9381E792E090938900809356
:100780008800789400EB13E0C80140E052EC61E08F
:1007900070E00E94D70AC8016DE071E00E94E30D8D
:1007A0001F910F910895E89A109216031092150365
:1007B00010920A03109209030E94890960930D03A5
:1007C00070930E0380930F03909310035F9AEAC017
:1007D0008BB11BB880911503909116039093180369
:1007E00080931703209117033091180380911B0306
:1007F00090911C0340911D0350911E032817390747
:10080000C1F048305105ACF480911D0390911E0356
:10081000019690931E0380931D038091170390917E
:100820001803909581959F4F909318038093170319
:1008300016C0209117033091180380911B039091EB
:100840001C0340911D0350911E032817390739F0EE
:100850004830510524F010921E0310921D03809120
:100860001703909118038F5F9F4F69F080911703D2
:1008700090911803019739F0809117039091180314
:10088000892B09F0A4C0609117037091180320917F
:10089000090330910A03882777FD8095982F442714
:1008A00037FD4095542F0E94DB1120EB3DE240E0E4
:1008B00050E00E94DB116093110370931203809348
:1008C0001303909314031DBA8091E602882371F1FB
:1008D0006091090370910A0380EB93E04AE050E0D5
:1008E0000E94AE0D80EB93E063E171E00E94E00DA9
:1008F000609117037091180380EB93E04AE050E099
:100900000E94AE0D80EB93E063E171E00E94E00D88
:1009100040911103509112036091130370911403DD
:1009200080EB93E02AE030E00E949A0D10920A03D7
:1009300010920903809117039091180390931C0360
:1009400080931B0310920D0310920E0310920F035D
:100950001092100314C00E94890920910D03309158
:100960000E0340910F0350911003621B730B840B15
:10097000950B685873418040904008F029CF0E9441
:10098000890920910D0330910E0340910F0350917E
:100990001003621B730B840B950B605777418040EB
:1009A0009040A8F40E94890920910D0330910E0314
:1009B00040910F0350911003621B730B840B950B36
:1009C00069557B418040904008F4C5CF089520913F
:1009D0001103309112034091130350911403B90194
:1009E000CA010895EF92FF920F931F938EE48093B4
:1009F0007C0062E070E080E090E00E94AF098091AE
:100A00007A00806480937A0080917A0086FDFCCF22
:100A10008091780090E0A0E0B0E060917900362FFE
:100A200020E0442737FD4095542F282B392B4A2BA3
:100A30005B2B60ED7FE581E190E00E941C12122F9C
:100A4000032FF42EE52E8091E602882381F080EBBF
:100A500093E066E171E00E94E00D80EB93E0412FAE
:100A6000502F6F2D7E2D2AE030E00E949A0D612FCD
:100A7000702F8F2D9E2D1F910F91FF90EF90089555
:100A8000EF92FF920F931F93DF93CF9300D000D08C
:100A900000D0CDB7DEB77C018DB79EB708970FB6F3
:100AA000F8949EBF0FBE8DBFEDB7FEB731968E0195
:100AB0000F5F1F4FADB7BEB712961C930E931197E1
:100AC0008CE191E0938382834483558366837783AB
:100AD0000E947A008DB79EB708960FB6F8949EBF15
:100AE0000FBE8DBFC701B8010E942E0FC701269609
:100AF0000FB6F894DEBF0FBECDBFCF91DF911F912F
:100B00000F91FF90EF900895EF92FF920F931F9334
:100B1000DF93CF93CDB7DEB727970FB6F894DEBF3C
:100B20000FBECDBF7C018DB79EB708970FB6F89466
:100B30009EBF0FBE8DBFEDB7FEB731968E010F5F22
:100B40001F4FADB7BEB712961C930E93119781E25B
:100B500091E09383828344835583668377830E94E5
:100B60007A008DB79EB708960FB6F8949EBF0FBE59
:100B70008DBFC701B8010E942E0FC70127960FB67F
:100B8000F894DEBF0FBECDBFCF91DF911F910F91C3
:100B9000FF90EF900895EF92FF920F931F93DF93D2
:100BA000CF93CDB7DEB72C970FB6F894DEBF0FBE4C
:100BB000CDBF7C018DB79EB708970FB6F8949EBF46
:100BC0000FBE8DBFEDB7FEB731968E010F5F1F4F81
:100BD000ADB7BEB712961C930E93119786E291E0C3
:100BE0009383828344835583668377830E947A004C
:100BF0008DB79EB708960FB6F8949EBF0FBE8DBFF7
:100C0000C701B8010E942E0FC7012C960FB6F894A9
:100C1000DEBF0FBECDBFCF91DF911F910F91FF902F
:100C2000EF900895EF92FF920F931F93DF93CF936E
:100C3000CDB7DEB72C970FB6F894DEBF0FBECDBF91
:100C40007C018DB79EB708970FB6F8949EBF0FBE74
:100C50008DBFEDB7FEB731968E010F5F1F4FADB759
:100C6000BEB712961C930E9311978CE291E093837A
:100C7000828344835583668377830E947A008DB78D
:100C80009EB708960FB6F8949EBF0FBE8DBFC701E2
:100C9000B8010E942E0FC7012C960FB6F894DEBF44
:100CA0000FBECDBFCF91DF911F910F91FF90EF90BD
:100CB0000895EF92FF920F931F93CF93DF93EC0170
:100CC0007A018B018091E602882369F080EB93E042
:100CD00066E471E00E94E00D80EB93E0BE014AE023
:100CE00050E00E94C10D9E01442737FD4095542FCE
:100CF000C801B7010E94DB1120E034E040E050E081
:100D00000E941C12CA01B901DF91CF911F910F916E
:100D1000FF90EF900895EF92FF920F931F93CF9360
:100D2000DF93EC017A018B018091E602882369F060
:100D300080EB93E06EE471E00E94E00D80EB93E0C5
:100D4000BE014AE050E00E94C10DBE01882777FD38
:100D50008095982FA80197010E94DB119B01AC019F
:100D6000F2E0660F771F881F991FFA95D1F7620F7F
:100D7000731F841F951F20E034E040E050E00E9484
:100D80001C12CA01B901DF91CF911F910F91FF9001
:100D9000EF90089581E480937C0080917A00806CCC
:100DA00080937A008CED95E00E94080A80917A0089
:100DB00086FDFCCF2091780030E040917900942F9F
:100DC00080E0282B392BC901089580E480937C00B2
:100DD00080917A00806C80937A008CED95E00E947F
:100DE000080A80917A0086FDFCCF2091780030E0DF
:100DF00040917900942F80E0282B392BC901089568
:100E0000EF92FF920F931F93DF93CF93CDB7DEB78F
:100E1000AA970FB6F894DEBF0FBECDBF80EB93E06C
:100E20000E945E0B18161906ACF58AEF92E066E593
:100E300071E00E94480F0FC080EB93E00E948F0B7F
:100E4000682F8AEF92E00E94E80E6AE070E080E08E
:100E500090E00E94AF0980EB93E00E945E0B1816B1
:100E6000190654F38E010F5F1F4FC8016AEF72E03D
:100E700040E050E022E030E00E94610F8AEF92E013
:100E8000B8010E94A80FC8010E94BF0F8AEF92E02C
:100E90000E944E0E8AEF92E067E571E00E94620EBA
:100EA0008823F1F090E08091E602882309F491E034
:100EB0009093E6028AEF92E06AE571E00E94480FA3
:100EC0008091E602882329F080EB93E06DE571E0E4
:100ED00004C080EB93E067E671E00E94E30DC4C1BB
:100EE0008AEF92E06AE571E00E94620E882309F4BD
:100EF00075C10E948909609305037093060380936E
:100F00000703909308030E94F2047B018C010E9466
:100F1000E506B801A7010E948B066093EE0270936C
:100F2000EF028093F0029093F1020E94CA06B8018A
:100F3000A7010E9459066093F2027093F302809316
:100F4000F4029093F5020E94D3036093F60270932B
:100F5000F7028093F8029093F90210920A0310921C
:100F600009036091F2027091F3028091F402909172
:100F7000F5022091EE023091EF024091F002509183
:100F8000F1020E94DB1128EE33E040E050E00E94C5
:100F90001C122093010330930203409303035093E8
:100FA00004038091E602882309F0B5C080EB93E04A
:100FB00062E771E00E94E30D80EB93E064E771E08B
:100FC0000E94E00D8E01085F1F4F4091EE0250918C
:100FD000EF026091F0027091F102C8010E94840555
:100FE00080EB93E0B8010E94F60DC8010E94BF0F8C
:100FF00080EB93E061E871E00E94E30D80EB93E009
:1010000063E871E00E94E00D8E01015F1F4F409187
:10101000F2025091F3026091F4027091F502C8015E
:101020000E94400580EB93E0B8010E94F60DC801D4
:101030000E94BF0F80EB93E061E871E00E94E30D36
:1010400080EB93E060E971E00E94E00D8E010A5EA2
:101050001F4F4091F6025091F7026091F802709193
:10106000F902C8010E94CB0580EB93E0B8010E9411
:10107000F60DC8010E94BF0F80EB93E061E871E0BC
:101080000E94E30D80EB93E069E971E00E94E00DBE
:101090008E01035E1F4F4091010350910203609146
:1010A000030370910403C8010E94400580EB93E0A4
:1010B000B8010E94F60DC8010E94BF0F80EB93E0BB
:1010C00061E871E00E94E30D80EB93E064EA71E077
:1010D0000E94E00D409105035091060360910703C3
:1010E000709108038E010C5D1F4FC8010E9412060B
:1010F00080EB93E0B8010E94290EC8010E94BF0F47
:1011000080EB93E063EB71E00E94E30D80EB93E0F2
:1011100065EB71E0E2CE80EB93E069EB71E00E9459
:10112000E00D4091EE025091EF026091F00270915B
:10113000F10280EB93E02AE030E00E945A0D80EB50
:1011400093E06DEB71E00E94E00D80EB93E060ECCA
:1011500071E00E94E00D4091F2025091F302609123
:10116000F4027091F50280EB93E02AE030E00E94F7
:101170005A0D80EB93E06DEB71E00E94E00D80EB87
:1011800093E064EC71E00E94E00D4091F602509112
:10119000F7026091F8027091F90280EB93E02AE087
:1011A00030E00E945A0D80EB93E06DEB71E00E94FD
:1011B000E00D80EB93E068EC71E00E94E00D40915F
:1011C000050350910603609107037091080380EBBB
:1011D00093E02AE030E00E94460D46C08AEF92E09C
:1011E0006AE071E00E94620E8823B9F180EB93E01F
:1011F0006CEC71E00E94E30D80EB93E06EED71E02A
:101200000E94E00D80EB93E067EE72E00E94290EF1
:1012100080EB93E061EF71E00E94E30D80EB93E0DF
:101220006BEF71E00E94E30D80EB93E064E172E00C
:101230000E94E30D80EB93E06CE872E00E94E30D06
:1012400080EB93E06CEA72E00E94E30D8AEF92E09B
:1012500066E571E00E94480F07C08AEF92E066E5FC
:1012600071E00E94480F1DBAAA960FB6F894DEBF2F
:101270000FBECDBFCF91DF911F910F91FF90EF90E7
:1012800008951F920F920FB60F9211242F933F9340
:101290008F939F93AF93BF938091230390912403E7
:1012A000A0912503B0912603309127030196A11D3B
:1012B000B11D232F2D5F2D3720F02D570196A11D35
:1012C000B11D209327038093230390932403A093BD
:1012D0002503B093260380911F0390912003A091D2
:1012E0002103B09122030196A11DB11D80931F031C
:1012F00090932003A0932103B0932203BF91AF9159
:101300009F918F913F912F910F900FBE0F901F9043
:1013100018959FB7F89420911F03309120034091B6
:1013200021035091220386B5A89B06C08F3F21F070
:101330002F5F3F4F4F4F5F4F9FBF542F432F322F91
:101340002227280F311D411D511D82E0220F331F1E
:10135000441F551F8A95D1F7B901CA0108959B0111
:10136000AC017FB7F89480911F0390912003A09166
:101370002103B091220366B5A89B05C06F3F19F009
:101380000196A11DB11D7FBFBA2FA92F982F8827C5
:10139000860F911DA11DB11D62E0880F991FAA1F24
:1013A000BB1F6A95D1F7BC012DC0FFB7F89480919F
:1013B0001F0390912003A0912103B0912203E6B571
:1013C000A89B05C0EF3F19F00196A11DB11DFFBFFD
:1013D000BA2FA92F982F88278E0F911DA11DB11DFF
:1013E000E2E0880F991FAA1FBB1FEA95D1F7861B61
:1013F000970B885E9340C8F22150304040405040E7
:1014000068517C4F211531054105510571F608954C
:10141000019739F0880F991F880F991F029701973C
:10142000F1F70895789484B5826084BD84B58160B5
:1014300084BD85B5826085BD85B5816085BDEEE6DC
:10144000F0E0808181608083E1E8F0E010828081BB
:1014500082608083808181608083E0E8F0E0808129
:1014600081608083E1EBF0E0808184608083E0EB49
:10147000F0E0808181608083EAE7F0E08081846031
:10148000808380818260808380818160808380818D
:10149000806880831092C100089508951F920F9272
:1014A0000FB60F9211242F933F934F938F939F93D7
:1014B000EF93FF938091C00082FD1DC04091C60054
:1014C00020916803309169032F5F3F4F2F73307075
:1014D00080916A0390916B032817390771F0E091AE
:1014E0006803F0916903E85DFC4F40833093690322
:1014F0002093680302C08091C600FF91EF919F91F5
:101500008F914F913F912F910F900FBE0F901F9091
:101510001895E091BC03F091BD03E05CFF4F819111
:10152000919120813181821B930B8F739070892B55
:1015300011F00E944D0A08951F920F920FB60F925C
:1015400011242F933F938F939F93EF93FF932091B9
:10155000AC033091AD038091AE039091AF03281797
:10156000390731F48091C1008F7D8093C10014C090
:10157000E091AE03F091AF03E459FC4F20818091DC
:10158000AE039091AF0301968F7390709093AF0369
:101590008093AE032093C600FF91EF919F918F91AE
:1015A0003F912F910F900FBE0F901F901895AF9203
:1015B000BF92DF92EF92FF920F931F93CF93DF932F
:1015C000EC017A018B01DD24403081EE580780E088
:1015D000680780E0780711F0DD24D39491E0A92E0C
:1015E000B12CEC89FD89DD2069F0C50108A002C09D
:1015F000880F991F0A94E2F7808360E079E08DE319
:1016000090E005C0108260E874E88EE190E0A801E7
:1016100097010E94FA1121503040404050405695A9
:1016200047953795279580E12030380720F0DD2059
:1016300011F0DD24D6CFE889F9893083EA89FB8966
:10164000208319A2EE89FF89408121E030E0C901A1
:101650000C8C02C0880F991F0A94E2F7482B408334
:10166000EE89FF894081C9010D8C02C0880F991F46
:101670000A94E2F7482B4083EE89FF894081C90133
:101680000E8C02C0880F991F0A94E2F7482B408302
:10169000EE89FF8980810F8C02C0220F331F0A94CC
:1016A000E2F7209528232083DF91CF911F910F919E
:1016B000FF90EF90DF90BF90AF900895DC011C96F3
:1016C000ED91FC911D97E05CFF4F2191319180815C
:1016D0009181281B390B2F733070C9010895DC01EB
:1016E0001C96ED91FC911D97E05CFF4F20813181AC
:1016F000E054F040DF01AE5BBF4F8D919C9111979C
:101700002817390719F42FEF3FEF07C08D919C91EF
:10171000E80FF91F8081282F30E0C9010895DC010E
:101720001C96ED91FC911D97E05CFF4F208131816B
:10173000E054F040DF01AE5BBF4F8D919C9111975B
:101740002817390719F42FEF3FEF10C08D919C91A6
:101750001197E80FF91F20818D919C9111970196A7
:101760008F73907011969C938E9330E0C901089509
:10177000DC0191968C919197882339F05496ED91E4
:10178000FC915597808186FFF9CF91961C92089520
:10179000CF93DF93EC01EE85FF85E05CFF4F208166
:1017A0003181E054F0402F5F3F4F2F733070DF01E5
:1017B000AE5BBF4F8D919C91119728173907D1F3DC
:1017C000E05CFF4F80819181E054F040E80FF91F09
:1017D0006083EE85FF85E05CFF4F31832083EE89D7
:1017E000FF89208181E090E00F8C02C0880F991F53
:1017F0000A94E2F7282B208381E089A3EC89FD89F4
:1018000080818064808381E090E0DF91CF910895B2
:101810001092B3031092B20388EE93E0A0E0B0E020
:101820008093B4039093B503A093B603B093B7032A
:1018300089ED92E09093B1038093B00388E293E046
:101840009093BD038093BC038CE693E09093BF0319
:101850008093BE0385EC90E09093C1038093C00316
:1018600084EC90E09093C3038093C20380EC90E0FB
:101870009093C5038093C40381EC90E09093C703D9
:101880008093C60382EC90E09093C9038093C803D1
:1018900086EC90E09093CB038093CA0384E080931E
:1018A000CC0383E08093CD0387E08093CE0385E073
:1018B0008093CF0381E08093D0030895CF93DF938B
:1018C0000E94120A0E949D03C9E8DAE00E94000704
:1018D0002097E1F30E94890AF9CFCF92DF92EF922D
:1018E000FF920F931F93CF93DF937C016B018A01CB
:1018F000C0E0D0E00FC0D6016D916D01D701ED9130
:10190000FC910190F081E02DC7010995C80FD91F06
:10191000015010400115110571F7CE01DF91CF91F3
:101920001F910F91FF90EF90DF90CF900895EF926D
:10193000FF920F931F938C01DC01ED91FC910190BC
:10194000F081E02D6DE009957C01D801ED91FC91CD
:101950000190F081E02DC8016AE009959C012E0DEF
:101960003F1DC9011F910F91FF90EF900895CF93F4
:10197000DF93EC016115710519F420E030E00FC030
:10198000DB010D900020E9F71197A61BB70BE8814A
:10199000F9810280F381E02DAD0109959C01C90117
:1019A000DF91CF9108954F925F927F928F929F9295
:1019B000AF92BF92CF92DF92EF92FF920F931F935D
:1019C000DF93CF93CDB7DEB7A1970FB6F894DEBF04
:1019D0000FBECDBF2C01742ECB01223008F42AE0BB
:1019E00019A231E2C32ED12CCC0EDD1E822E9924F9
:1019F000AA24BB24672D752FA50194010E94FA111A
:101A000079018A01C801B701A50194010E94DB1187
:101A1000472D461B0894C108D1084A3014F4405D94
:101A200001C0495CF6014083E114F1040105110590
:101A300021F07E2C5F2DC801DDCFC201B6010E94CE
:101A4000B70CA1960FB6F894DEBF0FBECDBFCF91F5
:101A5000DF911F910F91FF90EF90DF90CF90BF909B
:101A6000AF909F908F907F905F904F900895DC0192
:101A70002115310541F4ED91FC910190F081E02DAB
:101A8000642F099508950E94D30C0895EF92FF9258
:101A90000F931F937C010E94370D8C01C7010E9498
:101AA000970C9C01200F311FC9011F910F91FF90CE
:101AB000EF900895CF92DF92EF92FF920F931F93D2
:101AC000CF93DF93EC016A017B012115310541F4CD
:101AD000E881F9810190F081E02D642F09951FC004
:101AE0002A303105D1F477FF17C0E881F9810190E0
:101AF000F081E02D6DE209958C0144275527BA014C
:101B00004C195D096E097F09CE012AE00E94D30CB1
:101B10009801280F391F04C02AE00E94D30C9C01B1
:101B2000C901DF91CF911F910F91FF90EF90DF904E
:101B3000CF900895EF92FF920F931F937C010E9424
:101B40005A0D8C01C7010E94970C9C01200F311F78
:101B5000C9011F910F91FF90EF900895EF92FF92AE
:101B60000F931F937B019A010027F7FC0095102F1C
:101B7000B801A7010E945A0D1F910F91FF90EF909D
:101B80000895CF92DF92EF92FF920F931F936C0113
:101B90007B019A010027F7FC0095102FB801A701DF
:101BA0000E945A0D8C01C6010E94970C080F191F44
:101BB000C8011F910F91FF90EF90DF90CF90089593
:101BC0000E94B70C0895EF92FF920F931F937C0130
:101BD0000E94B70C8C01C7010E94970C080F191FB7
:101BE000C8011F910F91FF90EF900895AF92BF929F
:101BF000CF92DF92EF92FF920F931F93CF93DF93D9
:101C00005C016B01EE24FF24C0E0D0E010C0D501E0
:101C1000ED91FC9100811181C601BE010E943D0E33
:101C2000682FC501F8010995E80EF91E2196F60105
:101C300084819581C817D90750F3C701DF91CF91EF
:101C40001F910F91FF90EF90DF90CF90BF90AF90DA
:101C50000895EF92FF920F931F937C010E94F60D5F
:101C60008C01C7010E94970C9C01200F311FC901F4
:101C70001F910F91FF90EF900895FC018481958151
:101C80006817790748F40190F081E02D309721F032
:101C9000E60FF71F8081089580E00895CF93DF93CA
:101CA000FC01C081D181209739F409C0992787FDB3
:101CB00090950E943D12899388818823B9F7DF911E
:101CC000CF910895DC01FB0114968D919C9115979D
:101CD000892B31F461157105A9F090E0808108C06D
:101CE0000D90BC91A02D6115710529F490E08C91A7
:101CF000882349F407C0CD010E946A009C0190E04E
:101D0000232B09F491E0892F08950F931F93CF930C
:101D1000DF93EC018B016F5F7F4F888199810E9477
:101D2000FA10009711F480E005C0998388831B8323
:101D30000A8381E0DF91CF911F910F910895CF9396
:101D4000DF93EC0188819981892B29F08A819B811D
:101D50008617970760F4CE010E94850E882341F014
:101D60008C819D81892B19F4E881F981108281E0B1
:101D7000DF91CF910895EF92FF920F931F93CF932E
:101D8000DF93EC017B016C817D81E114F104C1F0F2
:101D90004115510599F08A01060F171FB8010E94DD
:101DA0009F0E882369F0888199812C813D81820F63
:101DB000931FB7010E9473001D830C8381E001C053
:101DC00080E0DF91CF911F910F91FF90EF900895E8
:101DD000DF93CF9300D0CDB7DEB769831A82BE01FF
:101DE0006F5F7F4F41E050E00E94BB0E0F900F905D
:101DF000CF91DF910895CF93DF93EC018881998192
:101E0000009711F00E946210198218821D821C82B4
:101E10001B821A82DF91CF910895EF92FF920F9368
:101E20001F93CF93DF93EC017B018A01BA010E94DB
:101E30009F0E882321F4CE010E94FB0E07C01D8354
:101E40000C8388819981B7010E947300CE01DF91D4
:101E5000CF911F910F91FF90EF900895CF93DF9353
:101E6000EC01198218821B821A821D821C821E823A
:101E70006115710551F0DB010D900020E9F7119714
:101E8000A61BB70BAD010E940D0FDF91CF910895F6
:101E90000F931F93182F092F6115710559F0DB015E
:101EA0000D900020E9F71197A61BB70BAD010E941A
:101EB0000D0F02C00E94FB0E812F902F1F910F91DA
:101EC0000895BF92CF92DF92EF92FF920F931F93EC
:101ED000CF93DF93082FB92E6B017A01E901241704
:101EE000350710F4EA017901802F9B2D6EEC72E02A
:101EF0000E942E0FD60114968D919C9115978E15E8
:101F00009F05D0F08C179D0708F4EC01D601ED91E8
:101F1000FC911197EC0FFD1F108110826D917C9147
:101F20006E0D7F1D802F9B2D0E94480FD601ED91D5
:101F3000FC91EC0FFD1F1083802F9B2DDF91CF9123
:101F40001F910F91FF90EF90DF90CF90BF90089579
:101F5000CF93DF93EC01FB018617970761F0608157
:101F600071816115710529F0448155810E940D0F21
:101F700002C00E94FB0ECE01DF91CF910895FC01BB
:101F8000808191810E94621008950F931F93CF93D7
:101F9000DF93BC018230910510F462E070E0E091C3
:101FA000D403F091D50340E050E0A0E0B0E024C0BD
:101FB0008081918186179707D0F08617970771F473
:101FC00082819381109729F013969C938E93129798
:101FD0002CC09093D5038093D40327C0411551059D
:101FE00019F08417950718F48D01AC01EF01DF019A
:101FF000828193819C01F9013097D1F641155105F9
:10200000F9F0CA01861B970B8430910580F48A8110
:102010009B810115110521F0F8019383828304C08F
:102020009093D5038093D403FE01329645C0FE0100
:10203000E80FF91F619371930297998388833CC0DD
:102040008091D2039091D303892B41F48091D102E6
:102050009091D2029093D3038093D2034091D30204
:102060005091D4024115510541F44DB75EB78091AE
:10207000CF029091D002481B590B2091D20330918E
:10208000D30324173507B0F4CA01821B930B8617BC
:10209000970780F0AB014E5F5F4F8417950750F0B4
:1020A000420F531F5093D3034093D203F90161931E
:1020B000719302C0E0E0F0E0CF01DF91CF911F917A
:1020C0000F910895CF93DF939C01009709F48FC07F
:1020D000EC0122971B821A826091D4037091D50380
:1020E0006115710581F488819981820F931F209178
:1020F000D2033091D3032817390739F5D093D3038E
:10210000C093D20374C0DB0140E050E0AC17BD07C0
:1021100008F1BB83AA83FE0121913191E20FF31FE5
:10212000AE17BF0779F48D919C911197280F391F35
:102130002E5F3F4F3983288312968D919C91139780
:102140009B838A834115510571F4D093D503C093C5
:10215000D4034DC012968D919C911397AD010097B9
:1021600011F0DC01D3CFDA011396DC93CE931297F2
:10217000FA0121913191E20FF31FCE17DF0769F4C5
:1021800088819981280F391F2E5F3F4FFA013183D3
:1021900020838A819B8193838283E0E0F0E0DB01EE
:1021A00012968D919C911397009719F0BC01FD0137
:1021B000F6CFAB014E5F5F4FDB018D919C91840F99
:1021C000951F2091D2033091D3032817390779F452
:1021D000309729F41092D5031092D40302C01382D1
:1021E0001282425050405093D3034093D203DF9168
:1021F000CF9108956F927F928F929F92AF92BF92EC
:10220000CF92DF92EF92FF920F931F93CF93DF93C2
:102210008C01009729F4CB010E94C50F8C01BBC033
:102220008EEFE82E8FEFF82EE00EF11E4801860E9D
:10223000971E8E149F0408F4ACC0D7014D915C9199
:10224000119746175707B8F04530510508F4A3C059
:10225000CA0104978617970708F49DC04250504062
:10226000461B570BF401419351936D937C93CF011F
:102270000E94621090C05B01A41AB50A3801640E76
:10228000751EA091D403B091D503E0E0F0E0CC241A
:10229000DD2447C0A615B705A9F5CD91DC911197AE
:1022A000CE0102968A159B0568F1CE018A199B0919
:1022B000029612962C91129713963C91059758F01E
:1022C000F40122833383CA19DB09D183C083D70188
:1022D0006D937C9309C04E5F5F4F4C0F5D1FF701FC
:1022E00051834083C901FC01C114D10431F0D601EE
:1022F0001396FC93EE9312974EC0F093D503E093A0
:10230000D40349C08D919C911197E817F90708F4FF
:10231000FC016D0112968C91129713969C919C0171
:10232000D901109709F0B6CF8091D2039091D303D1
:1023300086159705E9F4E617F707D0F42091D30244
:102340003091D4022115310541F42DB73EB780916B
:10235000CF029091D002281B390B82169306C8F445
:102360009092D3038092D203F7017183608313C0EC
:10237000CB010E94C50FEC01009759F0D7014D9198
:102380005C91B8010E946100C8010E9462108E0138
:1023900002C000E010E0C801DF91CF911F910F91C2
:1023A000FF90EF90DF90CF90BF90AF909F908F9075
:1023B0007F906F900895629FD001739FF001829F7C
:1023C000E00DF11D649FE00DF11D929FF00D839FC4
:1023D000F00D749FF00D659FF00D9927729FB00D61
:1023E000E11DF91F639FB00DE11DF91FBD01CF0174
:1023F00011240895A1E21A2EAA1BBB1BFD010DC0DA
:10240000AA1FBB1FEE1FFF1FA217B307E407F507A4
:1024100020F0A21BB30BE40BF50B661F771F881F80
:10242000991F1A9469F760957095809590959B0116
:10243000AC01BD01CF01089597FB092E05260ED0F2
:1024400057FD04D0D7DF0AD0001C38F450954095D2
:10245000309521953F4F4F4F5F4F0895F6F7909578
:102460008095709561957F4F8F4F9F4F0895EE0F28
:10247000FF1F0590F491E02D099491110895815664
:102480008A5108F48052855808952F923F924F92B6
:102490005F926F927F928F929F92AF92BF92CF92F4
:1024A000DF92EF92FF920F931F93CF93DF93CDB7FD
:1024B000DEB7CA1BDB0B0FB6F894DEBF0FBECDBF75
:1024C00009942A88398848885F846E847D848C8446
:1024D0009B84AA84B984C884DF80EE80FD800C814F
:1024E0001B81AA81B981CE0FD11D0FB6F894DEBF32
:1024F0000FBECDBFED01089510E0CCE6D0E004C0E2
:10250000FE010E9439122296CE36D107C9F7F894FF
:02251000FFCFFB
:10251200312E302E37626574610048480052656181
:102522006479002C20005663633A200025346C64E1
:102532000025356C64002531306C64002531306C27
:1025420075004E5F7261773A2000566F6C74735F4C
:1025520052504D3A2000495F7261773A2000565F2F
:102562007261773A200000444400414100446562B0
:1025720075673A204F6E0044656275673A204F6670
:1025820066007B000922766F6C74616765223A20CF
:10259200002C00092263757272656E74223A200063
:1025A200092272706D223A20000922706F776572DB
:1025B200223A2000092274696D657374616D70227C
:1025C2003A20007D00454F4C00563A20003B200047
:1025D200493A20004E3A2000743A20004D6561735A
:1025E2007572656D656E7420426F61726400466932
:1025F200726D776172652056657273696F6E3A20EB
:1026020000436F6D6D616E64733A004848203A2052
:102612007072696E74732074686973206D6173736C
:10262200616765004141203A207072696E742056DC
:102632006F6C742C2043757272656E742C2052502C
:102642004D2C20506F77657220616E64206120549A
:10265200696D657374616D70202873696E6365209E
:102662006C61737420726573746172742920696E6F
:102672002061637475616C20556E69747320285BE8
:102682006D565D2C5B6D415D2C5B312F6D696E5D0E
:102692002C5B6D575D2C5B75735D2900202020201B
:1026A200204F757470757420697320696E204A53C7
:1026B2004F4E205374796C65212121004444203A05
:1026C20020746F67676C65206465627567206D6F43
:1026D2006465206F6E20616E64206F666600008004
:1026E20000D603000000000000C80B6D0C5E0B8FCB
:0626F2000B6F0BB80B009A
:00000001FF
