:100000000C9438000C9460000C9460000C94600018
:100010000C9460000C9460000C9460000C946000E0
:100020000C9460000C9416080C9460000C94600012
:100030000C9460000C9460000C9460000C946000C0
:100040000C9490080C9460000C9477090C94C509EA
:100050000C9460000C9460000C9460000C946000A0
:100060000C9460000C94600044037F08310B3D0346
:1000700011241FBECFEFD8E0DEBFCDBF12E0A0E05D
:10008000B1E0EEE6F6E202C005900D92AE3DB1079A
:10009000D9F713E0AEEDB2E001C01D92A23CB1076A
:1000A000E1F710E0CEE6D0E004C02297FE010E9406
:1000B000EF12C836D107C9F70E94870B0C942A1398
:1000C0000C940000FB01DC0102C001900D92415034
:1000D0005040D8F70895FB01DC018D910190801903
:1000E0000110D9F3990B0895FB01DC0101900D92E9
:1000F0000020E1F70895AEE0B0E0E1E8F0E00C9414
:1001000001130D891E8986E08C831A8309838FEF82
:100110009FE79E838D839E01275E3F4FCE01019610
:100120006F89788DA9010E949F002F813885020F69
:10013000131FF80110822E96E4E00C941D13ABE01F
:10014000B0E0E5EAF0E00C94F3123C012B015A0117
:10015000FC0117821682838181FD03C06FEF7FEF60
:10016000C6C19AE0892E1E010894211C311CF3019E
:100170002381F20123FD859123FF81912F018823A3
:1001800009F4B2C1853239F423FD859123FF8191B1
:100190002F01853229F490E0B3010E949202E7CF4B
:1001A000982FFF24EE249924FFE1FF15D0F09B3215
:1001B00069F09C3228F4903259F0933291F40EC0D9
:1001C0009D3249F0903369F441E024C052E0F52AB1
:1001D00084E0F82A28C098E0F92A25C0E0E1FE2A48
:1001E00022C0F7FC29C0892F80538A3070F4F6FEB4
:1001F00005C0989C902C1124980E15C0E89CE02C0A
:100200001124E80EF0E2FF2A0EC09E3229F4F6FC1B
:100210006BC140E4F42A07C09C3619F450E8F52A73
:1002200002C0983649F4F20123FD959123FF919184
:100230002F01992309F0B8CF892F8554833018F006
:100240008052833038F444E050E0A40EB51E5FE3E2
:1002500059830FC0933631F0933779F0933509F015
:1002600056C020C0F5018081898342E050E0A40E91
:10027000B51E610101E010E012C0F501C080D1801F
:10028000F6FC03C06FEF7FEF02C0692D70E042E023
:1002900050E0A40EB51EC6010E9487028C015FE7E4
:1002A000F52214C0F501C080D180F6FC03C06FEFC9
:1002B0007FEF02C0692D70E042E050E0A40EB51E51
:1002C000C6010E947C028C0150E8F52AF3FE07C0AB
:1002D0001AC080E290E0B3010E949202EA948E2D4F
:1002E00090E008171907A8F30EC0F601F7FC8591F6
:1002F000F7FE81916F0190E0B3010E949202E1103C
:10030000EA94015010400115110579F7EAC09436BE
:1003100011F0993669F5F7FE08C0F50120813181A9
:100320004281538184E090E00AC0F501808191818F
:100330009C01442737FD4095542F82E090E0A80EA1
:10034000B91E9FE6F92257FF09C050954095309598
:1003500021953F4F4F4F5F4FE0E8FE2ACA01B90198
:10036000A1012AE030E00E94BE02D82ED21840C07F
:10037000953729F41F2D1F7E2AE030E01DC01F2D68
:10038000197F9F3661F0903720F4983509F0ACC0A2
:100390000FC0903739F0983709F0A6C004C028E0A4
:1003A00030E00AC0106114FD146020E130E004C0A8
:1003B00014FD166020E132E017FF08C0F5016081EE
:1003C00071818281938144E050E008C0F501808111
:1003D0009181BC0180E090E042E050E0A40EB51EA7
:1003E000A1010E94BE02D82ED2188FE7F82EF1226A
:1003F000F6FE0BC05EEFF522D91438F4F4FE07C008
:10040000F2FC05C08FEEF82202C01D2D01C0192D8F
:10041000F4FE0DC0FE01ED0DF11D8081803319F455
:1004200099EEF92208C01F5FF2FE05C003C08F2DB0
:10043000867809F01F5F0F2DF3FC14C0F0FE0FC08B
:100440001E1510F09D2C0BC09D2C9E0C911A1E2D7C
:1004500006C080E290E0B3010E9492021F5F1E1569
:10046000C0F304C01E1510F4E11A01C0EE2404FF0D
:100470000FC080E390E0B3010E94920202FF1DC012
:1004800001FD03C088E790E00EC088E590E00BC056
:10049000802F867891F001FF02C08BE201C080E2DC
:1004A000F7FC8DE290E0B3010E94920206C080E367
:1004B00090E0B3010E9492029A94D914C0F3DA94A6
:1004C000F101ED0DF11D808190E0B3010E949202D7
:1004D000DD20A9F706C080E290E0B3010E949202FD
:1004E000EA94EE20C1F743CEF30166817781CB0118
:1004F0002B96E2E10C940F13FC01059061507040C3
:100500000110D8F7809590958E0F9F1F0895FC01DC
:100510006150704001900110D8F7809590958E0F32
:100520009F1F08950F931F93CF93DF938C01EB01CF
:100530008B8181FF1BC082FF0DC02E813F818C818A
:100540009D812817390764F4E881F9810193F983C3
:10055000E88306C0E885F985802F0995892B31F459
:100560008E819F8101969F838E8302C00FEF1FEFC4
:10057000C801DF91CF911F910F910895FA01AA2729
:10058000283051F1203181F1E8946F936E7F6E5FD6
:100590007F4F8F4F9F4FAF4FB1E03ED0B4E03CD084
:1005A000670F781F891F9A1FA11D680F791F8A1F67
:1005B000911DA11D6A0F711D811D911DA11D20D0CE
:1005C00009F468943F912AE0269F11243019305D88
:1005D0003193DEF6CF010895462F4770405D419379
:1005E000B3E00FD0C9F7F6CF462F4F70405D4A33C6
:1005F00018F0495D31FD4052419302D0A9F7EACF8E
:10060000B4E0A6959795879577956795BA95C9F7BC
:1006100000976105710508959B01AC010A2E0694AF
:100620005795479537952795BA95C9F7620F731F68
:10063000841F951FA01D08958130910581F46F5F7F
:100640007F4FD1F48FED92E060E071E00E94300EB8
:1006500082EF92E067E071E00E94300E0895892BEE
:1006600059F46F5F7F4F41F482EF92E00E94C10E18
:100670008FED92E00E94C10E089580E090E06FEF50
:100680007FEF0E941C03089581E090E06FEF7FEF01
:100690000E941C0308950F931F93EAE7F0E0808106
:1006A0008460808380818260808380818E7F80836C
:1006B00081E093E00E943B080CE913E0C80140E0B0
:1006C00052EC61E070E00E94000AC8016AE071E04B
:1006D0000E94F90C1F910F910895EF92FF920F93D2
:1006E0001F93DF93CF9300D000D000D0CDB7DEB7FB
:1006F0007C018DB79EB708970FB6F8949EBF0FBECA
:100700008DBFEDB7FEB731968E010F5F1F4FADB7AE
:10071000BEB712961C930E93119780E191E09383DC
:10072000828344835583668377830E947B008DB7E1
:100730009EB708960FB6F8949EBF0FBE8DBFC70137
:10074000B8010E94300EC70126960FB6F894DEBF9E
:100750000FBECDBFCF91DF911F910F91FF90EF9012
:100760000895EF92FF920F931F93DF93CF93CDB72E
:10077000DEB727970FB6F894DEBF0FBECDBF7C0162
:100780008DB79EB708970FB6F8949EBF0FBE8DBF6A
:10079000EDB7FEB731968E010F5F1F4FADB7BEB7F5
:1007A00012961C930E93119785E191E093838283B7
:1007B00044835583668377830E947B008DB79EB701
:1007C00008960FB6F8949EBF0FBE8DBFC701B80143
:1007D0000E94300EC70127960FB6F894DEBF0FBEF9
:1007E000CDBFCF91DF911F910F91FF90EF900895B2
:1007F000EF92FF920F931F93DF93CF93CDB7DEB7A6
:100800002C970FB6F894DEBF0FBECDBF7C018DB71D
:100810009EB708970FB6F8949EBF0FBE8DBFEDB779
:10082000FEB731968E010F5F1F4FADB7BEB7129660
:100830001C930E9311978AE191E093838283448302
:100840005583668377830E947B008DB79EB7089699
:100850000FB6F8949EBF0FBE8DBFC701B8010E94AE
:10086000300EC7012C960FB6F894DEBF0FBECDBF79
:10087000CF91DF911F910F91FF90EF900895EF922C
:10088000FF920F931F93CF93DF93EC017A018B01BB
:100890008091DE02882369F08CE993E060E271E0E8
:1008A0000E94F60C8CE993E0BE014AE050E00E9401
:1008B000D70C9E01442737FD4095542FC801B7013E
:1008C0000E94911220E034E040E050E00E94D212F9
:1008D000CA01B901DF91CF911F910F91FF90EF9065
:1008E0000895EF92FF920F931F93CF93DF93EC0144
:1008F0007A018B018091DE02882369F08CE993E014
:1009000068E271E00E94F60C8CE993E0BE014AE0D7
:1009100050E00E94D70CBE01882777FD8095982F64
:10092000A80197010E9491129B01AC01E2E0660FC1
:10093000771F881F991FEA95D1F7620F731F841FD5
:10094000951F20E034E040E050E00E94D212CA013E
:10095000B901DF91CF911F910F91FF90EF90089512
:10096000EF92FF920F931F93CF93DF93EC019A01C5
:10097000AB01BE01882777FD8095982F0E949112C8
:100980009B01AC01F2E0660F771F881F991FFA9553
:10099000D1F7620F731F841F951F20E034E040E001
:1009A00050E00E94D21279018A018091DE028823F0
:1009B000D9F08CE993E060E371E00E94F60C8CE9D9
:1009C00093E0BE014AE050E00E94D70C8CE993E02E
:1009D00068E371E00E94F60C8CE993E0B801A7018E
:1009E0002AE030E00E94C30CC801B7010E94DD116B
:1009F00020E030E040EC5FE30E9442117B018C017B
:100A000020E030E040E050E00E948D1288234CF05E
:100A1000C801B70120E030E040E05FE30E94DE1053
:100A200008C0C801B70120E030E040E05FE30E9469
:100A3000DD100E94AA11DF91CF911F910F91FF90BD
:100A4000EF900895EF92FF920F931F938EE480939F
:100A50007C0062E070E080E090E00E94D808809125
:100A60007A00806480937A0080917A0086FDFCCFC2
:100A70008091780090E0A0E0B0E060917900362F9E
:100A800020E0442737FD4095542F282B392B4A2B43
:100A90005B2B60ED7FE581E190E00E94D212122F86
:100AA000032FF42EE52E8091DE02882381F08CE95D
:100AB00093E064E471E00E94F60C8CE993E0412F2E
:100AC000502F6F2D7E2D2AE030E00E94C30C612F45
:100AD000702F8F2D9E2D1F910F91FF90EF900895F5
:100AE00082E480937C0080917A00806C80937A000D
:100AF0008CED95E00E94310980917A0086FDFCCF53
:100B00002091780030E040917900942F80E0282BEC
:100B1000392BC901089581E480937C0080917A008B
:100B2000806C80937A008CED95E00E943109809171
:100B30007A0086FDFCCF2091780030E0409179006A
:100B4000942F80E0282B392BC901089580E48093ED
:100B50007C0080917A00806C80937A008CED95E027
:100B60000E94310980917A0086FDFCCF20917800A7
:100B700030E040917900942F80E0282B392BC90177
:100B80000895EF92FF920F931F93DF93CF93CDB70A
:100B9000DEB7AA970FB6F894DEBF0FBECDBF8CE9C3
:100BA00093E00E94870A181619068CF582EF92E0EE
:100BB0006AE471E00E944A0E0FC08CE993E00E9443
:100BC000B80A682F82EF92E00E94EA0D6AE070E0B6
:100BD00080E090E00E94D8088CE993E00E94870AA8
:100BE0001816190654F38E010F5F1F4FC80162EFEC
:100BF00072E040E050E022E030E00E94630E82EFBD
:100C000092E0B8010E94AA0EC8010E94C10E82EFB4
:100C100092E06BE471E00E94640D8823E1F090E0C3
:100C20008091DE02882309F491E09093DE0282EF46
:100C300092E06EE471E00E944A0E8091DE02882309
:100C400029F08CE993E061E571E0A2C18CE993E0C1
:100C50006BE571E09DC182EF92E06EE471E00E946D
:100C6000640D882309F497C181E093E00E9456083F
:100C700096958795779567956093FD027093FE0230
:100C80008093FF02909300030E9422057B018C0158
:100C90000E94A605B801A7010E9471046093E602B4
:100CA0007093E7028093E8029093E9020E948B051B
:100CB000B801A7010E943F046093EA027093EB021F
:100CC0008093EC029093ED020E947005B801A70199
:100CD0000E94B0046093EE027093EF028093F002E2
:100CE0009093F1026091EA027091EB028091EC0224
:100CF0009091ED022091E6023091E7024091E802E6
:100D00005091E9020E94911228EE33E040E050E059
:100D10000E94D2122093F9023093FA024093FB0210
:100D20005093FC028091DE02882309F47DC08CE997
:100D300093E066E671E00E94F60C4091E602509165
:100D4000E7026091E8027091E9028CE993E02AE001
:100D500030E00E94830C8CE993E06AE671E00E9427
:100D6000F60C8CE993E06DE671E00E94F60C409180
:100D7000EA025091EB026091EC027091ED028CE975
:100D800093E02AE030E00E94830C8CE993E06AE66D
:100D900071E00E94F60C8CE993E061E771E00E943B
:100DA000F60C4091EE025091EF026091F0027091CA
:100DB000F1028CE993E02AE030E00E94830C8CE998
:100DC00093E06AE671E00E94F60C8CE993E065E737
:100DD00071E00E94F60C4091F9025091FA02609184
:100DE000FB027091FC028CE993E02AE030E00E9463
:100DF000830C8CE993E06AE671E00E94F60C8CE9C2
:100E000093E069E771E00E94F60C4091FD02509179
:100E1000FE026091FF02709100038CE993E02AE0EA
:100E200030E00E946F0CF5C08CE993E06DE771E053
:100E30000E94F90C8CE993E06FE771E00E94F60CD8
:100E40008E01085F1F4F4091E6025091E7026091CA
:100E5000E8027091E902C8010E94B1038CE993E0B5
:100E6000B8010E940C0DC8010E94C10E8CE993E0EC
:100E70006CE871E00E94F90C8CE993E06EE871E097
:100E80000E94F60C8E01015F1F4F4091EA025091C3
:100E9000EB026091EC027091ED02C8010E946D03BB
:100EA0008CE993E0B8010E940C0DC8010E94C10EAC
:100EB0008CE993E06CE871E00E94F90C8CE993E016
:100EC0006BE971E00E94F60C8E010A5E1F4F4091A3
:100ED000EE025091EF026091F0027091F102C801B0
:100EE0000E946D038CE993E0B8010E940C0DC801CB
:100EF0000E94C10E8CE993E06CE871E00E94F90C4D
:100F00008CE993E064EA71E00E94F60C8E01035EC6
:100F10001F4F4091F9025091FA026091FB027091CB
:100F2000FC02C8010E946D038CE993E0B8010E94A5
:100F30000C0DC8010E94C10E8CE993E06CE871E0D1
:100F40000E94F90C8CE993E06FEA71E00E94F60CC4
:100F50008E010C5D1F4F4091FD025091FE02609189
:100F6000FF0270910003C8010E94F8038CE993E02E
:100F7000B8010E943F0DC8010E94C10E8CE993E0A8
:100F80006EEB71E00E94F90C8CE993E060EC71E08B
:100F90000E94F90C3EC082EF92E067E071E00E948F
:100FA000640D882381F18CE993E064EC71E00E9488
:100FB000F90C8CE993E066ED71E00E94F60C8CE987
:100FC00093E06FED72E00E943F0D8CE993E069EED3
:100FD00071E00E94F90C8CE993E063EF71E00E94EC
:100FE000F90C8CE993E06CE072E00E94F90C8CE95A
:100FF00093E064E872E00E94F90C8CE993E064EA03
:1010000072E00E94F90C82EF92E06AE471E00E94C3
:101010004A0EAA960FB6F894DEBF0FBECDBFCF9191
:10102000DF911F910F91FF90EF9008951F920F9203
:101030000FB60F9211248F939F93AF93BF9380911C
:10104000010390910203A0910303B0910403019660
:10105000A11DB11D8093010390930203A09303038C
:10106000B0930403BF91AF919F918F910F900FBEEA
:101070000F901F901895FC0120EB30E0D9018C9166
:101080008087A1EBB0E08C9181878C91887F826012
:101090008C93E0E7F0E0808181608083F9018081BA
:1010A0008C7F80838C91877F8C930895FC017FB720
:1010B000F8946091B200B89B0EC06091B20080813C
:1010C0009181A281B3810196A11DB11D808391837D
:1010D000A283B383B89A2081318142815381542FF6
:1010E000432F322F2227260F311D411D511D2483EE
:1010F0003583468357837FBFB901CA010895109293
:101100000103109202031092030310920403109241
:101110000503109206031092070310920803089526
:101120001F920F920FB60F9211242F933F938F931C
:101130009F93AF93BF9380910F0390911003A09161
:101140001103B0911203309113030196A11DB11D3B
:10115000232F2D5F2D3720F02D570196A11DB11D96
:101160002093130380930F0390931003A093110314
:10117000B093120380910B0390910C03A0910D0387
:10118000B0910E030196A11DB11D80930B039093A6
:101190000C03A0930D03B0930E03BF91AF919F91E9
:1011A0008F913F912F910F900FBE0F901F90189528
:1011B0009B01AC017FB7F89480910B0390910C03D5
:1011C000A0910D03B0910E0366B5A89B05C06F3FBB
:1011D00019F00196A11DB11D7FBFBA2FA92F982F1D
:1011E0008827860F911DA11DB11D62E0880F991FF0
:1011F000AA1FBB1F6A95D1F7BC012DC0FFB7F89499
:1012000080910B0390910C03A0910D03B0910E03FC
:10121000E6B5A89B05C0EF3F19F00196A11DB11DD1
:10122000FFBFBA2FA92F982F88278E0F911DA11DC0
:10123000B11DE2E0880F991FAA1FBB1FEA95D1F7E5
:10124000861B970B885E9340C8F221503040404087
:10125000504068517C4F211531054105510571F60B
:101260000895019739F0880F991F880F991F0297E9
:101270000197F1F70895789484B5826084BD84B5B0
:10128000816084BD85B5826085BD85B5816085BD81
:10129000EEE6F0E0808181608083E1E8F0E010829A
:1012A000808182608083808181608083E0E8F0E0DB
:1012B000808181608083E1EBF0E0808184608083C5
:1012C000E0EBF0E0808181608083EAE7F0E08081FC
:1012D000846080838081826080838081816080835C
:1012E0008081806880831092C100089508951F92C4
:1012F0000F920FB60F9211242F933F934F938F931A
:101300009F93EF93FF938091C00082FD1DC0409199
:10131000C60020915403309155032F5F3F4F2F7328
:10132000307080915603909157032817390771F058
:10133000E0915403F0915503EC5EFC4F40833093F1
:1013400055032093540302C08091C600FF91EF9192
:101350009F918F914F913F912F910F900FBE0F90C2
:101360001F901895E091A803F091A903E05CFF4F4E
:101370008191919120813181821B930B8F739070A9
:10138000892B11F00E94760908951F920F920FB6D3
:101390000F9211242F933F938F939F93EF93FF937B
:1013A000209198033091990380919A0390919B0327
:1013B0002817390731F48091C1008F7D8093C100D7
:1013C00014C0E0919A03F0919B03E85AFC4F2081EE
:1013D00080919A0390919B0301968F7390709093E4
:1013E0009B0380939A032093C600FF91EF919F91F6
:1013F0008F913F912F910F900FBE0F901F901895D6
:10140000AF92BF92DF92EF92FF920F931F93CF9311
:10141000DF93EC017A018B01DD24403081EE580727
:1014200080E0680780E0780711F0DD24D39491E034
:10143000A92EB12CEC89FD89DD2069F0C50108A039
:1014400002C0880F991F0A94E2F7808360E079E078
:101450008DE390E005C0108260E874E88EE190E0D2
:10146000A80197010E94B0122150304040405040E6
:10147000569547953795279580E12030380720F01D
:10148000DD2011F0DD24D6CFE889F9893083EA899F
:10149000FB89208319A2EE89FF89408121E030E099
:1014A000C9010C8C02C0880F991F0A94E2F7482BDF
:1014B0004083EE89FF894081C9010D8C02C0880FED
:1014C000991F0A94E2F7482B4083EE89FF894081F7
:1014D000C9010E8C02C0880F991F0A94E2F7482BAD
:1014E0004083EE89FF8980810F8C02C0220F331F59
:1014F0000A94E2F7209528232083DF91CF911F9152
:101500000F91FF90EF90DF90BF90AF900895DC01B6
:101510001C96ED91FC911D97E05CFF4F219131915C
:1015200080819181281B390B2F733070C901089578
:10153000DC011C96ED91FC911D97E05CFF4F208132
:101540003181E054F040DF01AE5BBF4F8D919C9143
:1015500011972817390719F42FEF3FEF07C08D9126
:101560009C91E80FF91F8081282F30E0C901089570
:10157000DC011C96ED91FC911D97E05CFF4F2081F2
:101580003181E054F040DF01AE5BBF4F8D919C9103
:1015900011972817390719F42FEF3FEF10C08D91DD
:1015A0009C911197E80FF91F20818D919C911197C3
:1015B00001968F73907011969C938E9330E0C901C1
:1015C0000895DC0191968C919197882339F0549677
:1015D000ED91FC915597808186FFF9CF91961C92F1
:1015E0000895CF93DF93EC01EE85FF85E05CFF4F1C
:1015F00020813181E054F0402F5F3F4F2F733070D6
:10160000DF01AE5BBF4F8D919C9111972817390771
:10161000D1F3E05CFF4F80819181E054F040E80F0E
:10162000F91F6083EE85FF85E05CFF4F31832083E7
:10163000EE89FF89208181E090E00F8C02C0880F45
:10164000991F0A94E2F7282B208381E089A3EC8973
:10165000FD8980818064808381E090E0DF91CF917B
:10166000089510929F0310929E0388EE93E0A0E0ED
:10167000B0E08093A0039093A103A093A203B09342
:10168000A30381ED92E090939D0380939C0384E1FA
:1016900093E09093A9038093A80388E593E0909347
:1016A000AB038093AA0385EC90E09093AD03809305
:1016B000AC0384EC90E09093AF038093AE0380EC96
:1016C00090E09093B1038093B00381EC90E090930D
:1016D000B3038093B20382EC90E09093B5038093C0
:1016E000B40386EC90E09093B7038093B60384E054
:1016F0008093B80383E08093B90387E08093BA03B3
:1017000085E08093BB0381E08093BC030895CF9371
:10171000DF930E943B090E944B03C2EBD9E00E9479
:10172000C1052097E1F30E94B209F9CFCF92DF9271
:10173000EF92FF920F931F93CF93DF937C016B0186
:101740008A01C0E0D0E00FC0D6016D916D01D701D4
:10175000ED91FC910190F081E02DC7010995C80F32
:10176000D91F015010400115110571F7CE01DF910D
:10177000CF911F910F91FF90EF90DF90CF90089540
:10178000EF92FF920F931F938C01DC01ED91FC917E
:101790000190F081E02D6DE009957C01D801ED917B
:1017A000FC910190F081E02DC8016AE009959C014F
:1017B0002E0D3F1DC9011F910F91FF90EF900895CD
:1017C000CF93DF93EC016115710519F420E030E04F
:1017D0000FC0DB010D900020E9F71197A61BB70B96
:1017E000E881F9810280F381E02DAD0109959C012A
:1017F000C901DF91CF9108954F925F927F928F92AE
:101800009F92AF92BF92CF92DF92EF92FF920F938F
:101810001F93DF93CF93CDB7DEB7A1970FB6F894A0
:10182000DEBF0FBECDBF2C01742ECB01223008F4D9
:101830002AE019A231E2C32ED12CCC0EDD1E822E5D
:101840009924AA24BB24672D752FA50194010E9419
:10185000B01279018A01C801B701A50194010E9463
:101860009112472D461B0894C108D1084A3014F440
:10187000405D01C0495CF6014083E114F1040105BB
:10188000110521F07E2C5F2DC801DDCFC201B6010C
:101890000E94E00BA1960FB6F894DEBF0FBECDBF3D
:1018A000CF91DF911F910F91FF90EF90DF90CF903C
:1018B000BF90AF909F908F907F905F904F900895D2
:1018C000DC012115310541F4ED91FC910190F0818D
:1018D000E02D642F099508950E94FC0B0895EF9266
:1018E000FF920F931F937C010E94600C8C01C70133
:1018F0000E94C00B9C01200F311FC9011F910F9145
:10190000FF90EF900895CF92DF92EF92FF920F93A6
:101910001F93CF93DF93EC016A017B012115310501
:1019200041F4E881F9810190F081E02D642F09955F
:101930001FC02A303105D1F477FF17C0E881F98143
:101940000190F081E02D6DE209958C014427552727
:10195000BA014C195D096E097F09CE012AE00E9487
:10196000FC0B9801280F391F04C02AE00E94FC0BD1
:101970009C01C901DF91CF911F910F91FF90EF90D2
:10198000DF90CF900895EF92FF920F931F937C0109
:101990000E94830C8C01C7010E94C00B9C01200F88
:1019A000311FC9011F910F91FF90EF900895CF92C1
:1019B000DF92EF92FF920F931F936C017B019A01CC
:1019C0000027F7FC0095102FB801A7010E94830C97
:1019D0008C01C6010E94C00B080F191FC8011F917E
:1019E0000F91FF90EF90DF90CF9008950E94E00B51
:1019F0000895EF92FF920F931F937C010E94E00BDA
:101A00008C01C7010E94C00B080F191FC8011F914C
:101A10000F91FF90EF900895AF92BF92CF92DF9217
:101A2000EF92FF920F931F93CF93DF935C016B01B3
:101A3000EE24FF24C0E0D0E010C0D501ED91FC9170
:101A400000811181C601BE010E94530D682FC5019E
:101A5000F8010995E80EF91E2196F6018481958119
:101A6000C817D90750F3C701DF91CF911F910F918C
:101A7000FF90EF90DF90CF90BF90AF900895EF92DE
:101A8000FF920F931F937C010E940C0D8C01C701E4
:101A90000E94C00B9C01200F311FC9011F910F91A3
:101AA000FF90EF900895FC01848195816817790774
:101AB00048F40190F081E02D309721F0E60FF71FF8
:101AC0008081089580E00895DC01FB0114968D91DA
:101AD0009C911597892B31F461157105A9F090E05F
:101AE000808108C00D90BC91A02D6115710529F46D
:101AF00090E08C91882349F407C0CD010E946B00CF
:101B00009C0190E0232B09F491E0892F08950F9315
:101B10001F93CF93DF93EC018B016F5F7F4F888121
:101B200099810E94FC0F009711F480E005C0998311
:101B300088831B830A8381E0DF91CF911F910F91EE
:101B40000895CF93DF93EC0188819981892B29F047
:101B50008A819B818617970760F4CE010E94870DCA
:101B6000882341F08C819D81892B19F4E881F981CA
:101B7000108281E0DF91CF910895EF92FF920F9351
:101B80001F93CF93DF93EC017B016C817D81E11486
:101B9000F104C1F04115510599F08A01060F171F94
:101BA000B8010E94A10D882369F0888199812C8158
:101BB0003D81820F931FB7010E9474001D830C8327
:101BC00081E001C080E0DF91CF911F910F91FF90E4
:101BD000EF900895DF93CF9300D0CDB7DEB7698340
:101BE0001A82BE016F5F7F4F41E050E00E94BD0D41
:101BF0000F900F90CF91DF910895CF93DF93EC0179
:101C000088819981009711F00E94640F19821882CF
:101C10001D821C821B821A82DF91CF910895EF9260
:101C2000FF920F931F93CF93DF93EC017B018A0107
:101C3000BA010E94A10D882321F4CE010E94FD0D5E
:101C400007C01D830C8388819981B7010E947400AD
:101C5000CE01DF91CF911F910F91FF90EF900895EA
:101C6000CF93DF93EC01198218821B821A821D82A6
:101C70001C821E826115710551F0DB010D90002060
:101C8000E9F71197A61BB70BAD010E940F0EDF916C
:101C9000CF9108950F931F93182F092F6115710588
:101CA00059F0DB010D900020E9F71197A61BB70B47
:101CB000AD010E940F0E02C00E94FD0D812F902FDA
:101CC0001F910F910895BF92CF92DF92EF92FF92F2
:101CD0000F931F93CF93DF93082FB92E6B017A01D7
:101CE000E9012417350710F4EA017901802F9B2DB3
:101CF00066EC72E00E94300ED60114968D919C9194
:101D000015978E159F05D0F08C179D0708F4EC01F0
:101D1000D601ED91FC911197EC0FFD1F10811082FF
:101D20006D917C916E0D7F1D802F9B2D0E944A0E20
:101D3000D601ED91FC91EC0FFD1F1083802F9B2DA0
:101D4000DF91CF911F910F91FF90EF90DF90CF9097
:101D5000BF900895CF93DF93EC01FB01861797079F
:101D600061F0608171816115710529F044815581AF
:101D70000E940F0E02C00E94FD0DCE01DF91CF9197
:101D80000895FC01808191810E94640F08950F9352
:101D90001F93CF93DF93BC018230910510F462E072
:101DA00070E0E091C003F091C10340E050E0A0E09A
:101DB000B0E024C08081918186179707D0F0861704
:101DC000970771F482819381109729F013969C9361
:101DD0008E9312972CC09093C1038093C00327C0A9
:101DE0004115510519F08417950718F48D01AC01C0
:101DF000EF01DF01828193819C01F9013097D1F6D7
:101E000041155105F9F0CA01861B970B84309105E5
:101E100080F48A819B810115110521F0F8019383DB
:101E2000828304C09093C1038093C003FE01329665
:101E300045C0FE01E80FF91F6193719302979983E2
:101E400088833CC08091BE039091BF03892B41F4ED
:101E50008091C9029091CA029093BF038093BE0300
:101E60004091CB025091CC024115510541F44DB740
:101E70005EB78091C7029091C802481B590B209110
:101E8000BE033091BF0324173507B0F4CA01821B8B
:101E9000930B8617970780F0AB014E5F5F4F841757
:101EA000950750F0420F531F5093BF034093BE035A
:101EB000F9016193719302C0E0E0F0E0CF01DF919E
:101EC000CF911F910F910895CF93DF939C010097BD
:101ED00009F48FC0EC0122971B821A826091C00323
:101EE0007091C1036115710581F488819981820F18
:101EF000931F2091BE033091BF032817390739F58E
:101F0000D093BF03C093BE0374C0DB0140E050E038
:101F1000AC17BD0708F1BB83AA83FE012191319163
:101F2000E20FF31FAE17BF0779F48D919C911197C3
:101F3000280F391F2E5F3F4F3983288312968D91CA
:101F40009C9113979B838A834115510571F4D0931B
:101F5000C103C093C0034DC012968D919C911397FD
:101F6000AD01009711F0DC01D3CFDA011396DC93B9
:101F7000CE931297FA0121913191E20FF31FCE1700
:101F8000DF0769F488819981280F391F2E5F3F4F41
:101F9000FA01318320838A819B8193838283E0E0ED
:101FA000F0E0DB0112968D919C911397009719F048
:101FB000BC01FD01F6CFAB014E5F5F4FDB018D91A0
:101FC0009C91840F951F2091BE033091BF03281769
:101FD000390779F4309729F41092C1031092C003A5
:101FE00002C013821282425050405093BF0340936C
:101FF000BE03DF91CF9108956F927F928F929F924F
:10200000AF92BF92CF92DF92EF92FF920F931F9306
:10201000CF93DF938C01009729F4CB010E94C70E68
:102020008C01BBC08EEFE82E8FEFF82EE00EF11E74
:102030004801860E971E8E149F0408F4ACC0D70189
:102040004D915C91119746175707B8F045305105EF
:1020500008F4A3C0CA0104978617970708F49DC027
:1020600042505040461B570BF401419351936D93DE
:102070007C93CF010E94640F90C05B01A41AB50A43
:102080003801640E751EA091C003B091C103E0E059
:10209000F0E0CC24DD2447C0A615B705A9F5CD9105
:1020A000DC911197CE0102968A159B0568F1CE014D
:1020B0008A199B09029612962C91129713963C91BD
:1020C000059758F0F40122833383CA19DB09D183C1
:1020D000C083D7016D937C9309C04E5F5F4F4C0F57
:1020E0005D1FF70151834083C901FC01C114D10474
:1020F00031F0D6011396FC93EE9312974EC0F093F5
:10210000C103E093C00349C08D919C911197E817DA
:10211000F90708F4FC016D0112968C911297139641
:102120009C919C01D901109709F0B6CF8091BE0314
:102130009091BF0386159705E9F4E617F707D0F4E9
:102140002091CB023091CC022115310541F42DB7FD
:102150003EB78091C7029091C802281B390B8216A6
:102160009306C8F49092BF038092BE03F701718377
:10217000608313C0CB010E94C70EEC01009759F099
:10218000D7014D915C91B8010E946200C8010E9484
:10219000640F8E0102C000E010E0C801DF91CF9112
:1021A0001F910F91FF90EF90DF90CF90BF90AF9075
:1021B0009F908F907F906F9008955058BB27AA27CB
:1021C0000ED071C162D130F067D120F031F49F3F61
:1021D00011F41EF457C10EF4E095E7FB4DC1E92F51
:1021E00073D180F3BA17620773078407950718F055
:1021F00071F49EF58BC10EF4E0950B2EBA2FA02D35
:102200000B01B90190010C01CA01A0011124FF27A3
:10221000591B99F0593F50F4503E68F11A16F0409E
:10222000A22F232F342F4427585FF3CF469537959D
:102230002795A795F0405395C9F77EF41F16BA0B62
:10224000620B730B840BBAF09150A1F0FF0FBB1F10
:10225000661F771F881FC2F70EC0BA0F621F731F59
:10226000841F48F4879577956795B795F7959E3FB6
:1022700008F0B3CF9395880F08F09927EE0F979544
:10228000879508950CD00FC107D140F0FED030F0F3
:1022900021F45F3F19F0F0C0511139C1F3C014D1DE
:1022A00098F39923C9F35523B1F3951B550BBB271D
:1022B000AA2762177307840738F09F5F5F4F220FCA
:1022C000331F441FAA1FA9F333D00E2E3AF0E0E8C3
:1022D00030D091505040E695001CCAF729D0FE2F0F
:1022E00027D0660F771F881FBB1F261737074807A1
:1022F000AB07B0E809F0BB0B802DBF01FF27935857
:102300005F4F2AF09E3F510568F0B6C000C15F3FA5
:10231000ECF3983EDCF3869577956795B795F7953E
:102320009F5FC9F7880F911D9695879597F9089536
:10233000E1E0660F771F881FBB1F621773078407D2
:10234000BA0720F0621B730B840BBA0BEE1F88F7E1
:10235000E095089504D06894B111D9C00895BCD017
:1023600088F09F5790F0B92F9927B751A0F0D1F07E
:10237000660F771F881F991F1AF0BA95C9F712C008
:10238000B13081F0C3D0B1E00895C0C0672F782F7D
:102390008827B85F39F0B93FCCF386957795679574
:1023A000B395D9F73EF490958095709561957F4FE0
:1023B0008F4F9F4F0895E89409C097FB3EF4909586
:1023C0008095709561957F4F8F4F9F4F9923A9F00E
:1023D000F92F96E9BB279395F6958795779567959D
:1023E000B795F111F8CFFAF4BB0F11F460FF1BC0E1
:1023F0006F5F7F4F8F4F9F4F16C0882311F096E974
:1024000011C0772321F09EE8872F762F05C0662321
:1024100071F096E8862F70E060E02AF09A95660FDA
:10242000771F881FDAF7880F9695879597F9089593
:10243000990F0008550FAA0BE0E8FEEF16161706D5
:10244000E807F907C0F012161306E407F50798F03D
:10245000621B730B840B950B39F40A2661F0232B56
:10246000242B252B21F408950A2609F4A140A695D2
:102470008FEF811D811D089597F99F6780E870E0B7
:1024800060E008959FEF80EC089500240A941616EA
:10249000170618060906089500240A941216130652
:1024A000140605060895092E0394000C11F48823E0
:1024B00052F0BB0F40F4BF2B11F460FF04C06F5FFC
:1024C0007F4F8F4F9F4F089557FD9058440F551FD2
:1024D00059F05F3F71F04795880F97FB991F61F0A6
:1024E0009F3F79F087950895121613061406551F1D
:1024F000F2CF4695F1DF08C0161617061806991F89
:10250000F1CF86957105610508940895E894BB277D
:1025100066277727CB0197F908958ADF08F48FEFB4
:102520000895629FD001739FF001829FE00DF11D1D
:10253000649FE00DF11D929FF00D839FF00D749F3D
:10254000F00D659FF00D9927729FB00DE11DF91FE9
:10255000639FB00DE11DF91FBD01CF011124089546
:10256000A1E21A2EAA1BBB1BFD010DC0AA1FBB1F97
:10257000EE1FFF1FA217B307E407F50720F0A21B09
:10258000B30BE40BF50B661F771F881F991F1A9476
:1025900069F760957095809590959B01AC01BD01A0
:1025A000CF01089597FB092E05260ED057FD04D0C4
:1025B000D7DF0AD0001C38F450954095309521950E
:1025C0003F4F4F4F5F4F0895F6F790958095709568
:1025D00061957F4F8F4F9F4F0895EE0FFF1F05901E
:1025E000F491E02D09942F923F924F925F926F9257
:1025F0007F928F929F92AF92BF92CF92DF92EF9293
:10260000FF920F931F93CF93DF93CDB7DEB7CA1B13
:10261000DB0B0FB6F894DEBF0FBECDBF09942A883E
:10262000398848885F846E847D848C849B84AA84E6
:10263000B984C884DF80EE80FD800C811B81AA8173
:10264000B981CE0FD11D0FB6F894DEBF0FBECDBF3E
:10265000ED01089510E0CEE6D0E004C0FE010E9436
:0E266000EF122296C037D107C9F7F894FFCFCA
:10266E00312E302E36620048480052656164790082
:10267E0025346C640025356C64002531306C750092
:10268E00495F7261773A2000565F7261773A200097
:10269E004E5F7261773A2000566F6C74735F5250C2
:1026AE004D3A20005663633A2000004444004141F5
:1026BE000044656275673A204F6E00446562756727
:1026CE003A204F666600563A20003B2000493A20D9
:1026DE00004E3A2000503A2000743A20007B000948
:1026EE0022766F6C74616765223A20002C000922F5
:1026FE0063757272656E74223A2000092272706DD3
:10270E00223A20000922706F776572223A20000962
:10271E002274696D657374616D70223A20007D00BC
:10272E00454F4C004D6561737572656D656E742015
:10273E00426F617264004669726D77617265202026
:10274E0056657273696F6E3A00436F6D6D616E649C
:10275E00733A004848203A207072696E7473207480
:10276E00686973206D617373616765004141203A3A
:10277E00207072696E7420566F6C742C20437572C3
:10278E0072656E742C2052504D2C20506F776572EE
:10279E0020616E6420612054696D657374616D7083
:1027AE00202873696E6365206C6173742072657383
:1027BE00746172742920696E2061637475616C2076
:1027CE00556E69747320285B6D565D2C5B6D415D93
:1027DE002C5B312F6D696E5D2C5B6D575D2C5B75BF
:1027EE00735D290020202020204F75747075742091
:1027FE00697320696E204A534F4E205374796C656D
:10280E00212121004444203A20746F67676C6520B3
:10281E006465627567206D6F6465206F6E20616EF2
:10282E0064206F666600008000C203000000000096
:0E283E0000F10A960B870AB80A980AE10A0010
:00000001FF
