:100000000C9437000C945F000C945F000C945F001C
:100010000C945F000C945F000C945F000C945F00E4
:100020000C945F000C945F000C945F000C945F00D4
:100030000C945F000C945F000C945F000C945F00C4
:100040000C9470040C945F000C947D050C94CB050B
:100050000C945F000C945F000C945F000C945F00A4
:100060000C945F000C945F00A20037079B001124E2
:100070001FBECFEFD8E0DEBFCDBF12E0A0E0B1E001
:10008000ECE0FEE102C005900D92AC3CB107D9F75F
:1000900013E0ACECB2E001C01D92A63AB107E1F763
:1000A00010E0CCE6D0E004C02297FE010E94F50EDD
:1000B000C836D107C9F70E948D070C94F90E0C942D
:1000C0000000FB01DC0102C001900D924150504044
:1000D000D8F70895FB01DC018D9101908019011082
:1000E000D9F3990B0895FB01DC0101900D920020DA
:1000F000E1F708958130910581F46F5F7F4FD1F46E
:100100008DEC92E060E071E00E94360A80EE92E0B1
:1001100066E071E00E94360A0895892B59F46F5FFA
:100120007F4F41F480EE92E00E94C70A8DEC92E08E
:100130000E94C70A089580E090E06FEF7FEF0E9471
:100140007A00089581E090E06FEF7FEF0E947A00DF
:1001500008950F931F93EAE7F0E080818460808325
:1001600080818260808380818E7F808300E813E0BD
:10017000C80140E052EC61E070E00E940606C80150
:1001800069E071E00E94FF081F910F910895EF92BE
:10019000FF920F931F93CF93DF93EC017A018B01B2
:1001A0008091CC02882369F080E893E06FE071E0F1
:1001B0000E94FC0880E893E0BE014AE050E00E9403
:1001C000DD089E01442737FD4095542FC801B70133
:1001D0000E94970E20E034E040E050E00E94D80EEC
:1001E000CA01B901DF91CF911F910F91FF90EF905C
:1001F0000895EF92FF920F931F93CF93DF93EC013B
:100200007A018B018091CC02882369F080E893E029
:1002100067E171E00E94FC0880E893E0BE014AE0DB
:1002200050E00E94DD08BE01882777FD8095982F59
:10023000A80197010E94970E9B01AC01E2E0660FB6
:10024000771F881F991FEA95D1F7620F731F841FCC
:10025000951F20E034E040E050E00E94D80ECA0133
:10026000B901DF91CF911F910F91FF90EF90089509
:10027000EF92FF920F931F93CF93DF93EC019A01BC
:10028000AB01BE01882777FD8095982F0E94970EBD
:100290009B01AC01F2E0660F771F881F991FFA954A
:1002A000D1F7620F731F841F951F20E034E040E0F8
:1002B00050E00E94D80E79018A018091CC028823F7
:1002C000D9F080E893E06FE171E00E94FC0880E8DB
:1002D00093E0BE014AE050E00E94DD0880E893E030
:1002E00067E271E00E94FC0880E893E0B801A70192
:1002F0002AE030E00E94C908C801B7010E94E30D5E
:1003000020E030E040EC5FE30E94480D7B018C016F
:1003100020E030E040E050E00E94930E88234CF053
:10032000C801B70120E030E040E05FE30E94E40C48
:1003300008C0C801B70120E030E040E05FE30E9460
:10034000E30C0E94B00DDF91CF911F910F91FF90B0
:10035000EF900895EF92FF920F931F938EE4809396
:100360007C0062E070E080E090E00E94DE0480911A
:100370007A00806480937A0080917A0086FDFCCFB9
:100380008091780090E0A0E0B0E060917900362F95
:1003900020E0442737FD4095542F282B392B4A2B3A
:1003A0005B2B60ED7FE581E190E00E94D80E122F7B
:1003B000032FF42EE52E8091CC02882381F080E873
:1003C00093E063E371E00E94FC0880E893E0412F32
:1003D000502F6F2D7E2D2AE030E00E94C908612F3A
:1003E000702F8F2D9E2D1F910F91FF90EF900895EC
:1003F00082E480937C0080917A00806C80937A0004
:100400008CED95E00E94370580917A0086FDFCCF47
:100410002091780030E040917900942F80E0282BE3
:10042000392BC901089581E480937C0080917A0082
:10043000806C80937A008CED95E00E943705809166
:100440007A0086FDFCCF2091780030E04091790061
:10045000942F80E0282B392BC901089580E48093E4
:100460007C0080917A00806C80937A008CED95E01E
:100470000E94370580917A0086FDFCCF209178009C
:1004800030E040917900942F80E0282B392BC9016E
:100490000895EF92FF920F931F93DF93CF93CDB701
:1004A000DEB727970FB6F894DEBF0FBECDBF80E84A
:1004B00093E00E948D06181619068CF580EE92E0E6
:1004C00069E371E00E94500A0FC080E893E00E9447
:1004D000BE06682F80EE92E00E94F0096AE070E0AC
:1004E00080E090E00E94DE0480E893E00E948D06A8
:1004F0001816190654F38E010F5F1F4FC80160EEE6
:1005000072E040E050E022E030E00E94690A80EEB4
:1005100092E0B8010E94B00AC8010E94C70A80EEAA
:1005200092E06AE371E00E946A098823E1F090E0BA
:100530008091CC02882309F491E09093CC0280EE64
:1005400092E06DE371E00E94500A8091CC02882312
:1005500029F080E893E060E471E074C180E893E002
:100560006AE471E06FC180EE92E06DE371E00E9499
:100570006A09882309F469C10E94B8046093EB02F8
:100580007093EC028093ED029093EE020E94AA0118
:100590007B018C010E942E02B801A7010E94F90084
:1005A0006093D4027093D5028093D6029093D702C1
:1005B0000E941302B801A7010E94C7006093D802ED
:1005C0007093D9028093DA029093DB020E94F801C3
:1005D000B801A7010E9438016093DC027093DD022C
:1005E0008093DE029093DF026091D8027091D9026D
:1005F0008091DA029091DB022091D4023091D502F1
:100600004091D6025091D7020E94970E28EE33E017
:1006100040E050E00E94D80E2093E7023093E802B9
:100620004093E9025093EA028091CC02882309F4B6
:100630007DC080E893E065E571E00E94FC08409190
:10064000D4025091D5026091D6027091D70280E811
:1006500093E02AE030E00E94890880E893E069E5B1
:1006600071E00E94FC0880E893E06CE571E00E9474
:10067000FC084091D8025091D9026091DA02709141
:10068000DB0280E893E02AE030E00E94890880E8FD
:1006900093E069E571E00E94FC0880E893E060E681
:1006A00071E00E94FC084091DC025091DD026091F3
:1006B000DE027091DF0280E893E02AE030E00E94E1
:1006C000890880E893E069E571E00E94FC0880E811
:1006D00093E064E671E00E94FC084091E7025091CB
:1006E000E8026091E9027091EA0280E893E02AE072
:1006F00030E00E94890880E893E069E571E00E949B
:10070000FC0880E893E068E671E00E94FC084091F4
:10071000EB025091EC026091ED027091EE0280E8E4
:1007200093E02AE030E00E947508CDC080E893E0B5
:100730006CE671E00E94FF0880E893E06EE671E0ED
:100740000E94FC084091D4025091D5026091D602DB
:100750007091D70280E893E02AE030E00E94890897
:1007600080E893E06BE771E00E94FF0880E893E087
:100770006DE771E00E94FC084091D8025091D902C7
:100780006091DA027091DB0280E893E02AE030E0C9
:100790000E94890880E893E06BE771E00E94FF08FF
:1007A00080E893E06AE871E00E94FC084091DC0276
:1007B0005091DD026091DE027091DF0280E893E0EB
:1007C0002AE030E00E94890880E893E06BE771E05E
:1007D0000E94FF0880E893E063E971E00E94FC0852
:1007E0004091E7025091E8026091E9027091EA02BB
:1007F00080E893E02AE030E00E94890880E893E0F6
:100800006BE771E00E94FF0880E893E06EE971E019
:100810000E94FC084091EB025091EC026091ED02C5
:100820007091EE0280E893E02AE030E00E947508C3
:1008300080E893E06DEA71E00E94FF0880E893E0B1
:100840006FEA71E00E94FF083EC080EE92E066E031
:1008500071E00E946A09882381F180E893E063EBEC
:1008600071E00E94FF0880E893E065EC71E00E946F
:10087000FC0880E893E06DEC72E00E94450980E896
:1008800093E068ED71E00E94FF0880E893E062EE7B
:1008900071E00E94FF0880E893E06BEF71E00E9436
:1008A000FF0880E893E063E772E00E94FF0880E8B9
:1008B00093E063E972E00E94FF0880EE92E069E352
:1008C00071E00E94500A27960FB6F894DEBF0FBE63
:1008D000CDBFCF91DF911F910F91FF90EF900895C1
:1008E0001F920F920FB60F9211242F933F938F9365
:1008F0009F93AF93BF938091F3029091F402A091E4
:10090000F502B091F6023091F7020196A11DB11DDA
:10091000232F2D5F2D3720F02D570196A11DB11DDE
:100920002093F7028093F3029093F402A093F502D0
:10093000B093F6028091EF029091F002A091F10243
:10094000B091F2020196A11DB11D8093EF02909328
:10095000F002A093F102B093F202BF91AF919F9188
:100960008F913F912F910F900FBE0F901F90189570
:100970009FB7F8942091EF023091F0024091F1027C
:100980005091F20286B5A89B06C08F3F21F02F5FE1
:100990003F4F4F4F5F4F9FBF542F432F322F222780
:1009A000280F311D411D511D82E0220F331F441FAE
:1009B000551F8A95D1F7B901CA0108959B01AC0171
:1009C0007FB7F8948091EF029091F002A091F1022C
:1009D000B091F20266B5A89B05C06F3F19F0019671
:1009E000A11DB11D7FBFBA2FA92F982F8827860F71
:1009F000911DA11DB11D62E0880F991FAA1FBB1F89
:100A00006A95D1F7BC012DC0FFB7F8948091EF0231
:100A10009091F002A091F102B091F202E6B5A89B8C
:100A200005C0EF3F19F00196A11DB11DFFBFBA2F00
:100A3000A92F982F88278E0F911DA11DB11DE2E0CF
:100A4000880F991FAA1FBB1FEA95D1F7861B970B2A
:100A5000885E9340C8F22150304040405040685179
:100A60007C4F211531054105510571F60895019717
:100A700039F0880F991F880F991F02970197F1F796
:100A80000895789484B5826084BD84B5816084BD06
:100A900085B5826085BD85B5816085BDEEE6F0E0F7
:100AA000808181608083E1E8F0E010828081826053
:100AB0008083808181608083E0E8F0E080818160D4
:100AC0008083E1EBF0E0808184608083E0EBF0E004
:100AD000808181608083EAE7F0E0808184608083A8
:100AE0008081826080838081816080838081806852
:100AF00080831092C100089508951F920F920FB63F
:100B00000F9211242F933F934F938F939F93EF93C3
:100B1000FF938091C00082FD1DC04091C6002091CE
:100B20003803309139032F5F3F4F2F73307080911E
:100B30003A0390913B032817390771F0E09138038D
:100B4000F0913903E850FD4F4083309339032093EF
:100B5000380302C08091C600FF91EF919F918F9161
:100B60004F913F912F910F900FBE0F901F901895AE
:100B7000E0918C03F0918D03E05CFF4F81919191A6
:100B800020813181821B930B8F739070892B11F020
:100B90000E947C0508951F920F920FB60F921124A8
:100BA0002F933F938F939F93EF93FF9320917C0319
:100BB00030917D0380917E0390917F032817390740
:100BC00031F48091C1008F7D8093C10014C0E09109
:100BD0007E03F0917F03E45CFC4F208180917E03D3
:100BE00090917F0301968F73907090937F03809311
:100BF0007E032093C600FF91EF919F918F913F91CB
:100C00002F910F900FBE0F901F901895AF92BF922B
:100C1000DF92EF92FF920F931F93CF93DF93EC013C
:100C20007A018B01DD24403081EE580780E06807AF
:100C300080E0780711F0DD24D39491E0A92EB12C47
:100C4000EC89FD89DD2069F0C50108A002C0880F8C
:100C5000991F0A94E2F7808360E079E08DE390E0E9
:100C600005C0108260E874E88EE190E0A801970169
:100C70000E94B60E21503040404050405695479556
:100C80003795279580E12030380720F0DD2011F0DE
:100C9000DD24D6CFE889F9893083EA89FB8920836E
:100CA00019A2EE89FF89408121E030E0C9010C8C56
:100CB00002C0880F991F0A94E2F7482B4083EE89FF
:100CC000FF894081C9010D8C02C0880F991F0A94C9
:100CD000E2F7482B4083EE89FF894081C9010E8CE1
:100CE00002C0880F991F0A94E2F7482B4083EE89CF
:100CF000FF8980810F8C02C0220F331F0A94E2F714
:100D0000209528232083DF91CF911F910F91FF9091
:100D1000EF90DF90BF90AF900895DC011C96ED91AD
:100D2000FC911D97E05CFF4F219131918081918171
:100D3000281B390B2F733070C9010895DC011C96F4
:100D4000ED91FC911D97E05CFF4F20813181E054D3
:100D5000F040DF01AE5BBF4F8D919C91119728173A
:100D6000390719F42FEF3FEF07C08D919C91E80FE1
:100D7000F91F8081282F30E0C9010895DC011C96FD
:100D8000ED91FC911D97E05CFF4F20813181E05493
:100D9000F040DF01AE5BBF4F8D919C9111972817FA
:100DA000390719F42FEF3FEF10C08D919C911197E7
:100DB000E80FF91F20818D919C91119701968F73F7
:100DC000907011969C938E9330E0C9010895DC01D8
:100DD00091968C919197882339F05496ED91FC91DE
:100DE0005597808186FFF9CF91961C920895CF93F5
:100DF000DF93EC01EE85FF85E05CFF4F20813181C0
:100E0000E054F0402F5F3F4F2F733070DF01AE5B37
:100E1000BF4F8D919C91119728173907D1F3E05C52
:100E2000FF4F80819181E054F040E80FF91F60830B
:100E3000EE85FF85E05CFF4F31832083EE89FF89DB
:100E4000208181E090E00F8C02C0880F991F0A94E6
:100E5000E2F7282B208381E089A3EC89FD8980813A
:100E60008064808381E090E0DF91CF9108951092BB
:100E700083031092820388EE93E0A0E0B0E08093B9
:100E8000840390938503A0938603B093870380EC3B
:100E900092E0909381038093800388EF92E0909397
:100EA0008D0380938C038CE393E090938F03809366
:100EB0008E0385EC90E0909391038093900384ECF3
:100EC00090E0909393038093920380EC90E0909352
:100ED00095038093940381EC90E090939703809323
:100EE000960382EC90E0909399038093980386ECAC
:100EF00090E090939B0380939A0384E080939C03FB
:100F000083E080939D0387E080939E0385E0809338
:100F10009F0381E08093A0030895CF93DF930E9405
:100F200041050E94A900C8EBD5E00E944902209724
:100F3000E1F30E94B805F9CFCF92DF92EF92FF92D2
:100F40000F931F93CF93DF937C016B018A01C0E065
:100F5000D0E00FC0D6016D916D01D701ED91FC91EC
:100F60000190F081E02DC7010995C80FD91F0150EC
:100F700010400115110571F7CE01DF91CF911F913E
:100F80000F91FF90EF90DF90CF900895EF92FF9236
:100F90000F931F938C01DC01ED91FC910190F08186
:100FA000E02D6DE009957C01D801ED91FC91019057
:100FB000F081E02DC8016AE009959C012E0D3F1DCE
:100FC000C9011F910F91FF90EF900895CF93DF9388
:100FD000EC016115710519F420E030E00FC0DB0170
:100FE0000D900020E9F71197A61BB70BE881F98156
:100FF0000280F381E02DAD0109959C01C901DF91CB
:10100000CF9108954F925F927F928F929F92AF926D
:10101000BF92CF92DF92EF92FF920F931F93DF93D5
:10102000CF93CDB7DEB7A1970FB6F894DEBF0FBE52
:10103000CDBF2C01742ECB01223008F42AE019A276
:1010400031E2C32ED12CCC0EDD1E822E9924AA248F
:10105000BB24672D752FA50194010E94B60E79015E
:101060008A01C801B701A50194010E94970E472D7E
:10107000461B0894C108D1084A3014F4405D01C0F1
:10108000495CF6014083E114F1040105110521F0EA
:101090007E2C5F2DC801DDCFC201B6010E94E6079C
:1010A000A1960FB6F894DEBF0FBECDBFCF91DF91F2
:1010B0001F910F91FF90EF90DF90CF90BF90AF9076
:1010C0009F908F907F905F904F900895DC01211545
:1010D000310541F4ED91FC910190F081E02D642FF8
:1010E000099508950E9402080895EF92FF920F93C8
:1010F0001F937C010E9466088C01C7010E94C607ED
:101100009C01200F311FC9011F910F91FF90EF909B
:101110000895CF92DF92EF92FF920F931F93CF9398
:10112000DF93EC016A017B012115310541F4E8816F
:10113000F9810190F081E02D642F09951FC02A30BC
:101140003105D1F477FF17C0E881F9810190F08172
:10115000E02D6DE209958C0144275527BA014C1901
:101160005D096E097F09CE012AE00E9402089801FC
:10117000280F391F04C02AE00E9402089C01C901FF
:10118000DF91CF911F910F91FF90EF90DF90CF9063
:101190000895EF92FF920F931F937C010E9489089C
:1011A0008C01C7010E94C6079C01200F311FC90195
:1011B0001F910F91FF90EF900895CF92DF92EF92E1
:1011C000FF920F931F936C017B019A010027F7FC9C
:1011D0000095102FB801A7010E9489088C01C60153
:1011E0000E94C607080F191FC8011F910F91FF9099
:1011F000EF90DF90CF9008950E94E6070895EF9258
:10120000FF920F931F937C010E94E6078C01C70198
:101210000E94C607080F191FC8011F910F91FF9068
:10122000EF900895AF92BF92CF92DF92EF92FF922C
:101230000F931F93CF93DF935C016B01EE24FF2488
:10124000C0E0D0E010C0D501ED91FC91008111818A
:10125000C601BE010E945909682FC501F801099510
:10126000E80EF91E2196F60184819581C817D907E9
:1012700050F3C701DF91CF911F910F91FF90EF9035
:10128000DF90CF90BF90AF900895EF92FF920F93B1
:101290001F937C010E9412098C01C7010E94C6079E
:1012A0009C01200F311FC9011F910F91FF90EF90FA
:1012B0000895FC01848195816817790748F40190AD
:1012C000F081E02D309721F0E60FF71F808108951F
:1012D00080E00895DC01FB0114968D919C91159797
:1012E000892B31F461157105A9F090E0808108C067
:1012F0000D90BC91A02D6115710529F490E08C91A1
:10130000882349F407C0CD010E946A009C0190E047
:10131000232B09F491E0892F08950F931F93CF9306
:10132000DF93EC018B016F5F7F4F888199810E9471
:10133000020C009711F480E005C0998388831B8319
:101340000A8381E0DF91CF911F910F910895CF9390
:10135000DF93EC0188819981892B29F08A819B8117
:101360008617970760F4CE010E948D09882341F00B
:101370008C819D81892B19F4E881F981108281E0AB
:10138000DF91CF910895EF92FF920F931F93CF9328
:10139000DF93EC017B016C817D81E114F104C1F0EC
:1013A0004115510599F08A01060F171FB8010E94D7
:1013B000A709882369F0888199812C813D81820F5A
:1013C000931FB7010E9473001D830C8381E001C04D
:1013D00080E0DF91CF911F910F91FF90EF900895E2
:1013E000DF93CF9300D0CDB7DEB769831A82BE01F9
:1013F0006F5F7F4F41E050E00E94C3090F900F9054
:10140000CF91DF910895CF93DF93EC01888199818B
:10141000009711F00E946A0B198218821D821C82AB
:101420001B821A82DF91CF910895EF92FF920F9362
:101430001F93CF93DF93EC017B018A01BA010E94D5
:10144000A709882321F4CE010E94030A07C01D8347
:101450000C8388819981B7010E947300CE01DF91CE
:10146000CF911F910F91FF90EF900895CF93DF934D
:10147000EC01198218821B821A821D821C821E8234
:101480006115710551F0DB010D900020E9F711970E
:10149000A61BB70BAD010E94150ADF91CF910895ED
:1014A0000F931F93182F092F6115710559F0DB0158
:1014B0000D900020E9F71197A61BB70BAD010E9414
:1014C000150A02C00E94030A812F902F1F910F91CD
:1014D0000895BF92CF92DF92EF92FF920F931F93E6
:1014E000CF93DF93082FB92E6B017A01E9012417FE
:1014F000350710F4EA017901802F9B2D65EB72E02E
:101500000E94360AD60114968D919C9115978E15DE
:101510009F05D0F08C179D0708F4EC01D601ED91E2
:10152000FC911197EC0FFD1F108110826D917C9141
:101530006E0D7F1D802F9B2D0E94500AD601ED91CC
:10154000FC91EC0FFD1F1083802F9B2DDF91CF911D
:101550001F910F91FF90EF90DF90CF90BF90089573
:10156000CF93DF93EC01FB018617970761F0608151
:1015700071816115710529F0448155810E94150A18
:1015800002C00E94030ACE01DF91CF910895FC01B1
:10159000808191810E946A0B08950F931F93CF93CE
:1015A000DF93BC018230910510F462E070E0E091BD
:1015B000A403F091A50340E050E0A0E0B0E024C017
:1015C0008081918186179707D0F08617970771F46D
:1015D00082819381109729F013969C938E93129792
:1015E0002CC09093A5038093A40327C041155105F7
:1015F00019F08417950718F48D01AC01EF01DF0194
:10160000828193819C01F9013097D1F641155105F2
:10161000F9F0CA01861B970B8430910580F48A810A
:101620009B810115110521F0F8019383828304C089
:101630009093A5038093A403FE01329645C0FE015A
:10164000E80FF91F619371930297998388833CC0D7
:101650008091A2039091A303892B41F48091B80259
:101660009091B9029093A3038093A2034091BA0290
:101670005091BB024115510541F44DB75EB78091C1
:10168000B6029091B702481B590B2091A2033091EA
:10169000A30324173507B0F4CA01821B930B8617E6
:1016A000970780F0AB014E5F5F4F8417950750F0AE
:1016B000420F531F5093A3034093A203F901619378
:1016C000719302C0E0E0F0E0CF01DF91CF911F9174
:1016D0000F910895CF93DF939C01009709F48FC079
:1016E000EC0122971B821A826091A4037091A503DA
:1016F0006115710581F488819981820F931F209172
:10170000A2033091A3032817390739F5D093A30317
:10171000C093A20374C0DB0140E050E0AC17BD07EA
:1017200008F1BB83AA83FE0121913191E20FF31FDF
:10173000AE17BF0779F48D919C911197280F391F2F
:101740002E5F3F4F3983288312968D919C9113977A
:101750009B838A834115510571F4D093A503C093EF
:10176000A4034DC012968D919C911397AD010097E3
:1017700011F0DC01D3CFDA011396DC93CE931297EC
:10178000FA0121913191E20FF31FCE17DF0769F4BF
:1017900088819981280F391F2E5F3F4FFA013183CD
:1017A00020838A819B8193838283E0E0F0E0DB01E8
:1017B00012968D919C911397009719F0BC01FD0131
:1017C000F6CFAB014E5F5F4FDB018D919C91840F93
:1017D000951F2091A2033091A3032817390779F4AC
:1017E000309729F41092A5031092A40302C013822B
:1017F0001282425050405093A3034093A203DF91C2
:10180000CF9108956F927F928F929F92AF92BF92E5
:10181000CF92DF92EF92FF920F931F93CF93DF93BC
:101820008C01009729F4CB010E94CD0A8C01BBC02A
:101830008EEFE82E8FEFF82EE00EF11E4801860E97
:10184000971E8E149F0408F4ACC0D7014D915C9193
:10185000119746175707B8F04530510508F4A3C053
:10186000CA0104978617970708F49DC0425050405C
:10187000461B570BF401419351936D937C93CF0119
:101880000E946A0B90C05B01A41AB50A3801640E6D
:10189000751EA091A403B091A503E0E0F0E0CC2474
:1018A000DD2447C0A615B705A9F5CD91DC911197A8
:1018B000CE0102968A159B0568F1CE018A199B0913
:1018C000029612962C91129713963C91059758F018
:1018D000F40122833383CA19DB09D183C083D70182
:1018E0006D937C9309C04E5F5F4F4C0F5D1FF701F6
:1018F00051834083C901FC01C114D10431F0D601E8
:101900001396FC93EE9312974EC0F093A503E093C9
:10191000A40349C08D919C911197E817F90708F429
:10192000FC016D0112968C91129713969C919C016B
:10193000D901109709F0B6CF8091A2039091A3032B
:1019400086159705E9F4E617F707D0F42091BA0257
:101950003091BB022115310541F42DB73EB780917E
:10196000B6029091B702281B390B82169306C8F471
:101970009092A3038092A203F7017183608313C046
:10198000CB010E94CD0AEC01009759F0D7014D918F
:101990005C91B8010E946100C8010E946A0B8E012F
:1019A00002C000E010E0C801DF91CF911F910F91BC
:1019B000FF90EF90DF90CF90BF90AF909F908F906F
:1019C0007F906F9008955058BB27AA270ED071C101
:1019D00062D130F067D120F031F49F3F11F41EF452
:1019E00057C10EF4E095E7FB4DC1E92F73D180F3A9
:1019F000BA17620773078407950718F071F49EF50C
:101A00008BC10EF4E0950B2EBA2FA02D0B01B9015E
:101A100090010C01CA01A0011124FF27591B99F064
:101A2000593F50F4503E68F11A16F040A22F232F70
:101A3000342F4427585FF3CF469537952795A795C0
:101A4000F0405395C9F77EF41F16BA0B620B730B67
:101A5000840BBAF09150A1F0FF0FBB1F661F771FD8
:101A6000881FC2F70EC0BA0F621F731F841F48F48D
:101A7000879577956795B795F7959E3F08F0B3CF13
:101A80009395880F08F09927EE0F979587950895FD
:101A90000CD00FC107D140F0FED030F021F45F3FF1
:101AA00019F0F0C0511139C1F3C014D198F3992342
:101AB000C9F35523B1F3951B550BBB27AA27621712
:101AC0007307840738F09F5F5F4F220F331F441F57
:101AD000AA1FA9F333D00E2E3AF0E0E830D091508F
:101AE0005040E695001CCAF729D0FE2F27D0660F7C
:101AF000771F881FBB1F261737074807AB07B0E8BB
:101B000009F0BB0B802DBF01FF2793585F4F2AF0D0
:101B10009E3F510568F0B6C000C15F3FECF3983EB0
:101B2000DCF3869577956795B795F7959F5FC9F72D
:101B3000880F911D9695879597F90895E1E0660FB6
:101B4000771F881FBB1F621773078407BA0720F02F
:101B5000621B730B840BBA0BEE1F88F7E095089598
:101B600004D06894B111D9C00895BCD088F09F57B3
:101B700090F0B92F9927B751A0F0D1F0660F771FD9
:101B8000881F991F1AF0BA95C9F712C0B13081F0B9
:101B9000C3D0B1E00895C0C0672F782F8827B85F01
:101BA00039F0B93FCCF3869577956795B395D9F71A
:101BB0003EF490958095709561957F4F8F4F9F4F24
:101BC0000895E89409C097FB3EF490958095709530
:101BD00061957F4F8F4F9F4F9923A9F0F92F96E979
:101BE000BB279395F695879577956795B795F111EE
:101BF000F8CFFAF4BB0F11F460FF1BC06F5F7F4F8B
:101C00008F4F9F4F16C0882311F096E911C077239C
:101C100021F09EE8872F762F05C0662371F096E8A5
:101C2000862F70E060E02AF09A95660F771F881F74
:101C3000DAF7880F9695879597F90895990F000818
:101C4000550FAA0BE0E8FEEF16161706E807F9078E
:101C5000C0F012161306E407F50798F0621B730B29
:101C6000840B950B39F40A2661F0232B242B252BAA
:101C700021F408950A2609F4A140A6958FEF811D4D
:101C8000811D089597F99F6780E870E060E00895EE
:101C90009FEF80EC089500240A9416161706180684
:101CA0000906089500240A94121613061406050660
:101CB0000895092E0394000C11F4882352F0BB0FF1
:101CC00040F4BF2B11F460FF04C06F5F7F4F8F4F54
:101CD0009F4F089557FD9058440F551F59F05F3F8F
:101CE00071F04795880F97FB991F61F09F3F79F03E
:101CF00087950895121613061406551FF2CF4695C0
:101D0000F1DF08C0161617061806991FF1CF869541
:101D10007105610508940895E894BB276627772725
:101D2000CB0197F908958ADF08F48FEF0895629F39
:101D3000D001739FF001829FE00DF11D649FE00DC3
:101D4000F11D929FF00D839FF00D749FF00D659F24
:101D5000F00D9927729FB00DE11DF91F639FB00D23
:101D6000E11DF91FBD01CF0111240895A1E21A2E32
:101D7000AA1BBB1BFD010DC0AA1FBB1FEE1FFF1F2F
:101D8000A217B307E407F50720F0A21BB30BE40B7F
:101D9000F50B661F771F881F991F1A9469F76095C6
:101DA0007095809590959B01AC01BD01CF01089580
:101DB00097FB092E05260ED057FD04D0D7DF0AD099
:101DC000001C38F450954095309521953F4F4F4F6A
:101DD0005F4F0895F6F790958095709561957F4FC8
:101DE0008F4F9F4F0895EE0FFF1F0590F491E02D48
:101DF000099410E0CCE6D0E004C0FE010E94F50E8C
:0C1E00002296CE36D107C9F7F894FFCF28
:101E0C00312E302E35004848005265616479004906
:101E1C005F7261773A2000565F7261773A20004E0C
:101E2C005F7261773A2000566F6C74735F52504D3D
:101E3C003A20005663633A200000444400414100BC
:101E4C0044656275673A204F6E0044656275673A67
:101E5C00204F666600563A20003B2000493A20008D
:101E6C004E3A2000503A2000743A20007B000922A0
:101E7C00766F6C74616765223A20002C000922632E
:101E8C00757272656E74223A2000092272706D228E
:101E9C003A20000922706F776572223A20000922DD
:101EAC0074696D657374616D70223A20007D004514
:101EBC004F4C004D6561737572656D656E74204293
:101ECC006F617264004669726D776172652020568D
:101EDC00657273696F6E3A00436F6D6D616E6473FA
:101EEC003A004848203A207072696E747320746806
:101EFC006973206D617373616765004141203A20FD
:101F0C007072696E7420566F6C742C2043757272EB
:101F1C00656E742C2052504D2C20506F77657220BA
:101F2C00616E6420612054696D657374616D7020FD
:101F3C002873696E6365206C6173742072657374A9
:101F4C006172742920696E2061637475616C20550F
:101F5C006E69747320285B6D565D2C5B6D415D2C36
:101F6C005B312F6D696E5D2C5B6D575D2C5B7573F2
:101F7C005D290020202020204F7574707574206915
:101F8C007320696E204A534F4E205374796C65212F
:101F9C002121004444203A20746F67676C652064EB
:101FAC0065627567206D6F6465206F6E20616E646D
:101FBC00206F666600008000A60300000000000091
:0C1FCC00F7069C078D06BE069E06E70681
:00000001FF
